:020000040800F2
:1000000000000220A1680008213200081133000816
:100010003D3300083F330008413300080000000072
:100020000000000000000000000000004333000852
:10003000453300080000000047330008493300083A
:10004000F1680008F1680008F1680008F16800082C
:10005000F1680008F1680008F1680008F16800081C
:10006000F1680008F1680008F1680008F16800080C
:10007000F1680008F1680008F1680008F1680008FC
:10008000F1680008F1680008F1680008F1680008EC
:10009000F1680008F1680008F1680008F1680008DC
:1000A000F1680008F1680008F1680008F1680008CC
:1000B000F1680008F1680008F1680008F1680008BC
:1000C000F1680008F1680008F1680008F1680008AC
:1000D000F1680008F1680008F1680008F16800089C
:1000E000F1680008F1680008F1680008F16800088C
:1000F000F1680008F1680008F1680008F16800087C
:10010000F168000859330008F1680008F168000838
:10011000F1680008F16800084D330008F168000834
:10012000F1680008F1680008F1680008653300080C
:10013000F1680008F1680008F1680008F16800083B
:10014000F1680008F1680008F1680008F16800082B
:10015000F168000871330008F1680008F1680008D0
:10016000F1680008F1680008F1680008F16800080B
:10017000F1680008F1680008F1680008000000005C
:08018000F1680008F1680008B5
:1001900010B5054C237833B9044B13B10448AFF3C1
:1001A00000800123237010BDC80000200000000063
:1001B000F468000808B5034B1BB103490348AFF3CB
:1001C000008008BD00000000CC000020F46800089A
:1001D00001F0FF01102A2BDB10F0070F08D010F8F8
:1001E000013B013A8B422DD010F0070F42B3F6D1FC
:1001F000F0B441EA012141EA014122F007047FF015
:1002000000070023F0E80256083C85EA010586EA6B
:10021000010685FA47F5A3FA87F586FA47F6A5FAA7
:1002200087F68EB9EED1F0BC01F0FF0102F00702B3
:1002300032B110F8013B013A83EA010313B1F8D15E
:100240000020704701387047002D06BF354603383F
:10025000073815F0010F07D1013015F4807F02BF78
:10026000013015F4C03F0130F0BC0138704700BFC9
:1002700053B94AB9002908BF00281CBF4FF0FF310D
:100280004FF0FF3000F072B9ADF1080C6DE904CE0B
:1002900000F006F8DDF804E0DDE9022304B0704761
:1002A0002DE9F047089E04468846002B4BD18A4230
:1002B000154667D9B2FA82F24AB1C2F1200701FAB3
:1002C00002F320FA07F7954047EA030894404FEA03
:1002D000154E230CB8FBFEF71FFA85FC0EFB1788A2
:1002E00043EA084307FB0CF1994209D9EB1807F1DF
:1002F000FF3080F01B81994240F21881023F2B446D
:100300005B1AA4B2B3FBFEF00EFB103344EA0344C5
:1003100000FB0CFCA44509D92C1900F1FF3380F037
:100320000781A44540F2048102382C4440EA07408A
:10033000A4EB0C0400271EB1D4400023C6E90043FF
:100340003946BDE8F0878B4209D9002E00F0EB80DA
:100350000027C6E9000138463946BDE8F087B3FA00
:1003600083F7002F47D18B4202D3824200F2FA80FA
:10037000841A61EB030301209846002EE0D0C6E901
:100380000048DDE702B9FFDEB2FA82F2002A40F04F
:100390008F80491B4FEA154E1FFA85F80127B1FBE4
:1003A000FEFC230C0EFB1C1143EA014308FB0CF17D
:1003B000994207D9EB180CF1FF3002D2994200F2B2
:1003C000CD808446591AA3B2B1FBFEF00EFB101487
:1003D00043EA044408FB00F8A04507D92C1900F1B2
:1003E000FF3302D2A04500F2B6801846A4EB080401
:1003F00040EA0C409FE7C7F1200CBB4022FA0CFEFC
:100400004EEA030E01FA07F420FA0CF521FA0CF378
:100410004FEA1E482543B3FBF8F92C0C08FB1933AF
:100420001FFA8EFA44EA034309FB0AF49C4202FADB
:1004300007F200FA07F10BD91EEB030309F1FF30B5
:1004400080F087809C4240F28480A9F102097344C5
:100450001B1BADB2B3FBF8F008FB103345EA0344B5
:1004600000FB0AFAA24508D91EEB040400F1FF3391
:100470006BD2A24569D90238744440EA0940A0FB16
:100480000289A4EB0A044C45C2464B4654D351D0D2
:10049000002E69D0B1EB0A0564EB030404FA0CFCEE
:1004A000FD40FC404CEA0505C6E90054002747E73B
:1004B000C2F1200320FA03F7954001FA02F021FA75
:1004C00003F34FEA154E3843010CB3FBFEF71FFA56
:1004D00085F80EFB173341EA034107FB08F38B4213
:1004E00004FA02F407D9691807F1FF3C2FD28B42B6
:1004F0002DD9023F2944CB1A81B2B3FBFEF00EFB8B
:10050000103341EA034100FB08F38B4207D9691815
:1005100000F1FF3C17D28B4215D902382944C91A81
:1005200040EA07473BE73746304609E70746E7E634
:100530001846FBE64145ABD2B8EB020A69EB0E0266
:1005400001381346A4E76046E9E7184695E7674691
:10055000D1E781467CE702382C4447E7ACF1020C36
:100560002B442FE7384608E73746E9E6704700BFD7
:100570004FF4F07070474FF4A070704710B53D4CC9
:100580002378DA070AD443F001029B07227001D4D2
:1005900000F080FB207840F002012170692000F01B
:1005A0006DFB012000F08EFB052000F067FB0F22A1
:1005B0003149E02000F0A4FB0F223049E12000F097
:1005C0009FFB02222E49C02000F09AFB052000F07C
:1005D00055FBC12000F076FB412000F077FB0520A1
:1005E00000F04CFB03222749C52000F089FB0520C1
:1005F00000F044FB3A2000F065FB552000F066FB5C
:10060000B02000F05FFB802000F060FBB12000F024
:1006100059FBA02000F05AFBB42000F053FB02204D
:1006200000F054FB02221849B62000F069FBE920D3
:1006300000F048FB002000F049FB04221349F7209A
:1006400000F05EFB052000F019FB112000F03AFBE2
:10065000782000F013FB292000F034FB052000F087
:100660000DFB362000F02EFB2820BDE8104000F0E6
:100670002DBB00BFE40000200C6900081C690008C5
:10068000286C00082C6900082B6C00082E6C0008F0
:1006900070B505462E0A2A200C46EDB200F012FB7A
:1006A000304600F013FB284600F010FB304600F007
:1006B0000DFB2846260A00F009FB2B2000F002FB68
:1006C000E4B2304600F002FB204600F0FFFA30466C
:1006D00000F0FCFA2046BDE8704000F0F7BA2DE9C2
:1006E000F04105462A201E460C469046EFB200F027
:1006F000E9FA280A00F0EAFA384600F0E7FA05EBD2
:100700000800411EC1F3072000F0E0FA08F1FF32B3
:100710003A44D0B200F0DAFA2B2000F0D3FAE5B276
:10072000200A00F0D3FA284600F0D0FAA3195C1E84
:10073000C4F3072000F0CAFA06F1FF3CAC445FFAAC
:100740008CF0BDE8F04100F0C1BA08B5112000F00E
:10075000B9FA0120BDE8084000F092BA08B51020AF
:1007600000F0B0FA0020BDE8084000F089BA0000AF
:1007700007B50C4801780023019309B9FFF7FEFE85
:100780000123032201A9042000F0DAFA064A0198A5
:1007900049F2884C90420CBF6046002003B05DF8DF
:1007A00004FB00BFE400002054806600F8B5054655
:1007B0002E0A2A200C461746EDB200F083FA304686
:1007C00000F084FA284600F081FA304600F07EFA04
:1007D0002846260A00F07AFA2B2000F073FAE4B2D9
:1007E000304600F073FA204600F070FA304600F010
:1007F0006DFA204600F06AFA2C2000F063FA3846C1
:10080000BDE8F84000F068BA73B505462E0A2A2004
:100810000C46EDB200F056FA304600F057FA284682
:1008200000F054FA304600F051FA284600F04EFA33
:10083000260A2B2000F046FAE4B2304600F046FAD1
:10084000204600F043FA304600F040FA204600F01F
:100850003DFA01231A460DF106012E2000F086FA1A
:10086000BDF8060002B070BD70B5049C1E4615466A
:10087000FFF735FF06FB05F2214601232E20BDE8D8
:10088000704000F073BA2DE9F0410C4680462A20F2
:100890001F461546E6B200F015FA200A00F016FAD7
:1008A0003C44304600F012FA601EC0F3072000F00E
:1008B0000DFA791E3144C8B200F008FA2C0A2B2038
:1008C00000F000FAEDB2204600F000FA284600F0F1
:1008D000FDF9204600F0FAF9284600F0F7F93A460B
:1008E00041462C20BDE8F04100F0FCB92DE9F04173
:1008F0000D464FEA152807462A2014461E46EDB23B
:1009000000F0E0F9404600F0E1F9284600F0DEF999
:10091000404600F0DBF9284600F0D8F92B2000F023
:10092000D1F95FFA84F8200A00F0D0F9404600F0CF
:10093000CDF9A019411EC1F3072000F0C7F9721EBE
:100940004244D0B200F0C2F9324639462C20BDE80C
:10095000F04100F0C7B970B5BDF8104015461E460D
:10096000FFF7BDFE06FB05F221462C20BDE87040D6
:1009700000F0B8B938B5558893885489918945EA0B
:10098000034044EA0144051B3620144400F09AF960
:10099000682000F09BF96A0821462C2000F0C0F97D
:1009A000362000F08FF92820BDE8384000F08EB9DD
:1009B00070B5049C15461E46FFF791FE06FB05F236
:1009C00021462C20BDE8704000F0AAB908B5064BBE
:1009D000186801688847054B054999604FF6FF7212
:1009E0000020C3E9002008BD48000020FC070020CB
:1009F00000000020014B1868816A08474800002069
:100A0000014B1868C16A084748000020014B186074
:100A1000704700BFFC070020084B73B506461868F6
:100A2000846BFFF7E7FF0546FFF7EAFF0021034667
:100A300000962A460846A04702B070BD4800002034
:100A40002DE9F0411546D37C927C95F8178095F8F6
:100A500016C002EB0324A2B2134C23680CEB082E41
:100A6000D3F81C8006460F461FFA8EFCB8F1000F23
:100A700001D06346C0472068036B1BB12A46394644
:100A800030469847FFF7B6FF0646FFF7B9FF2168E3
:100A9000CF69034637B100213246BC460846BDE85F
:100AA000F0416047BDE8F081480000202DE9F04F9B
:100AB000DFF82C81D8F808308BB09C88DE8806914E
:100AC000E11D4FEAE10C16FB04F504FB06F1D3F837
:100AD00000E0424B1B351B316F0041F3CF359D8049
:100AE000D8F804505F804FF000014FF036075F8167
:100AF0009982EFB21983C5F30721D8F80050049703
:100B00006FF0010AEFB206F1004B0591C5F3072122
:100B100002970AFB04F5670003910BF1FF31C4EB68
:100B2000CC090195203A01FB073504F1FF3AA4F105
:100B300011075C82DE82724300230797A4F109014A
:100B40005AFA89F737350CFB02E298460891099763
:100B50004FF0010BB04506D3204A06990BB0BDE813
:100B6000F04FFFF76DBF0799072907D8537892F820
:100B700000E091781F0247EA0E430B43089F072FBE
:100B800002D8138859BA8BB2BAF1070F98BF1378FD
:100B90002F464FF0000E744505D8019F08F101085B
:100BA0003D446244D6E70999A1EB0E090BFA09F915
:100BB00019EA030F15BF9DF808109DF8101007F8EB
:100BC000011C07F8011C14BF9DF80C109DF81410AF
:100BD00039700EF1010E0237DDE700BFE50000209D
:100BE000FC0700202DE9F04706460D4614469946BD
:100BF000A2EB040812F8013B002BF9D11E4FFFF7BE
:100C0000F9FEB968B9F1010F8A88B0FBF2F083B23E
:100C100018D0B9F1020F1CD0A146A9EB04031FFAAA
:100C200083F819F801ABFFF7E5FEB9688A8802FB83
:100C3000180C1FFA8CF0824202DCBAF1000F0ED1C0
:100C4000BDE8F087A3EB0800504306EB5006B6B2B0
:100C5000E2E7A3EB080111FB02F2961BF7E730462F
:100C600019F8012C2946FFF721FFBB68B3F804806F
:100C7000B0441FFA88F6D0E7FC07002003F084BBDD
:100C8000034B10B101221A6070471860704700BF13
:100C900084024042094A0A49136B43F00100106381
:100CA000A2F5605C01200860DCF8002022F00C0353
:100CB00043F00401CCF8001003F066BB003802409A
:100CC000840240424FF0C04318807047014B1880A7
:100CD000704700BFFEFF0760014B1880704700BFE0
:100CE000FEFF07604FF0C043188003F5FF2000F2BD
:100CF000FE7C12F1FF3200D27047ACF80010F8E72A
:100D00004FF0C0430A44188003F5FF2000F2FE7C38
:100D1000914200D1704711F8013BACF80030F7E781
:100D20004FF0C043188003F5FF2000F2FE7C12F163
:100D3000FF3200D2704731F8023BACF80030F6E7E2
:100D400010B54FF0C0442080074813F1FF3304D2A0
:100D5000054B0A44914202D110BD0488F5E718887A
:100D600001F8010BF6E700BFFEFF076010B54FF07A
:100D7000C0442080064823B9054B12F1FF3203D24C
:100D800010BD0488013BF6E7188821F8020BF4E750
:100D9000FEFF076008B50A490A4801F075FC0A4BD6
:100DA0000146187038B9094802F076FB0848BDE8DA
:100DB000084002F071BB074802F06EFBF6E700BF87
:100DC000C4590020E47000089A480020336C0008E1
:100DD0006F6C00084B6C000800207047034B1A181A
:100DE00003EB80004168107A4B681847A406002086
:100DF000064B1A5C42B9012119541A1803EB800002
:100E00004368107A1968084700207047A40600203C
:100E100030B4054C251804EB80004468287AA46897
:100E2000A44630BC604700BFA406002030B4054C87
:100E3000251804EB80004468287AE468A44630BC96
:100E4000604700BFA4060020044B10B41C1803EB3D
:100E500080004368207A1B6910BC1847A406002054
:100E600042884378007843EA022140EA0120704733
:100E70000B0A0A0C0170090E43708270C170704732
:100E8000024400F8011B9042FBD17047F0B50024EA
:100E9000134D224613015E5976B10768BE420CD14C
:100EA0002B4486685F68B74207D19F684669B7429E
:100EB00003D169B110200AE001240132052AE9D1E9
:100EC0000CB1002003E002290CBF00201220F0BD6D
:100ED0009989B1F5807F14BF00201020F7E700BF8B
:100EE00050040020F0B51E4D07688C4600232A46AA
:100EF0001C016659BE4208D12C4486686168B14223
:100F000003D14669A168B14220D00133052BEFD14E
:100F100000231D015C1C56599EB951195751876811
:100F200040694F6088608E81BCF1000F14D102EBE4
:100F30000314A5890135A9B202EB03108181581C65
:100F4000F0BD052C2346E4D10020F9E7BCF1000FE9
:100F5000EDD0A689002EF7D14FF48071ECE700BFE9
:100F6000500400200138042818D80D4902018818BF
:100F70008389B3F5807F06D14FF0000CA0F80CC038
:100F8000002088507047002BFAD003F1FF3C1FFA75
:100F90008CF38381002BF3D0002070470220704730
:100FA00050040020C36902399A1E8A4283BF4289D5
:100FB000006B01FB020000207047C26A10B5046894
:100FC0000432A3896089B1FBF3F1B1FBF0F410683E
:100FD00030B1844202D3241A0832F8E75068204422
:100FE00010BD024600F10B010020C30143EA500C82
:100FF00012F8010B50FA8CF38A42D8B2F5D170473F
:10100000026810B552B111460B4611F8014B1F2C66
:101010000CD93A2CF8D1511C8B4202D04FF0FF3042
:1010200005E01278302AF9D101330360002010BDA9
:1010300038B50D46044618B9092000242C6038BD87
:101040000368002BF8D01A78002AF5D08188D88858
:101050008142F1D15878FFF7C1FE10F00100EBD1C9
:101060002468EBE701380A4411F8013B00F8013F1E
:101070009142F9D17047CA7E8B7E032843EA022C45
:1010800001BF487D0A7D42EA00224CEA024C6046DC
:101090007047C2F307238A76CB760078032801BF16
:1010A000120C0A75120A4A757047F8B5456B00F1C3
:1010B0003807044601232A4639464078FFF7B6FE32
:1010C000A0B9A36A226AE070E81A904201D3002016
:1010D000F8BDA678012EFAD9216A60780D44012363
:1010E0002A463946FFF7A2FE013EF3E70120EFE76B
:1010F000C3780BB1FFF7D9BF18467047436B8B42DB
:1011000070B506460D4612D0FFF7F2FF044660B9EF
:101110002A46012306F138017078FFF779FE00288E
:101120001CBF4FF0FF3501247563204670BD0024BD
:10113000FBE7000000234FF0FF3210B5C37042639D
:101140000446FFF7DBFF30BB94F8370294F8361201
:101150004AF6552341EA002C9C451ED194F83820CC
:10116000E92A05D0A06B104B00F0FF11994216D16F
:1011700004F16E00FFF774FE20F07F420B488242BC
:101180000FD004F18A00FFF76BFE094CA04214BF98
:101190000220002010BD0420FCE70320FAE7022013
:1011A000F8E70020F6E700BFEB009000464154004E
:1011B000464154332DE9F04F002385B00B600F46B4
:1011C0001546FFF71DFF061EC0F25F81B24850F8BA
:1011D0002640002C00F05B813C60217805F0FE0782
:1011E00071B16078FFF7FAFDC10709D4002F00F054
:1011F000288110F0040000D00A2005B0BDE8F08F6F
:101200000022F0B222706070FFF7F2FDC20700F119
:1012100040810FB14307EFD404F10C020221607842
:10122000FFF712FE08B10120E7E7B4F80C80A8F53B
:101230000075B5F5606FF6D808F1FF3313EA0807BB
:10124000F1D139462046FFF775FF022840F00381AF
:1012500004F5FF7515F8040C10B12846FFF700FEE1
:101260004DF827000137042F05F11005F2D10027B2
:101270005DF82760002E00F0E68031462046FFF73B
:1012800059FF012800F2E08094F8440094F84310DC
:10129000B4F80C8041EA0022904540F0E18094F8D7
:1012A0004F9094F84E3053EA092704D104F15C00C2
:1012B000FFF7D6FD074694F848B027620BF1FF35DB
:1012C000012D84F802B000F2CB8094F84550A8B20A
:1012D0006081002800F0C480691E294240F0C0806F
:1012E00094F84A2094F849304FEA581C43EA022AFD
:1012F000BAFBFCF90CFB19AE1FFA8EF0A4F808A09B
:10130000002840F0AD8094F84C1094F84B2052EA3D
:10131000012003D104F15800FFF7A2FD94F8471013
:1013200094F8463053EA012300F09A8007FB0BFB48
:1013300009EB03025A449042C0F09280801AB0FB3D
:10134000F5F1002900F08C804FF6F575A9428CBFAD
:101350004FF003094FF0020940F6F570814298BF43
:101360004FF001098D1C33443244B9F1030FE5619C
:101370006662A362226377D194F863C094F8622016
:1013800052EA0C236CD1BAF1000F69D104F1640068
:10139000FFF766FDAD00E06208F1FF3A5544B5FB8A
:1013A000F8F1B9425CD84FF0FF378020B9F1030F54
:1013B000C4E9057720712FD194F8695094F86880BA
:1013C00048EA0523012B27D1711C2046FFF796FE22
:1013D00010BB94F8376294F83622207142EA062155
:1013E0004AF65527B94217D104F13800FFF738FD06
:1013F0002A4DA84210D104F50770FFF731FD284BA4
:10140000984209D104F50870FFF72AFDA06104F5A0
:101410000970FFF725FD6061224823490688234BA8
:1014200084F800900136B2B200270280E280216188
:1014300038463E010137F558AC4208BFF050052F41
:10144000F7D10020D9E603200137042F7FF410AF35
:10145000042805D1E7E604283FF4E5AE012801D9C8
:101460000D20CAE63E460FE7BAF1000FF8D05B4404
:10147000B9F1020FE3624FEA45031BBF5B1905F0A8
:1014800001051D4605EB530586E70B20B5E60C204C
:10149000B3E60320B1E600BF4C0400205252614184
:1014A00072724161A0040020A204002050040020B8
:1014B00001292DE9F04704460D46174640F28D807C
:1014C000C3698B4240F28980017802294AD00329FE
:1014D00062D0012940F08180816A828905EB550A3A
:1014E000BAFBF2F84144FFF709FE064678BBA08933
:1014F000BAFBF0F304F1380800FB13A615F0010560
:101500001FBF18F8060000F00F01380100F0F000CE
:1015100014BF0843F8B208F806000121E170A16A7F
:10152000A2890AF101092046B9FBF2FC6144FFF7E8
:10153000E5FD064658B9A089B9FBF0F300FB13910D
:1015400045B1C7F3071708F801700120E070304675
:10155000BDE8F08718F80150C7F3032725F00F0204
:101560001743F0E78289816A5608B5FBF6FC6144AF
:10157000FFF7C4FD06460028E9D1B4F80CE06D0081
:1015800004F13800B5FBFEF30EFB1351421847542B
:10159000C7F307275770D8E78689816AB308B5FB78
:1015A000F3FE7144FFF7AAFD06460028CFD1B4F838
:1015B0000C80A80004F1380AB0FBF8F108FB11090F
:1015C000D1444846FFF74CFC27F0704500F07041CD
:1015D00029434846FFF74CFCB7E70226B7E7012945
:1015E000F8B504460E4668D9C369994265D20178B8
:1015F000022932D0032948D001295ED1816A82892B
:1016000006EB5605B5FBF2F73944FFF777FD10B14D
:101610004FF0FF30F8BDA089A26AB5FBF0F300FBE4
:10162000135CA4446F1CB7FBF0F1204611449CF8F6
:101630003850FFF763FD0028EAD1A189B7FBF1F02C
:1016400001FB107E7444F30794F8384045EA042007
:101650004CBF0009C0F30B00DCE78789816A7B0877
:10166000B6FBF3FE7144FFF749FD0028D0D104F129
:101670003800A4897600B6FBF4F504FB15628118E6
:10168000835C4F7843EA0720C4E78789816ABB08F7
:10169000B6FBF3FC6144FFF731FD0028B8D1A58902
:1016A000B60004F13800B6FBF5F205FB1261084400
:1016B000FFF7D6FB20F07040ACE70120AAE7B1F5B8
:1016C000001F2DE9F04105460F4602D30220BDE878
:1016D000F081CA06FAD1866804686961DEB92078AB
:1016E000022801D9E36ABBB92089B0EB571FEDD9B5
:1016F000E26AEA61AE61EE69002EE7D0B4F80CC090
:10170000B7FBFCF138340CFB11780E444444EE6115
:101710002C620020DBE733466289A1891E4601FB6B
:1017200002F84745314604D22046FFF73BFCE8610A
:10173000E0E72868FFF753FF431C064607D001285F
:10174000C4D9E3698342C1D9A7EB0807E9E70120BF
:10175000BDE72DE9F041804605680F4671B96E6915
:10176000F6B1E869B04298BF01263446E969013410
:10177000A14218D8012E15D8002409E02846FFF709
:101780002EFF0128044637D9431C04D14FF0FF3403
:101790002046BDE8F081EB698342F9D83E46E4E794
:1017A0000126E2E702242146D8F80000FFF717FFE0
:1017B00030B1012820D00130E8D0B442D6D1DBE7E7
:1017C0004FF0FF3221462846FFF772FE90B957B915
:1017D000D5E906C2971EBC456C610FD9287940F047
:1017E00001062E71D4E7224639462846FFF760FEEF
:1017F0000028EDD00128C9D00124C9E70CF1FF333E
:10180000AB61EBE7F8B50D46012D074611462CD923
:101810000468E369AB4228D92AB14FF0FF32204671
:10182000FFF746FE30B929463868FFF7D8FE06466E
:1018300008B90020F8BD012817D0431C17D000229A
:1018400029462046FFF734FE0028F3D1D4E90602EA
:10185000911E884205D22579013045F00103A0612F
:101860002371B2423546DED8E3E70220E2E70120E9
:10187000E0E7F8B50446FFF73BFC0546002842D1F7
:101880002378032B37D12779012F34D104F138067F
:101890000146A2893046FFF7F3FA552052224FF055
:1018A000610C412384F83602AA21722084F8382082
:1018B00084F8392084F83AC084F83B3084F81E322A
:1018C00084F81FC284F8371284F81C0284F81D02C1
:1018D000A16904F50870FFF7CBFA616904F5097096
:1018E000FFF7C6FA626A6078013262633B463146AE
:1018F000FFF79CFA2571002211466078FFF7A4FAE1
:10190000003018BF0120F8BD2DE9F0410025D0F8C6
:1019100000808D75C36906460C46002B57D0006BBE
:10192000431C0AD001F11607D8F8101031F8150041
:1019300000284ED125440022AA75356AA17D05F103
:101940000B0E284600232E2610F8012B202A24D027
:10195000052AA0EB050C08BFE522BCF1090F04D154
:10196000E71801B9BE757E720133E7187A7299B92A
:10197000A2F14108B8F1190F0DD8BCF1090F95F883
:101980000C8034BF4FF0080C4FF0100C18EA0C0F0D
:101990001CBF2032D2B2BA7501337045D4D129B9F7
:1019A000E0188175297B002908BF00232344002605
:1019B0005E72EB7A237205F11C00FFF751FA20608A
:1019C00005F11600FFF74CFA050CE080A580BDE894
:1019D000F081002100F05CFE30B10135B5F5807F6B
:1019E00002D007F8010B9FE70025A3E72DE9F84394
:1019F000C36905468846B3B147692037B7F5001F6C
:101A000011D20468A289B7FBF2F002FB1071002921
:101A10004FD1A9690133EB6139B92289B2EB571F64
:101A200047D80026EE6104200CE0668906F1FF39F4
:101A300019EA000F3DD12046FFF7D1FD01280646E7
:101A400002D80220BDE8F883421C01D10120F9E749
:101A5000E369834227D8B8F1000FE2D0A96928468C
:101A6000FFF777FE064600283CD00128E9D0431C4A
:101A7000ECD02046FFF73CFB80460028E6D101462B
:101A8000A28904F13800FFF7FBF931462046FFF741
:101A900089FA4FF0010960636289904515D3606B44
:101AA000A0EB08016163AE6131462046FFF77AFA88
:101AB000E861A089B7FBF0F104F1380C00FB117468
:101AC00064446F612C620020BCE784F803902046D8
:101AD000FFF7EBFA0028B9D1636B013308F1010875
:101AE0006363D9E70720ADE72DE9F04F002185B00A
:101AF0000546D0F800A0FFF7E2FD8346002840F03D
:101B00009E804FF0FF334FF0FF092B634E46E9698B
:101B10005046FFF7F3FA8346002840F090802C6A85
:101B20002778002F00F08F80E27AE52F02F03F0047
:101B3000A87103D0120705D50F2805D04FF0FF304C
:101B4000286359E00F285ED195F82F10480649D434
:101B500079064FD56E6994F80D902E6307F0BF0794
:101B600094F80D80C84547D194F81BB0A37E43EA92
:101B70000B2216B2002E3FD12078DAF810B000F018
:101B80003F0C0CF1FF310D2303FB01F801212F4A1B
:101B9000B25CA01814F802C090F801E04CEA0E23E1
:101BA00061B3B8F1FE0F27D81846039300F08EFDFD
:101BB000029008F1010001903BF8180000F086FD4A
:101BC000029B834218D1019A0399904601360D2E4B
:101BD000DDD12478620603D511B13BF818605EB9F7
:101BE000013FFEB200212846FFF700FF8346002890
:101BF0008DD024E0BE42B3D0FF26F3E74FF6FF724C
:101C00009342E3D0F8E726B92046FFF7EAF94845C2
:101C100015D095F82F10CB0790D405F1240604F1C8
:101C20000B0714F8013B16F8012BBC42A3EB020092
:101C300002D00028F5D081E700287FF47FAF584616
:101C400005B0BDE8F08F4FF0040BF8E7F66C000824
:101C50002DE9F04F90F82F4014F0A00489B005460C
:101C600040F0878007683E6936F81430002B60D159
:101C700005F1240605A80C223146FFF7F3F99DF87B
:101C80001F00C3077ED54021DFF8348285F82F106E
:101C90004FF001090B2205A93046D7F810A0FFF735
:101CA000E1F9B9F1050F55D9AAF1020E4B463EF8FC
:101CB000022F002A3FD1072203F00F0B0BF1300156
:101CC000013A0DF10C0C3929944488BF0BF137010E
:101CD0001B098CF80110EFD108A911444FF07E0EBA
:101CE00001F814EC9A4204D0F15C202903F10100C0
:101CF00032D13344072A9BBF08A98918202111F843
:101D0000141C03F8011BA3EB060198BF013207293D
:101D1000F0D92846FFF7E8FE824668BB09F10109C1
:101D2000B9F1640FB6D14FF0070A504609B0BDE8CB
:101D3000F08F013498E7102102F0010B0BEB430305
:101D400013F4803F18BF83EA080301394FEA5202B7
:101D5000F2D1ACE74B46AEE70346C3E7D1460121DB
:101D60002846FFF743FE824610B3BAF1040FDAD0DB
:101D7000DBE74FF0060AD8E70428D6D19DF81F808C
:101D800085F82F809DF81F30D5F800B09A0748BF1E
:101D90000C344FF00001284649BF0D220124B4FB4A
:101DA000F2F40134FFF78BFC82460028DDD1814636
:101DB000E9695846FFF7A2F982460028D5D1286A7A
:101DC0000178E52901D00029C8D109F101094C4564
:101DD000C5D1013C56D06B692846A3EB4411FFF7EF
:101DE0006EFC82460028A0D13046FFF7FAF84FF685
:101DF000FF798046E9693846FFF780F98246002876
:101E000093D12B6AD7F810E083F80D800F22E1B24E
:101E1000DA7201F1FF3B0D2202FB0BF21873987688
:101E2000D8760192844648451FBF019A3EF81200B9
:101E300001320192214A1CF802A00CF1010C03EBC3
:101E40000A0B03F80A004FEA102A002808BF484688
:101E5000BCF10D0F8BF801A0E5D1484503D00198E6
:101E60003EF810200AB941F0400119700123FB70BF
:101E700000212846FFF7BAFD824600287FF455AFBF
:101E8000013CB7D1E9693846FFF738F982460028A6
:101E90007FF44BAF01462022286AFEF7F1FF286A43
:101EA0000B223146FFF7DEF82E6A95F82F500122FB
:101EB00005F018003073FA7037E700BFF66C0008C1
:101EC000211001002DE9F74F0368009307468A4669
:101ED00011F8010B2F28FAD05C28F8D00021B96046
:101EE0009AF800201F2A00F2B180802087F82F0086
:101EF000384603B0BDE8F04FFFF7E1BBB4F5807F93
:101F00000BD0012100F0C4FB38B17F2807D8864EE2
:101F100016F8013F1BB19842FAD106204EE025F891
:101F2000020F26469AE03CF8020D202802D02E2807
:101F300040F0B380013EADE00131BEE0C14505D2C5
:101F4000B2424BD1B8F10B0F40D102E0B8F10B0F08
:101F500037D144F003044FF00B0897F82430E52BF9
:101F600004BF052387F82430B8F1080F04BFAD0083
:101F7000EDB205F00C060C2E03D005F00302032A87
:101F800001D144F00204A10709D405F00305012D95
:101F900008BF44F01004042E08BF44F0080487F87A
:101FA0002F403846FFF7A0FD97F82F10002839D0B2
:101FB000042803D111F0040F08BF052003B0BDE8C9
:101FC000F08FB24202D044F00304C6D8A800C5B2D4
:101FD00032464FF00B084FF0080994E07F280CD9E7
:101FE0000021019200F054FB44F00204019A60B118
:101FF0004E49084410F8800C38B14D4B13F8011FBE
:10200000002900F084808142F8D144F003045F206D
:1020100007EB090E09F101098EF8240073E045F081
:102020000205F5E74A07C9D4B879C3066DD5009B08
:102030007A699E89009DB2FBF6F403F1380106FB34
:10204000142C28786144FFF716F8B8603968D1F885
:1020500010B00AF1FF38ABF10205002618F8010FA5
:102060001F2806F101040ED92F2802D05C287FF426
:1020700045AF0AEB0409A9EB0A0419F8012B2F2A32
:10208000F9D05C2AF7D01F28A2440BEB460C8CBF7A
:1020900000240424002E7FF446AF4FF000080BEB21
:1020A00046052BF81680002E3FF437AF20210B2277
:1020B00007F12400FEF7E4FE41463BF81130202BE7
:1020C0003FF43AAF2E2B3FF437AF09B144F003048D
:1020D00035F8022D2E2A01D0013EF9D14FF000092A
:1020E0004FF008084D463BF811004A1C00283FF409
:1020F00034AF202805D02E287FF420AFB2423FF421
:1021000021AF44F003041146EDE7052056E7A0F1A6
:102110004103192B83D9A0F1610119299EBF2038F1
:1021200045F0010580B273E7026D0008766C000887
:102130000B6D0008F0B585B0CDE9001004A8174676
:1021400040F8041DFEF75CFF051E21DB124951F823
:1021500025406CB1002311489C461E0101333258C2
:10216000944208BF46F800C0052BF6D10023237027
:10217000019808B10024047041F8250030B1012F06
:1021800008D1002201A96846FFF714F805B0F0BD98
:102190000B20FBE70020F9E74C040020500400204E
:1021A0002DE9F04790B0904601910446002800F0D8
:1021B000BB8002F03F052A4602A901A8FEF7FAFFFC
:1021C0000746002864D110AE029B46F8343D0199C1
:1021D0003046FFF777FE58B99DF93B0000285EDBDB
:1021E00015F03E0F14BF012100213046FEF74EFED0
:1021F00018F01C0F64D0002858D0042848D1724928
:10220000002318014258002A4BD13046FFF720FD29
:1022100000283DD145F0080528075ED5FEF7DCFD16
:10222000824601460B980E30FEF722FE0B9851466F
:102230001630FEF71DFE0B9BDDF808902021D972A9
:10224000DDF82CA099F800005146FEF714FF00229B
:1022500080464846FEF71DFF0B98029B0022012195
:10226000027742778277C277D970B8F1000F34D005
:1022700041463046D3F83490FFF7C4FA40B9494696
:102280000298FEF73BFF029A08F1FF31516120B33B
:10229000002727600746384610B0BDE8F0870620C3
:1022A000A6E70133052BACD11220F1E79DF81220EF
:1022B00012F0110F36D118F0040FADD00820E7E767
:1022C0000028E5D19DF812905FEAC96228D418F081
:1022D000020F02D05FEAC97324D4280702980B9A30
:1022E000436B636248BF45F0400515F0FE0FA262E4
:1022F00014BF012100213046FEF7F4FD2061A8B98A
:102300000220C5E72068FFF76AF901280146A5EB1E
:10231000080503D9421C32D1012033E0022031E00C
:102320000420B5E70720B3E70927B4E7029EDDF8EC
:102330002CA030785146FEF79EFEA0600AF11C00EA
:10234000FEF78EFD0021E0602660F088A08004F199
:102350003006E162257561752162A1614FF48052FA
:102360003046FEF78DFDAB0695D5E568002D92D081
:102370000299A5614B898A89A16802FB03F8A845E7
:10238000C0D30020E161002882D1DDF80890B9F8BF
:102390000C00B5FBF0FA00FB1A53002B3FF47BAFA7
:1023A0004846FEF7FFFD0028AAD00AEB0002226291
:1023B0000123314699F80100FEF72AFD00283FF479
:1023C0006AAF012064E700BF500400202DE9F04F00
:1023D0009B4685B000238946CBF8003003A904460C
:1023E0001746FEF725FE054640BB657D35BB207DC3
:1023F000C20740F1AA80E168A6698E1BBE4204F1C3
:10240000300228BF3E460092C6B1039FA169B7F8CB
:102410000C80B1FBF8F008FB1013002B40F081801A
:10242000B7F80AA00AF1FF3212EA0007019719D1A2
:1024300041B9A068012810D802256575284605B065
:10244000BDE8F08FE06A18B12046FEF7B6FDF1E76F
:10245000E1692068FFF7C3F8ECE7431C01D10125CF
:10246000EBE7E061DDF80CA0E1695046FEF79AFD6C
:102470000028E1D00199BAF80C30B6FBF3F80F1838
:10248000B8F1000F30D0019ABAF80A109AF801009A
:1024900042448A4284BF019AA1EB020843463A466D
:1024A0004946FEF7B5FC0028D9D194F91430002B29
:1024B0000BDA206AC71B474507D203998A8922B1E4
:1024C000009902FB0790FEF7CDFD039A938908FB64
:1024D00003F7A069DBF8001038443944A061B9441F
:1024E000CBF80010F61B8FE7226ABA4218D094F995
:1024F000140000280BDA012300999AF80100FEF776
:1025000095FC0028ABD1227D02F07F012175039854
:102510000099407801233A46FEF77AFC00289ED1C4
:102520002762039FA369BA89B3FBF2FC02FB1C314B
:10253000571AB74228BF3746002FCAD000983A46EC
:1025400001444846FEF78EFDC3E7072576E7F7B559
:1025500001A90446FEF76CFD054600283BD1237D0A
:102560005A0638D51B060CD50198226A40780123FB
:1025700004F13001FEF75AFC80BB217D01F07F029F
:102580002275FEF729FC616A07460198FEF7B6FD41
:10259000054600BBA66A96F80BC04CF02003F37208
:1025A000A26820683146FEF774FDE16806F11C0060
:1025B000FEF75EFC394606F11600FEF759FC01985D
:1025C000B574F5740125C570FFF753F90546207DF4
:1025D00020F040012175284603B0F0BD0125FAE73F
:1025E00013B50446FFF7B3FF48B901A92046FEF72B
:1025F0001FFD20B92069FEF7B5FC00B9206002B0CC
:1026000010BD30B591B00D460190002203A901A87C
:10261000FEF7D0FD044670B9019903A8FFF752FCFC
:10262000044640B99DF93B30002B07DB1DB129461C
:1026300003A8FFF769F9204611B030BD0624FAE778
:1026400030B5104B5D7A05F0FF04CDB993F809C0A1
:102650005D7A03F80C4003EB850CCCF80400587A43
:10266000184402725A7AD5B2681CC2B230355A7216
:102670000D703A232F254B708D70CC70204630BDE5
:102680000120FCE7A40600200022FFF7D9BF0000CC
:102690007F2810B507D939B1FF2813D8A0F18001E0
:1026A000094A32F8110010BD074A32F8114084423D
:1026B0008BB203D001318029F7D10B4603F18000A2
:1026C000C0B2F0E70020EEE7146D000870B51E49B7
:1026D0001E4AB0F5805F28BF1146043131F8043C32
:1026E0008C46ABB1984213D331F8024CE2B2D61803
:1026F000B0424FEA142521DA082D09D8DFE805F0A9
:1027000005090F11131517191B00C01A31F8100015
:1027100070BDC31A03F00104001B80B2F8E7103843
:10272000FBE72038F9E73038F7E71A38F5E70830E3
:10273000F3E75038F1E7A0F5E350EEE70431002D60
:10274000CCD10CEB4201C8E7146E000806700008FB
:1027500082B001208DF807009DF80730834203D135
:10276000024802B003F0A0B802B07047485A0020F7
:1027700007B5009313460A460146064802F022FDBB
:1027800020B10121044800F087FE012003B05DF86C
:1027900004FB00BF485A0020C270000807B5009330
:1027A00013460A460146044802F0EAFD003018BF0D
:1027B000012003B05DF804FB485A002008B5034827
:1027C00003F09EF8043818BF012008BD485A0020C5
:1027D0000146014803F082B8485A0020704708B506
:1027E000FFF7FCFF08BD704708B5FFF7FCFF08BD09
:1027F000704708B5FFF7FCFF08BD000010B5064C98
:1028000001232370FFF7DAFF18B9227802F0FE00E7
:102810002070207810BD00BF4C00002010B5074C80
:1028200001232370FFF794FF20B9FFF7E7FF207023
:10283000207810BD024800F02FFEF9E74C00002080
:10284000F8700008FFF7DABF08B5084611461A46C7
:102850004FF0FF33FFF78CFF20B9FFF7AFFF0028E1
:10286000FBD108BD0120FCE710B5124B1878C30757
:1028700088B014461BD4032903D8DFE801F0100503
:102880000B12042008B010BD6846FFF7A1FF069A9E
:10289000226004E06846FFF79BFF079B238000202F
:1028A000F0E76846FFF794FF07994A0AF0E703202C
:1028B000E8E700BF4C00002008B5084611461A465C
:1028C0004FF0FF33FFF76AFF20B9FFF777FF0028CB
:1028D000FBD108BD0120FCE7002108B50122084614
:1028E000FFF728FCB0FA80F0400908BD00F17843FA
:1028F000B3F5804F35D3A3F58042B2F5804F32D384
:10290000A3F50041B1F5804F2FD3A3F5404CBCF5A2
:10291000804F2CD300F1774000F57F03B3F5803F63
:1029200027D31B4900F57E028A4224D900F57C0397
:102930008B4222D900F57A0C8C4520D900F578021B
:102940008A421ED900F576038B421CD900F5740C1F
:102950008C451AD900F57200884294BF0B200020E4
:102960007047002070470120704702207047032005
:1029700070470420704705207047062070470720E5
:10298000704708207047092070470A20704700BF31
:10299000FFFF01002DE9F74302AF002347F8043D94
:1029A000DFF838900B6005460E46102440F2FF38E1
:1029B000294640F2FF323B464846FFF707FD0199A2
:1029C00032680A440D44326028B9414503D1013CC4
:1029D000A4B2002CECD103B0BDE8F083A05B0020D2
:1029E0002DE9F0410F46054601460D48904600F09E
:1029F00053FD3C46ED1BE31B984501D800260CE037
:102A00002919002334F8022B012001F0D5FE0646D7
:102A10000028F0D0034800F03FFD3046BDE8F081CB
:102A2000AB710008BB71000838B5124BF322DA60B5
:102A30000C46FFF75BFF05460F4805602046FFF791
:102A400055FF0E4C0130411B21600D4C002302222A
:102A5000C4E9025120460B492360226101F056FF70
:102A600008490546204601F051FF00280CBF2846C2
:102A7000632038BD003C0240C4060020C806002088
:102A8000B0060020CC060020F8B5264C21460546AD
:102A9000FFF7B7FD216806464FF47A732248B1FB71
:102AA000F3F100F0F9FC002E35D1012229461F4830
:102AB000FFF776FB002830D11D4800F0EDFC01F057
:102AC00035FE20B11B4800F0E7FC0220F8BD1A4992
:102AD0001A48FFF7A9FF08B11948F4E7174D194E36
:102AE000194F18493846FFF755FF326839462846CE
:102AF000FFF776FF0028E8D134682544002CF0D198
:102B00002946124800F0C8FC0848FFF769FD01F0AB
:102B10001FFE2046DAE70320D8E70D4800F0BCFC92
:102B20000120D3E7D406002008710008A05B002034
:102B30002E7100084C71000800000E0800C000084B
:102B400061710008D00600201C0800206F71000889
:102B5000897100080A4A0B4B116880B40B40B3F12D
:102B6000005F00AF08D172B607480168126882F3AF
:102B70000888BD4680BC0847BD4680BC704700BF82
:102B800000C000080000FE2F04C0000800B518486F
:102B90004FF0204389B003F5827100224FF4805C2E
:102BA0004FF0050E0360416010230F21CDE901E1D4
:102BB000C0E90532C0E90AC24FF0010E4FF0080C1F
:102BC000059301A91123C0E902220261C0E907228D
:102BD0004262C0E90C2282634264CDE903CECDE9B2
:102BE000063202F0C9FF00B1FEE709B05DF804FB50
:102BF0001459002030B599B02D4B002101911A6C69
:102C000042F0805018641C6C04F080550195019BC3
:102C1000029128490B6843F480420A60086800F476
:102C20008044029401254FF480310224029B1694C3
:102C3000CDE90C514FF4800C04254FF0A80E07236A
:102C40000CA8CDE9124CCDE9145E179301F096FF64
:102C500000B1FEE74FF4805109904FF4A050CDE948
:102C60000A010F22052107A8CDE9072402F036F951
:102C700000B1FEE7039403A84FF40074069402F039
:102C800009FA044600B1FEE702F0C0F94FF47A7C7D
:102C9000B0FBFCF001F0DEFB284601F0F1FB224620
:102CA00021464FF0FF3001F095FB19B030BD00BF59
:102CB0000038024000700040F0B58DB0002401F0F3
:102CC00037FBFFF797FF704B01941A6B42F004003B
:102CD0001863196B01F004050195019A02941E6BAB
:102CE00046F080071F631A6B02F080000290029A80
:102CF0000394196B41F010051D631E6B06F010075D
:102D00000397039A04941A6B42F008001863196B36
:102D100001F008050495049A05941E6B46F001071E
:102D20001F631A6B02F001000590059A0694196B57
:102D3000564841F002051D631B6B0B9403F002061D
:102D4000069602250127032607A9069BCDE907550C
:102D5000CDE9097601F028FE3A4629464B4801F0B4
:102D600007FF082507A94A48CDE90754CDE90946D8
:102D700001F01AFE4748484A04614FF4E1314FF030
:102D80000C0CC0E90021C0E90244C0E905C4C461DB
:102D900003F08CF900B1FEE729463D4801F0E2FE60
:102DA000014600285AD13D4800F076FBFFF7EEFEC1
:102DB0003B4B3C4800240327C0E90034C0E90244EF
:102DC000C0E904448761FDF7E5FFFDF7FFFD1F2023
:102DD000FDF722FE3449354800F0DAFB4FF61F00BC
:102DE000FDF714FE3B46314A4FF4EC712046FDF7E7
:102DF000F9FE2F4800F050FB2E492F4800F04CFB05
:102E00002E492F4800F048FB2E492F4800F044FB84
:102E10002E4800F041FB2E492E480122FFF78AF987
:102E2000014648BB2C4800F0ABFB2C4E2C4800253B
:102E30003570FFF729FE01F08BFC317801BB294882
:102E400000F02AFBFFF748FD2748284C00F024FB40
:102E5000FFF780FE204600F093FBFBE7244800F0DC
:102E60001BFBFFF793FEFDF7B1FD4FF47840FDF734
:102E7000D3FDFFF76FFE99E71E4800F00DFBD4E786
:102E80001D4800F009FBDDE7003802400000024069
:102E9000000C02408459002000100140DA71000843
:102EA000002C0140485A00200A7200087C4800208B
:102EB0001B7200082B7200082F720008467200086F
:102EC0005372000867720008757200088A72000861
:102ED000C4590020D46B0020A3720008D06B0020DE
:102EE0004D000020DC7200080873000823730008FE
:102EF000F0710008B9720008EC7200080268034B18
:102F00009A4201D101F02EBA704700BF0010004074
:102F100082B00C4B002100915A6C42F480405864FE
:102F20005A6C02F480400090009A0191196C41F0B3
:102F300080521A641B6C03F080500190019B02B018
:102F4000704700BF003802402DE9F041044688B0C8
:102F50001422002103A800F097FA2268274B9A4216
:102F600048D103F5863000240094416C41F400659B
:102F70004564466C06F400670097009A0194026B62
:102F800042F004030363016B01F004050195019A0B
:102F90000294066B46F008070763006B0C2500F0EF
:102FA000080202274FF4706802920326CDE90387D6
:102FB0000DEB05014FF001081148029B0795CDE983
:102FC000058601F0F1FC4FF4805C0DEB05010C4827
:102FD0000795CDE903C7CDE9058601F0E5FC04239B
:102FE0000DEB050107480795CDE90337CDE9054607
:102FF00001F0DAFC08B0BDE8F08100BF002C014010
:1030000000080240000C024030B504468DB0142286
:10301000002107A800F038FA2368404A93422DD1D6
:103020003F4800240194426C42F010014164456C19
:1030300005F010030193019A0294026B42F0010122
:103040000163006B00F001050295029B35480223E5
:103050004FF40072072507A9CDE907230A930B95C2
:1030600001F0A2FC4FF480612E480994CDE90714C9
:103070000B9507A901F098FC0DB030BD2A4883429A
:1030800025D1274800240394026C42F48021016476
:10309000056C05F480230393039A0494046B44F0B5
:1030A00002020263006B00F002010491049B1F48BE
:1030B0004FF440654FF0020E4FF0010C032307243C
:1030C000CDE9075ECDE909C30B9407A9D2E71849FA
:1030D0008B42D1D1124C00250595636C43F0200240
:1030E0006264606C00F020010591059A0695256BDD
:1030F00045F004032363246B04F004020692C0200D
:103100000221069B01254FF0030C0823CDE907019E
:10311000CDE9095C0B9307A90648ABE70010014015
:103120000038024000000240004800400004024015
:103130000014014000080240F0B5164B1C6887B02F
:103140002CBB1548009401221A60816B41F00105E7
:103150008563866B1148039406F0010700974FF6CC
:10316000807C022703260C2501A9009BCDE901C71D
:10317000CDE9046501F018FC4DF2B37301A90848CC
:103180000595CDE90137CDE9034601F00DFC07B007
:10319000F0BD00BFEC0700200038024000100240E4
:1031A000000C024030B5014689B00022362001F003
:1031B00011F9362001F042F90025154B02951A6CE1
:1031C00042F010001864196C01F01004029401A977
:1031D00003A8029B0F4C01F03FFF01F01DFF0E4BB7
:1031E0002360400040F2E7320C49B0FBF1FC20467E
:1031F0000CF1FF33E26063602561A56002F0FAFD27
:1032000020B9204602F0E3FC09B030BD0120FBE705
:10321000003802400C7C00200010004040420F00AB
:10322000704700002DE9F84FD0E900BAD0E90476E4
:10323000D0E90298D0E90654204800F0A1F9594697
:103240001F4800F029F951461E4800F025F949466B
:103250001D4800F021F941461C4800F01DF939468F
:103260001B481C4F00F018F931461B481B4E00F05C
:1032700013F929461A4800F00FF92146194800F0C1
:103280000BF9194B1948196800F006F9184801683C
:10329000184800F001F918491848096800F0FCF8CE
:1032A000174A1848116800F0F7F83968164800F016
:1032B000F3F8716A154800F0EFF8FEE7357300087F
:1032C000627300086C73000876730008807300084E
:1032D0008A7300083CED00E09573000800ED00E003
:1032E000C5730008E673000838ED00E0F1730008CC
:1032F00028ED00E0FD7300082CED00E009740008E3
:1033000030ED00E015740008217400082D740008E9
:103310001EF0040F0CBFEFF30880EFF30980FFF7F6
:1033200081BF04205FEA0E01084202D0EFF309805A
:1033300001E0EFF30880416900BE7047FEE7FEE759
:10334000FEE770477047704701F0A7B8014802F0E8
:103350004DBC00BF0C7C0020014802F029BB00BF1F
:10336000485A0020014801F0AFB800BFE8590020DA
:10337000014801F0A9B800BF1C480020044B19689F
:10338000024609B903481860186802441A60704779
:10339000F0070020707C0020024B58221A604FF08A
:1033A000FF307047487C0020024B58221A604FF0D3
:1033B000FF307047487C0020024B58221A600020E2
:1033C000704700BF487C0020024B58221A604FF023
:1033D000FF307047487C0020024B58221A604FF0A3
:1033E000FF307047487C00200C4B1A68002142F0E7
:1033F0000100186099601A6822F0847020F480320D
:1034000007481A6058601A6822F480201860D96052
:10341000044B4FF000619960704700BF00380240D4
:103420001030002400ED00E010B54FF0FF331446DB
:10343000024892B202F068FE204610BD8459002076
:1034400070B50D4E0D4CA41BA4100025A54209D14A
:103450000B4E0C4C03F04EFAA41BA4100025A54201
:1034600005D170BD56F8253098470135EEE756F87E
:10347000253098470135F2E7F8740008F874000821
:10348000F8740008FC74000802440346934200D11B
:10349000704703F8011BF9E70FB40A4B13B51C681A
:1034A00024B1A36913B9204600F02AFA05AB049AA7
:1034B000A1680193204600F0E1FB02B0BDE8104096
:1034C00004B070476000002070B50E46054618B184
:1034D00083690BB900F014FAAB69AC6813B92846DC
:1034E00000F00EFA234B9C4217D16C68A3891B078E
:1034F0001DD52369DBB1013EA36816F8011F013B0E
:10350000A360E9B9002B2EDA22460A21284600F0F2
:1035100047F8013011D00A2011E0174B9C4201D12D
:10352000AC68E3E7154B9C4208BFEC68DEE7214638
:10353000284600F087F80028DDD04FF0FF3070BD3E
:10354000002B04DAA2699A4206DC0A2904D0236817
:103550005A1C22601970CFE72246284600F020F856
:103560000130C9D1E9E723680A205A1C226018708B
:10357000E5E700BF7C7400089C7400085C740008D8
:10358000024B01461868FFF79FBF00BF6000002094
:10359000034611F8012B03F8012B002AF9D17047DB
:1035A000F8B50E461446054618B183690BB900F00C
:1035B000A7F9214B9C422AD16C68A369A360A38917
:1035C0001A072ED5236963B323692068C01A63697B
:1035D000F6B28342374604DC2146284600F026F93D
:1035E00028BBA368013BA36023685A1C22601E709D
:1035F00063690130834204D0A389DB0719D50A2E01
:1036000017D12146284600F011F990B10FE00B4B7D
:103610009C4201D1AC68D0E7094B9C4208BFEC68E2
:10362000CBE72146284600F00DF80028CCD04FF01B
:10363000FF373846F8BD00BF7C7400089C74000852
:103640005C740008324B70B51D6806460C4625B107
:10365000AB6913B9284600F053F92E4B9C420FD1A9
:103660006C68B4F90C309AB215072CD4D00611D47A
:103670000922326043F04003A3814FF0FF303EE067
:10368000254B9C4201D1AC68EBE7244B9C4208BF20
:10369000EC68E6E7510712D5616B41B104F14403D0
:1036A000994202D0304600F019FA00236363A389DF
:1036B00023F02403A3810023636023692360A3898B
:1036C00043F00803A38123694BB9A38903F4207352
:1036D000B3F5007F03D02146304600F0BFF9A28940
:1036E00012F001030CD00023A36063695B42A36165
:1036F000236953B9B4F90C3013F08000BAD170BD0E
:10370000920758BF6369A360F2E70020F7E700BFA4
:10371000600000207C7400089C7400085C74000841
:103720008A892DE9F041054610070C4658D44B68AC
:10373000002B05DC0B6C002B02DC0020BDE8F081C7
:10374000E66A002EF9D0002312F480522F68216A15
:103750002B6032D0606DA3895A0705D56368C01A03
:10376000636B0BB1236CC01A00230246E66A216A20
:103770002846B047431CA38906D129681D2948D88B
:10378000294ACA40D60744D500226260D90422697A
:10379000226004D5421C01D12B6803B96065616BBE
:1037A0002F600029C9D004F14403994202D0284671
:1037B00000F094F900206063C0E701232846B04779
:1037C000411CC8D12B68002BC5D01D2B01D0162B56
:1037D00001D12F60B1E7A38943F04003A381ADE796
:1037E0000F69002FA9D093070E6808BF4B690F60BF
:1037F00018BF0023A6EB07088B60B8F1000F9CDD13
:1038000043463A46216AA66A2846B047002806DCA5
:10381000A38943F04003A3814FF0FF308EE70744B4
:10382000A8EB0008E9E700BF0100402038B50B69AC
:1038300005460C46DBB118B183690BB900F060F89E
:103840000C4B9C4209D16C68B4F90C307BB1214619
:103850002846BDE83840FFF763BF074B9C4201D1C3
:10386000AC68F1E7054B9C4208BFEC68ECE7002030
:1038700038BD00BF7C7400089C7400085C740008AC
:10388000002310B50446C0E900338360818143669C
:10389000C281C0E904338361194608225C30FFF716
:1038A000F3FD054B6362054BA362054BE362054BD9
:1038B0002462236310BD00BFD5410008F741000812
:1038C0002F42000853420008014900F085B800BFAC
:1038D0002D38000870B54A1E682555430E4605F17F
:1038E000740100F049F9044640B10021C0E9001616
:1038F0000C30A06005F16802FFF7C6FD204670BDE0
:10390000836910B5044633BBC0E912330365124B1B
:10391000124A1B688262984204BF0123836100F04F
:103920001FF86060204600F01BF8A060204600F001
:1039300017F80022E06004216068FFF7A1FF012270
:103940000921A068FFF79CFF02221221E068FFF71F
:1039500097FF0123A36110BD58740008C9380008FF
:10396000F8B51B4B1E68B369074613B93046FFF71D
:10397000C7FF4836D6E90134013B03D5336833B17C
:103980003668F7E7B4F90C506DB16834F4E70421F8
:103990003846FFF79FFF30600028F1D10C233B60D1
:1039A00004462046F8BD0B4B6566C4E90055A5608A
:1039B000C4E90335C4E905550822294604F15C0031
:1039C000FFF762FDC4E90D55C4E91255E9E700BFF0
:1039D000587400080100FFFF2DE9F843804689462E
:1039E00000F14804002614B93046BDE8F883D4E954
:1039F0000175013F01D52468F5E7AB89012B07D993
:103A0000B5F90E30013303D029464046C847064376
:103A10006835EEE770B50E46B1F90E10002996B084
:103A200014461D4607DA00232B60B3891A0610D40A
:103A30004FF480630EE06A4600F032FC0028F2DBAF
:103A4000019A02F47042A2F500535A425A412A6088
:103A5000EEE740230020236016B070BD8B8973B55C
:103A60009D0706460C4607D504F1470323602361F2
:103A70000123636102B070BD01AB6A46FFF7CAFF64
:103A800000990546304600F077F848B9B4F90C3093
:103A90009A05EFD423F0030343F00203A381E3E785
:103AA0000D4BB362A389206043F08003A381009B88
:103AB0006361019B20615BB1B4F90E10304600F0E8
:103AC00001FC28B1A38923F0030343F00103A38180
:103AD000A3891D43A581CDE7C938000838B505463F
:103AE000002945D051F8043C0C1F002BB8BFE41846
:103AF00000F00AFC1F4A1368104633B96360146073
:103B00002846BDE8384000F000BCA3420CD921682B
:103B10006218934204BF1A685B68636004BF52185E
:103B200022600460ECE713465A680AB1A242FAD94F
:103B300019685818A0420BD12068014458188242D5
:103B40001960DDD1106852685A6001441960D7E7E6
:103B500002D90C232B60D3E7206821188A4204BFC6
:103B600011685268626004BF091821605C60C7E791
:103B700038BD00BFF407002070B5CD1C25F003054B
:103B800008350C2D38BF0C25002D064601DBA94257
:103B900003D90C233360002070BD00F0B5FB214A2F
:103BA0001468214691B9204C23681BB9304600F0B7
:103BB00001FB20602946304600F0FCFA431C24D16A
:103BC0000C233360304600F0A0FBE4E70B685B1B7E
:103BD00018D40B2B0FD90B60CD50CC18304600F009
:103BE00094FB04F10B00231D20F00700C31AD3D06F
:103BF0005A42E250D0E78C424B6816BF63601360B4
:103C00000C46EBE70C464968CCE7C41C24F00304DF
:103C1000A04205D0211A304600F0CCFA0130CFD0B6
:103C20002560DBE7F4070020F80700209368013BDC
:103C3000002B10B4936007DA9469A34201DB0A29D0
:103C400002D110BCFFF7ACBC1368581C106019708F
:103C5000084610BC7047F8B506460F461446D518FE
:103C6000AC4201D1002007E03A4614F8011B30466F
:103C7000FFF7DCFF431CF3D1F8BD00002DE9F04F46
:103C80009DB00C4617460393064618B183690BB9DD
:103C9000FFF736FE7B4B9C4257D17468A389180707
:103CA0005DD52369002B5AD00023099320238DF87A
:103CB000293030238DF82A304FF0010BB8464546A5
:103CC00015F8013B0BB1252B54D1B8EB070A0BD0EB
:103CD00053463A4621463046FFF7BDFF013000F01B
:103CE000C280099B5344099398F80030002B00F0E0
:103CF000BA8000234FF0FF32CDE9052304930793E8
:103D00008DF853301A93A846052218F8011B5E4817
:103D1000FCF75EFA049B78BBD90644BF20228DF8DD
:103D200053201A0744BF2B228DF853202A782A2AC1
:103D30002AD0079AA84600200A25414611F8013BDF
:103D4000303B092B69D960B324E0504B9C4201D130
:103D5000B468A3E74E4B9C4208BFF4689EE7214637
:103D60003046FFF76FFC00289ED04FF0FF301DB0AB
:103D7000BDE8F08FA846A2E7434A801A0BFA00F08C
:103D8000184304904546BEE7039A111D126803913B
:103D9000002A01DB079204E0524243F0020307923B
:103DA000049398F800302E2B0ED198F801302A2B6E
:103DB00038D1039B1A1D1B680392002BB8BF4FF02C
:103DC000FF3308F102080593324D98F800100322E2
:103DD0002846FCF7FDF940B14023401B03FA00F0F0
:103DE000049B034308F10108049398F800102A4843
:103DF0008DF82810062208F10107FCF7E9F90028E0
:103E000037D0264B1BBB039B073323F00703083334
:103E10000393099B4B44099350E705FB02320120B1
:103E200088468AE7002308F10108059319460A2508
:103E3000404610F8012B303A092A03D9002BC3D091
:103E40000591C1E705FB012101238046F0E703ABA3
:103E500000932246124B04A93046AFF30080B0F124
:103E6000FF3F8146D5D1A3895B063FF57EAF099818
:103E70007DE703AB00932246094B04A9304600F0CE
:103E800087F8ECE77C740008BC7400089C74000898
:103E90005C740008C2740008C674000800000000CA
:103EA000573C00082DE9F04791461F468A680B6988
:103EB000DDF820809342B8BF1346C9F8003091F86E
:103EC000432006460C4612B10133C9F8003023687E
:103ED000990642BFD9F800300233C9F8003025688E
:103EE00015F0060507D104F1190AE368D9F8002096
:103EF0009B1AAB4228DC94F843302268003318BF89
:103F0000012392062DD404F1430239463046C047BE
:103F1000013020D02368E568D9F8002003F00603BB
:103F2000042B08BFAD1AA36822690CBF25EAE5750A
:103F300000259342C4BF9B1AED184FF000091A34B4
:103F40004D451AD1002008E001235246394630463B
:103F5000C047013003D14FF0FF30BDE8F087013595
:103F6000C3E7E1185A1C302081F84300224494F83A
:103F7000451082F843100233C5E701232246394633
:103F80003046C0470130E6D009F10109D8E700000A
:103F90002DE9F04301F1430C0C46097E85B06E29F2
:103FA0001746064698460C9A00F0B38022D863293B
:103FB00036D00AD8002900F0B980582900F0838053
:103FC00004F1420584F8421032E0642901D06929E5
:103FD000F6D120681368050603F104012AD51B6891
:103FE0001160002B03DA2D225B4284F843206F48D6
:103FF0000A2239E0732900F09D8008D86F2920D06B
:104000007029DDD1236843F02003236003E0752984
:1040100017D07829D4D1782384F84530644855E006
:104020001368191D1B68116004F1420584F84230C1
:1040300001238CE01B68116010F0400F18BF1BB209
:10404000CFE713682568181D1060280601D51B6886
:1040500002E06806FBD51B8854486F2914BF0A226A
:104060000822002184F843106568A560002DC0F285
:104070009580216821F004012160002B3DD1002DA5
:1040800040F08E806546082A0BD12368DB0708D5EF
:10409000236962689A42DEBF302305F8013C05F1CE
:1040A000FF35ACEB05032361CDF800803B4603AA46
:1040B00021463046FFF7F6FE01304DD14FF0FF307C
:1040C00005B0BDE8F083394884F8451013682168CD
:1040D0001D1D1B6815600A060BD5CA0744BF41F0B9
:1040E000200121601BB9226822F0200222601022E8
:1040F000B7E74D0648BF9BB2EFE76546B3FBF2F169
:1041000002FB1133C35C05F8013D0B460029F5D1D4
:10411000B9E7136825686169181D106028061B68D7
:1041200001D5196002E06A06FBD5198000232361DE
:104130006546B9E71368191D11601D6862680021A2
:104140002846FCF745F808B1401B606063682361AE
:10415000002384F84330A7E723692A4639463046CE
:10416000C0470130AAD023689B0713D4E068039BA3
:104170009842B8BF1846A3E701234A46394630465D
:10418000C04701309AD00135E368039A9B1AAB42CD
:10419000F2DCEBE7002504F11909F5E7002BACD1BF
:1041A000037884F8423004F142056CE7CD740008CE
:1041B000DE74000838B5064C002305460846236027
:1041C000FFF7DCF8431C02D1236803B12B6038BD34
:1041D000487C002010B50C46B1F90E1000F096F89E
:1041E0000028ABBF636DA3891B1823F48053ACBFB9
:1041F0006365A38110BD2DE9F0411F468B89DB0566
:1042000005460C46164605D502230022B1F90E10CC
:1042100000F068F8A389B4F90E1023F48053A38149
:1042200032463B462846BDE8F04100F017B810B5CD
:104230000C46B1F90E1000F055F8431CA38915BFC8
:10424000606523F4805343F48053A38118BFA38196
:1042500010BDB1F90E1000F013B8000038B5074CCE
:10426000054608461146002222601A46FFF7DCF890
:10427000431C02D1236803B12B6038BD487C002069
:1042800038B5064C0023054608462360FFF784F83E
:10429000431C02D1236803B12B6038BD487C002049
:1042A00038B5074C00230546084611462360FFF742
:1042B0007BF8431C02D1236803B12B6038BD00BFDB
:1042C000487C002038B5064C00230546084623608C
:1042D000FFF772F8431C02D1236803B12B6038BD8D
:1042E000487C002038B5074C054608461146002298
:1042F00022601A46FFF768F8431C02D1236803B115
:104300002B6038BD487C00207047704738B5074C9B
:10431000054608461146002222601A46FFF75CF85F
:10432000431C02D1236803B12B6038BD487C0020B8
:1043300008B50B4B1A6842F400701860196841F414
:1043400080621A60186840F480711960032000F0E0
:104350002FF80F20FEF726FFFEF7DAFD002008BD3C
:10436000003C0240034A044B11681878084410606E
:10437000704700BF4C7C0020C4000020014B18682F
:10438000704700BF4C7C002038B50446FFF7F6FFAD
:10439000631C1CBF054B1B78054618BFE418FFF7CC
:1043A000EDFF401BA042FAD338BD00BFC40000207F
:1043B000074AD36823F4E0610B04190C41F0BF6C89
:1043C00000024CF4003300F4E0610B43D36070470B
:1043D00000ED00E0174B30B5DC68C4F30224C4F1F3
:1043E0000703042B04F1040528BF04234FF0FF3C0E
:1043F000062D0CFA03F38CBF033C002421EA0301D1
:10440000A1400CFA04F422EA0405002841EA05015F
:10441000A8BF00F160404FEA0113BCBF00F00F00DD
:10442000054AD9B2AABF00F56140115480F80013C3
:1044300030BD00BF00ED00E014ED00E042090123B3
:1044400000F01F0003FA00F1014840F82210704705
:1044500000E100E00138B0F1807F0AD2064B074A44
:104460005860F02182F823100020072298601A601B
:1044700070470120704700BF10E000E000ED00E051
:10448000044B1A6804280CBF42F0040222F0040214
:104490001A60704710E000E0704708B5FFF7FCFFB6
:1044A00008BD90F83530022B03D0802141650120F2
:1044B00070470268052180F83510106820F001036C
:1044C0001360002070470000F7B504460023A56D77
:1044D0000193E36D2E685B4808229A4032420768D8
:1044E0000CD021680868400708D5086820F004004F
:1044F0000860AA60626D42F0010161650120984088
:10450000304208D022685169090641BFA860606D39
:1045100040F00200606504229A40324208D02068D0
:104520000168880741BFAA60626D42F004026265BB
:1045300010229A40324210D02368186801070CD527
:10454000AA601968480337D51B68190301D4216C88
:1045500000E0A16C09B120468847E16D20228A4025
:1045600032423AD023681E68F60636D5AA6094F81F
:1045700035001A68052827D122F016021A605F69F3
:10458000206C27F080065E6108B9A26C1AB11F6822
:1045900027F008061E603F238B40AB6001210025F9
:1045A000236D84F8345084F83510002B47D0204612
:1045B00003B0BDE8F04018471A68D0055EBF186820
:1045C00020F008001860C2E7500328D51B681903C3
:1045D00033D4626C0AB120469047656D7DB3666D39
:1045E000F2071AD52068052184F83510036823F0F6
:1045F000010202604FF41655B7FBF5F7019E013634
:10460000BE42019602D80168CB07F7D400204FF0D4
:10461000010C84F8340084F835C0E36CC5E71D68EC
:1046200015F4807609D119684FF0010C21F01000C3
:10463000186084F8346084F835C0E26BCAE703B0D0
:10464000F0BD00BF5C000020084910B50C6924F4DF
:1046500040740C610C6944F440740C610C6944F0C2
:1046600001040C610260436010BD00BF003C0240C9
:10467000074B1A6922F440721A611A6942F40072F7
:104680001A611A6942F001021A610160704700BFA5
:10469000003C0240074B1A6922F440721A611A6901
:1046A00042F480721A611A6942F001021A610180B3
:1046B000704700BF003C02401A4BDA68D20606D5AC
:1046C0001949C86940F01002CA611021D960D86840
:1046D000800606D51449CA6942F00800C861202145
:1046E000D960104BDA68510606D50F48C16941F010
:1046F0000402C2614020D860D9680A0606D50A487B
:10470000C26942F00201C1618020D860054AD368C5
:104710009B0706D50449C86940F02003CB610221FC
:10472000D1607047003C0240507C0020064B1A6963
:10473000002ABFBF054A5A6002F188325A60BABFE8
:104740001869C00F00207047003C024023016745F4
:10475000034A136943F0004010610020704700BF16
:10476000003C0240F8B5124B124C00220546DA61BB
:10477000FFF704FE26460746E068C2030CD4E16852
:10478000CD0744BF0125E560F46814F0F20007D0BE
:10479000FFF792FF012003E0691CEDD00DB9032063
:1047A000F8BDFFF7EBFDC31BAB42E5D9F7E700BF50
:1047B000507C0020003C02402DE9F0411F4D9846FE
:1047C0002B7E012B07460E46144635D00120287655
:1047D0004CF25030FFF7C6FFB0B9CFB9184F3A6965
:1047E000E1B222F440743C613B693B61386940F0BE
:1047F00001023A613170124E4CF25030FFF7B2FFB5
:10480000316921F00107376100242C76BDE8F08181
:10481000012F04D1A1B23046FFF73CFFEBE7022F96
:1048200004D121463046FFF723FFE4E72246434602
:104830003046FFF709FFDEE70220E7E7507C002063
:10484000003C0240074B1A6922F4407119611A6951
:1048500042F0040119611A6942F4803141EA0020F2
:1048600018617047003C024039B101291CD002296F
:104870000CBF4FF400714FF440710D4B1A6922F4D4
:1048800040721A611A6911431961196921F0F8021D
:104890001A61196941F0020C4CEAC00018611A69EA
:1048A00042F48031196170474FF48071E5E700BF31
:1048B000003C0240144B1A6891050FD5186820F48B
:1048C000007119601A6842F400601860196821F4D8
:1048D00000621A60186840F4007119600A4B1A6887
:1048E00052050FD5186820F4806119601A6842F4E7
:1048F00080501860196821F480521A60186840F4DA
:1049000080611960704700BF003C02402DE9F84308
:10491000234E337E012B044688463FD0012030765B
:104920004CF25030FFF71EFF0546A8B94FF0FF319B
:10493000C8F800102268012A13D1207CFFF782FFFB
:104940004CF25030FFF70EFF05461648026922F080
:1049500004040461FFF7AEFF002737762846BDE860
:10496000F883A768DFF83C90D4E902CEE644BE4560
:10497000F0D9217C3846FFF777FF4CF25030FFF733
:10498000F1FED9F8103023F0FA01C9F8101018B16F
:10499000C8F800700546DDE70137E5E70225DDE7E9
:1049A000507C0020003C02402DE9F04F85B00B68A0
:1049B000DFF8A881674ADFF8A8910193002301245A
:1049C000019D04FA03FC05EA0C06B44540F0AD80F5
:1049D0004C6824F01007022F15D1DD0800EB850A82
:1049E00003F0070BDAF820504FEA8B0B4FF00F0E55
:1049F0000EFA0BFE25EA0E0E0D6905FA0BFB4BEACB
:104A00000E05CAF820504FEA430A4FF0030BD0F8C6
:104A100000E00BFA0AF5ED4305EA0E0B04F0030E75
:104A20000EFA0AFE013F4EEA0B0E012FC0F800E01D
:104A300011D8876807EA050BCF6807FA0AFE4EEA25
:104A40000B078760476827EA0C0CC4F300179F40E8
:104A500047EA0C074760C7683D408F6807FA0AF7C6
:104A60003D43C560E50060D54FF0000BCDF80CB0BC
:104A7000D8F8445045F48047C8F84470D8F84450FA
:104A800023F0030A05F480470AF1804E0397039F41
:104A90000EF59C3703F003054FEA850ED7F808A002
:104AA0000F2505FA0EF52AEA050C2B4DA84243D036
:104AB00005F5806B584541D00BF5806A50453FD0D5
:104AC0000AF58065A8423DD005F5806B58453BD07E
:104AD00048453BD00BF5006A504539D00AF5806B4C
:104AE000584514BF0825072505FA0EFA4AEA0C05B1
:104AF000BD601568F74314F4803F0CBF3D4035435B
:104B00001560556814F4003F0CBF3D4035435560B7
:104B1000956814F4801F0CBF3D4035439560D568FF
:104B2000A40254BF3D403543D5600133102B7FF4C0
:104B300046AF05B0BDE8F08F5D46D5E70125D3E768
:104B40000225D1E70325CFE70425CDE70525CBE7EF
:104B50000625C9E7003C0140000002400038024041
:104B6000001402400369194214BF0120002070475D
:104B70000AB1816170470904FBE700002DE9F341A8
:104B8000044618B9012002B0BDE8F0810368DD07D2
:104B900010D42368980758D427683A0700F19A8000
:104BA00023685B0700F1B880A069002840F01981F4
:104BB0000020E8E7A648826802F00C01042907D02B
:104BC000856805F00C06082E0AD14768790207D5DA
:104BD0009F4A11688A03DCD56768002FD9D1D1E7D5
:104BE00063689B4DB3F5803F11D1296841F480374C
:104BF0002F60FFF7C3FB964D06462B689B03C8D476
:104C0000FFF7BCFB801B6428F7D90320BBE7B3F593
:104C1000A02F04D1286840F480222A60E5E72868A4
:104C200020F480322A60296821F480262E60002B2F
:104C3000DFD1FFF7A3FB06462F68BF03A9D5FFF717
:104C40009DFB831B642BF7D9DFE7814DAE6816F01F
:104C50000C0F07D0A86800F00C02082A11D169686F
:104C60004E020ED47A4F3B689D0702D5E0680128BA
:104C700088D13A68256922F0F80646EAC50139600C
:104C80008AE7E768734BB7B101211960FFF776FB3C
:104C90006F4D06462F68B80707D52B68206923F0AB
:104CA000F80646EAC0022A6076E7FFF767FB811B39
:104CB0000229EFD9A9E71F60FFF760FB644D0646A4
:104CC000286881077FF568AFFFF758FB821B022A2F
:104CD000F6D99AE76069604B78B101271F60FFF74A
:104CE0004DFB5B4D0646686F87073FF559AFFFF7F1
:104CF00045FB811B0229F6D987E71860FFF73EFBC9
:104D0000534D06466A6F90077FF54AAFFFF736FBB3
:104D1000811B0229F6D978E74D4D2A6C12F0805696
:104D200028D10196296C41F080572F64286C00F03F
:104D300080530193019B0126484D2A68D1051BD55C
:104D4000A368434D012B27D12B6F43F001072F6739
:104D5000FFF714FB3E4D074641F288382A6F930750
:104D600039D5002E3FF420AF394D2E6C26F08051FE
:104D7000296419E70026DFE7296841F480772F606E
:104D8000FFF7FCFA07462868C205D9D4FFF7F6FA00
:104D9000C21B022AF7D938E7052B04D1296F41F04D
:104DA00004002867D0E72A6F22F0010129672F6FDE
:104DB00027F004002867002BCAD1FFF7DFFA41F281
:104DC000883807462B6F9807CBD5FFF7D7FAC21B59
:104DD0004245F7D919E7FFF7D1FAC31B4345BDD9BF
:104DE00013E71B4DAB6803F00C07082F3FF4CAAE66
:104DF0001B4E00220228326034D1FFF7BFFA07466B
:104E0000286881011ED4D4E90737626AE06AA46A7F
:104E10003B4343EA821163085F1E41EA006C4CEA9F
:104E200007426A6001253560FFF7A8FA084C07467B
:104E30002668B2013FF5BCAEFFF7A0FAC11B0229FC
:104E4000F6D9E2E6FFF79AFAC01B0228D8D9DCE6C9
:104E50000038024000004742800E47420070004088
:104E600060004742FFF78AFA04462E68B3017FF5D7
:104E70009FAEFFF783FA011B0229F6D9C5E600BFF2
:104E8000134908B58B6803F00C02042A03D0082AE2
:104E900003D0104800E0104808BD4B6803F03F0203
:104EA0004B68496813F4800314BF0B480948C1F3E9
:104EB000881C18BF0023ACFB0001FBF7D9F9044A9A
:104EC0005368C3F3014101314A00B0FBF2F0E3E75C
:104ED000003802400024F40000127A002DE9F0416D
:104EE0000D46044610B90120BDE8F081434B1A6815
:104EF00002F00F00884228D321688F072DD4C807FD
:104F000040D43E4F3E6806F00F01A94265D825689F
:104F100069076BD42B0707D539482469826822F4C6
:104F2000604545EAC4078760354E364CFFF7A8FF59
:104F3000B168354BC1F3031813F80820D040206046
:104F40000F20FEF72FF90020CEE7C8B218701968BD
:104F500001F00F06AE42C6D1CEE7294F11F0040F83
:104F60001EBFB86840F4E050B8600E0742BFB86892
:104F700040F46040B860BB68A06823F0F0020243D0
:104F8000BA60BCE767681E4E012F1CD1326812F46C
:104F9000003FA8D01A4EB06820F003013943B16039
:104FA000FFF7ECF941F288380746B368626803F00E
:104FB0000C00B0EB820FA4D0FFF7E0F9C01B404516
:104FC000F3D9032090E7B91E0129336802D813F002
:104FD000007FDEE713F0020FDBE7EBB23B703868CF
:104FE00000F00F02AA427FF47EAF90E7044FE3681F
:104FF000BE6826F4E0511943B9608BE7003C0240DB
:10500000003802405C0000203E740008014B186824
:10501000704700BF5C000020044B054A9868C0F34D
:1050200082210448535C0068D84070470038024031
:105030004E7400085C000020044B054A9868C0F3D9
:1050400042310448535C0068D84070470038024041
:105050004E7400085C0000200F2303600B4B9A681D
:1050600002F0030242609A6802F0F00282609A68DD
:1050700002F4E052C2609B68DA0802F4E053036174
:105080000348026802F00F030B60704700380240CB
:10509000003C0240036813F0050FF7B5054605D143
:1050A0002C6814F0020028D103B0F0BD414C424EF0
:1050B00000202060FFF762F9074631680B0115D424
:1050C000D5E901273B0743EA8210C6F88400012690
:1050D0002660FFF753F9384F044639680801DFD4DA
:1050E000FFF74CF9011B0229F7D904E0FFF746F955
:1050F000C21B022AE1D90320D6E72F4F2F4C0022F2
:1051000001923B6C43F0805038643E6C06F0805155
:105110000191019B226842F480772760FFF72EF906
:1051200006462368D9051BD5234C206F10F4407622
:105130001CD1ED68204F05F44074B4F5407F34D1A4
:10514000B86825F0704120F4F81621F44072164337
:10515000BE603C6FC5F30B0525433D670020A3E708
:10516000FFF70CF9801B0228DBD9C4E7E96801F4DA
:10517000407C6645DDD0226F114B22F44077012040
:10518000002618601E602767216FCA07D1D5FFF778
:10519000F5F841F288370646226F9307C9D4FFF726
:1051A000EDF8831BBB42F7D9A5E7BB6823F4F816DB
:1051B000CEE700BF68004742003802400070004060
:1051C000400E47422DE9F04F87B004460D46904609
:1051D0009946109EFFF7D2F807462DB9A06B40F014
:1051E0000061A163012010E094F83400C0B20128EE
:1051F00040F0C280E26D08EB090A00219245A163EC
:1052000006D9A76B47F00071A16307B0BDE8F08F26
:10521000032084F83400636C2068012BC1624FF4D2
:10522000007118BF4FEA482801F067F950B12368B0
:1052300040F2FF559D63A66B3043A063012084F8C4
:105240003400E2E74FF0FF3100914FEA49224FF07E
:10525000900C04904FF0010A4FF0020B6946206851
:105260000192CDE902CBCDF814A001F033F9D1457C
:1052700027D9C4F830B04146206801F06EF9002803
:10528000D5D140F22A3A2068436B416B13EA0A0FEA
:105290001ED0CB0509D5B9F1010F06D9626C032ADE
:1052A00003D001F0A3F90028C1D12368586B00078F
:1052B0002FD540F2FF529A63A36B43F00805A56314
:1052C000BCE7C4F830A04146206801F02EF9D6E7CB
:1052D0000A040BD5A5F1040805F11C0B206801F0A8
:1052E0003BF848F8040FD845F8D1203526B1FFF730
:1052F00045F8C01BB042C6D3256840F2FF56AE63E6
:10530000A76B012247F00041A163032084F83420F9
:105310007BE7596B890706D540F2FF509863A16B74
:1053200041F00205CBE75A6B920618D540F2FF56C2
:105330009E63A76B47F02005C1E701F00DF845F823
:10534000040B26B1FFF71AF8C01BB04207D321683F
:1053500040F2FF528A63A36B43F00045AFE7206839
:10536000436B13F40019E8D140F2FF550126856321
:1053700084F83460484648E7A36B43F0005130E7B7
:105380002DE9F04786B004460D4691461E460E9F15
:10539000FEF7F4FF80462DB9A06B40F00061A163D9
:1053A000012010E094F83400C0B2012840F0A4803D
:1053B000E26D09EB060A00219245A16306D9A16BB3
:1053C00041F00073A36306B0BDE8F087032084F8C2
:1053D0003400636C2068012BC1624FF4007118BF68
:1053E0004FEA492901F089F80146206831B140F2BD
:1053F000FF528263A66B0E43A6630EE0012E10D906
:1054000020232363494601F0D8F8236878B140F29D
:10541000FF569E63A76B3843A063012084F83400D5
:10542000D1E710222263494601F0AFF8EDE74FF0D3
:10543000FF3100919021CDE9021004900120720209
:10544000059069461846019201F044F840F21A3975
:105450002068436B426B13EA090F0BD0D50527D5A3
:10546000012E25D9656C032D22D001F0BFF8F8B1CB
:105470002368CCE7530408D505F1200A29462068A3
:10548000043500F06CFF5545F8D157B9216840F25A
:10549000FF508863A36BA363012584F83450032075
:1054A00091E7FEF76BFFA0EB0802BA42D0D3EDE71D
:1054B0002668776B390706D540F2FF50B063A36BBF
:1054C00043F0080698E7716B8A0706D540F2FF574C
:1054D000B763A16B41F002068EE7706B40F2FF5399
:1054E00010F01000B36303D0A56B45F0100683E7FE
:1054F000012284F8342066E7A36B43F000514EE7A5
:105500007047436E30B59A0FC3F383640A70C3F3D8
:1055100001654C70C3F30742C3F30724DBB28D70FF
:10552000CA700C714B71856E2A0E1401CC80CB8829
:10553000C5F303521A43C5F30723CA80C5F30344D6
:10554000DA090C724A72C3F38014C3F340128C72EE
:10555000CA72C3F3001400220C734A73446C002C0B
:1055600040F083809B0203F440640C610A69AD0043
:1055700005F47F7313430B610C69C26E44EA9275A4
:10558000C2F3C263C2F302640D610B75C2F34255EC
:105590004C75D40B8D75C2F3824304F00605CB75B0
:1055A0000D760C7EC2F30723C2F3C03222430A7683
:1055B0000A690D7E01320235AA4042650D7A012446
:1055C000AC40650A6A43C26584654FF400720266A6
:1055D000C3F380125B0003F07E044A768C76C56EBE
:1055E0008A7EC5F3C0131A4305F07F048A76CC7611
:1055F000056FE80FAC0D0877C5F34172C5F3826300
:1056000004F00C004A778B77C877CA7FC5F38153C3
:105610001A43C5F34054CA77C5F3004C81F82040C3
:10562000C5F3C032C5F38033C5F34034002081F8A0
:10563000210081F822C081F82320C5F3003C81F8C5
:105640002430C5F3812281F82540C5F301230124CC
:10565000C5F3460581F826C081F8272081F8283057
:1056600081F8295081F82A4030BD012C19D12C0431
:1056700004F47C150D61C36E0A691C0E42EA042510
:105680000D610C69C3F3074222430A610D690135BC
:10569000AC024FF40072C3F307234465C46582650E
:1056A00095E7016840F2FF558D63836B4FF0010C65
:1056B00043F08052826380F834C06046D4E7000033
:1056C000F0B5002599B0CDE90955762304460C9331
:1056D0000B950AA807C88DE80700CDE90755714E5C
:1056E000206807A90EC900F01BFE0127356020685D
:1056F00000F03AFE37600220FEF746FE206806956D
:1057000000F0A6FF064670B9206800F0C9FF002827
:1057100075D0A6644FF6FF770698451CB8420695EB
:1057200008D14FF08076012084F83400A16B0E433D
:10573000A66362E00021206800F0EAFF014610B194
:105740004FF08056EFE7206800F0FAFF014600288E
:10575000F6D1206800F023FE0028DDDA00214FF0AA
:10576000010C61642068ADF816C000F001FE00284D
:1057700000F09480636C032B1AD0206800F0F9FFCE
:105780000546002864D10146206800F008FE042187
:105790006067206800F003FE0821A067206800F021
:1057A000FEFD0C21E067206800F0F9FDC4F88000E0
:1057B000626C032A44D1666C032E50D10421206808
:1057C00000F0EDFD070D0DA9E7642046FFF799FEF7
:1057D000206D00230204206800F022FF0546002807
:1057E00036D104F1100E9EE807008DE80700231D56
:1057F0000ECB206800F094FD284619B0F0BDA764D8
:105800004FF6FF75069B5A1CAB42069289D00021C9
:10581000206800F07DFF0646002884D14FF08041CB
:10582000206800F08DFF064600287FF47CAF01461B
:10583000206800F0B4FDC10FE4D042008ED58EE7A1
:105840000DF11601206800F0BFFF05460028B2D018
:10585000012084F83400A26B1543A563CDE7BDF8A1
:10586000161021652068090400F098FF05460028FD
:10587000EED10146206800F092FD042160662068A8
:1058800000F08DFD0821A066206800F088FD0C2145
:10589000E066206800F083FD20678FE74FF08065A9
:1058A000D6E700BFA080254210B50446A0B190F80D
:1058B000343003F0FF0213B90277FDF745FB0320F4
:1058C00084F834002046FFF7FBFE00200121A0638E
:1058D000206384F8341010BD0120FCE7436C826C17
:1058E0000B60C36C4A608B60026D436DCA600B61D4
:1058F000826DC36D006EC8614A618B610020704784
:10590000016D10B509040446006800F0B1FF0146BE
:1059100028B9206800F043FDC0F3432010BDA36BFD
:105920001943A1630020F7E738B5846B236C0BB1F2
:1059300000202064E56BADB92046FFF7E1FF421F70
:105940000121D3B28B42A56384F834100AD82068B1
:1059500000F04CFEA56B2843A063A16B204611B15B
:10596000FCF73DFF38BDFFF7CBFDFBE738B5846B97
:10597000E36B0BB10020E063256CADB92046FFF767
:10598000BFFF421F0121D3B28B42A56384F83410BC
:105990000AD8206800F02AFEA56B2843A063A16BFB
:1059A000204611B1FCF71BFF38BDFFF7A9FDFBE74F
:1059B00070B504460068436BDA054CD54FF480732C
:1059C0008363C16B21F44E7525F00206C663226B1A
:1059D000236B12F0080F1ED09B0702D4266BB6066D
:1059E00008D500F003FE28B1A26B1043A063204647
:1059F000FFF786FD206840F2FF530121836384F89E
:105A00003410256BED07204602D4246BA4071FD564
:105A1000FCF7EFFE70BD1906FCD5216B8A0608D590
:105A200000F0E4FD28B1A56B2843A0632046FFF7F2
:105A300067FD206BC307EDD4266BB607EAD4226856
:105A4000D36A012523F00801D162204684F834503E
:105A5000FCF7CAFEDEE7416B4D0410D5256A4FF412
:105A60008041816305F1200629462068043500F055
:105A700076FCAE42F8D1226A20322262CAE7426B3B
:105A8000110410D5A56A4FF400432E1F83631C3503
:105A9000206800F061FC46F8040FB542F8D1A06A16
:105AA0002030A062B6E7456B40F23A263542B1D0CD
:105AB000436B9A0742BFA36B43F00203A363416B9E
:105AC0000A0742BFA26B42F00802A263456BAE0612
:105AD00042BFA56B45F02005A563466BF50642BFA6
