:020000040800F2
:1000000000800120B1660008C5090008BD0A00088B
:10001000E90A0008EB0A0008ED0A000800000000E9
:10002000000000000000000000000000EF0A0008CF
:10003000F10A000800000000F30A0008F50A0008B1
:1000400001670008016700080167000801670008F0
:1000500001670008016700080167000801670008E0
:1000600001670008016700080167000801670008D0
:1000700001670008016700080167000801670008C0
:1000800001670008016700080167000801670008B0
:1000900001670008016700080167000801670008A0
:1000A0000167000801670008016700080167000890
:1000B0000167000801670008016700080167000880
:1000C0000167000801670008016700080167000870
:1000D0000167000801670008016700080167000860
:1000E0000167000801670008016700080167000850
:1000F0000167000801670008016700080167000840
:10010000016700080D0B000801670008016700087F
:100110000167000801670008FD0A00080167000880
:100120000167000801670008016700081D0B00084F
:1001300001670008016700080167000801670008FF
:1001400001670008016700080167000801670008EF
:10015000016700082D0B000801670008016700080F
:1001600001670008016700080167000801670008CF
:10017000016700080167000801670008000000002F
:08018000016700080167000897
:1001900010B5054C237833B9044B13B10448AFF3C1
:1001A00000800123237010BDC80000200000000063
:1001B0003877000808B5034B1BB103490348AFF378
:1001C000008008BD00000000CC0000203877000847
:1001D00001F0FF01102A2BDB10F0070F08D010F8F8
:1001E000013B013A8B422DD010F0070F42B3F6D1FC
:1001F000F0B441EA012141EA014122F007047FF015
:1002000000070023F0E80256083C85EA010586EA6B
:10021000010685FA47F5A3FA87F586FA47F6A5FAA7
:1002200087F68EB9EED1F0BC01F0FF0102F00702B3
:1002300032B110F8013B013A83EA010313B1F8D15E
:100240000020704701387047002D06BF354603383F
:10025000073815F0010F07D1013015F4807F02BF78
:10026000013015F4C03F0130F0BC0138704700BFC9
:1002700053B94AB9002908BF00281CBF4FF0FF310D
:100280004FF0FF3000F074B9ADF1080C6DE904CE09
:1002900000F006F8DDF804E0DDE9022304B0704761
:1002A0002DE9F047089E04468846002B40F08580E3
:1002B0008A42154648D9B2FA82F24AB1C2F1200701
:1002C00001FA02F320FA07F7954047EA0308944041
:1002D0004FEA154E230CB8FBFEF71FFA85FC0EFB08
:1002E000178843EA084307FB0CF1994209D9EB1838
:1002F00007F1FF3080F0E380994240F2E080023F56
:100300002B445B1AA4B2B3FBFEF00EFB103344EA9D
:10031000034400FB0CFCA44509D92C1900F1FF3360
:1003200080F0CB80A44540F2C88002382C4440EADB
:100330000740A4EB0C0400271EB1D4400023C6E9FB
:1003400000433946BDE8F087002A53D0B2FA82F262
:10035000002A40F0B680491B4FEA154E1FFA85F877
:100360000127B1FBFEFC230C0EFB1C1143EA0143E9
:1003700008FB0CF1994207D9EB180CF1FF3002D2BF
:10038000994200F2EC808446591AA3B2B1FBFEF008
:100390000EFB101443EA044408FB00F8A04507D9FB
:1003A0002C1900F1FF3302D2A04500F2DC80184680
:1003B000A4EB080440EA0C40BEE78B4208D9002EAB
:1003C00078D00027C6E9000138463946BDE8F087F5
:1003D000B3FA83F77FB98B4202D3824200F2BD8029
:1003E000841A61EB030301209846002EA9D0C6E9C8
:1003F0000048A6E7FFDEC7F12005BB4022FA05FC56
:100400004CEA030C01FA07F420FA05F821FA05F387
:100410004FEA1C4E48EA0404B3FBFEF9210C0EFB24
:1004200019331FFA8CF841EA034309FB08FA9A458D
:1004300002FA07F200FA07F10BD91CEB030309F1EA
:10044000FF3080F088809A4540F28580A9F102094A
:100450006344A3EB0A03A4B2B3FBFEF00EFB10331C
:1004600044EA034400FB08F8A04508D91CEB040447
:1004700000F1FF336BD2A04569D90238644440EAE9
:100480000940A4EB0804A0FB02894C45C6464B4634
:1004900054D351D0002E69D0B1EB0E0264EB0304AB
:1004A00004FA05F522FA07F3FC401D43C6E900549F
:1004B000002746E73746304643E7184637E7074602
:1004C0001FE7C2F1200320FA03F7954001FA02F07A
:1004D00021FA03F34FEA154E3843010CB3FBFEF744
:1004E0001FFA85F80EFB173341EA034107FB08F3B7
:1004F0008B4204FA02F407D9691807F1FF3C28D2AD
:100500008B4226D9023F2944CB1A81B2B3FBFEF0BD
:100510000EFB103341EA034100FB08F38B4207D97D
:10052000691800F1FF3C10D28B420ED902382944E1
:10053000C91A40EA074714E74145ABD2B8EB020EAF
:1005400069EB0C0201381346A4E76046F0E7184651
:1005500095E76746D8E781467BE7384645E7ACF143
:10056000020C2B4410E702382C4421E73746E8E61A
:10057000704700BF054B064A1A6000225A609A6015
:10058000DA601A615A6103229A617047281A0020C2
:10059000002C01402DE9F0418CB0002401942E4B39
:1005A0001A6B42F004021A631A6B02F00402019201
:1005B000019A02941A6B42F080021A631A6B02F0DD
:1005C00080020292029A03941A6B42F010021A639C
:1005D0001A6B02F010020392039A04941A6B42F011
:1005E00008021A631A6B02F008020492049A059436
:1005F0001A6B42F001021A631A6B02F001020592B3
:10060000059A06941A6B42F002021A631B6B03F000
:1006100002030693069B0B940225079508954FF05D
:100620000108CDF8248003260A960C4F07A9384606
:1006300001F064FC42462946384601F0DAFD082301
:100640000793089409940A9607A9054801F056FCF7
:100650000CB0BDE8F08100BF00380240000002404D
:10066000000C024021F0604121F07F010143014B69
:100670009960704700ED00E0B0B500AF0D4B1C680D
:1006800001F0C4F903F06CFA0B4B00221A605A60B7
:100690009A600A4B1B681D684FF440414FF00060A0
:1006A000FFF7E0FF064806F059F885F3088872B6B0
:1006B000A047B0BD04C0000810E000E000C0000882
:1006C0007477000808B50268034B9A4200D008BD51
:1006D00003F076FAFBE700BF00100040FEE70000E1
:1006E00008B50B480B4B03604FF4E1334360002324
:1006F0008360C36003610C2242618361C36103F0C4
:1007000010F900B908BD4FF414710348FFF7E6FF74
:1007100064190020001001408477000800B589B0FA
:1007200018484FF02043036003F5827343600022B2
:100730008260C2600261102343618261C261026211
:1007400042624FF480518162C262026342638263FB
:100750004264052101910F21029108210391012199
:100760000491059311230693079201A900F008FC58
:1007700010B909B05DF804FB40F2DA210248FFF736
:10078000ADFF00BFF41800208477000800B599B0D1
:1007900000210191334B1A6C42F080521A641B6C99
:1007A00003F080530193019B02912F4B1A6842F48E
:1007B00080421A601B6803F480430293029B01236A
:1007C0000C934FF480330D93022312934FF4800265
:1007D000139204221492A8221592169307231793BA
:1007E0000CA800F041FD68BB0F2307930223089378
:1007F000002309934FF4A0530A934FF480530B93B3
:10080000052107A800F066FF08BB022303934FF4FD
:100810000073069303A801F04FF8E8B901F008F857
:10082000124BA3FB0030800903F06EF9042003F0A3
:1008300081F9002211464FF0FF3003F025F919B07D
:100840005DF804FB40F205210948FFF747FF40F23D
:1008500013210748FFF742FF40F21B210448FFF72E
:100860003DFF00BF0038024000700040D34D6210D1
:100870008477000838B503F089F9FFF787FFFFF7A1
:1008800089FEFFF72DFF0821384801F0ABFC014637
:10089000002854D1364805F061FFFFF73FFFFFF70E
:1008A00069FE03F0D5FD03F0BBF91F2003F0E2F968
:1008B000304D314C0FCC28606960AA60EB60237822
:1008C0002B744FF61F0003F0CFF903232A464FF491
:1008D000EC71002003F0A8FA284805F03FFF2849F2
:1008E000284805F03BFF2849284805F037FF2849EC
:1008F000284805F033FF284805F030FF012227493A
:10090000274805F09FF9014638BB264805F0ACFFA3
:10091000254C00232370254805F0E0FD01F0BCF9CB
:100920002178F1B9224805F019FF05F047FE05F0DE
:1009300051FEFFF7A1FE1F4805F096FFFBE71E489A
:1009400005F00CFFFFF7EAFE03F06AF94FF4784078
:1009500003F090F905F03EFE9FE7184805F0FEFE13
:10096000D6E7174805F0FAFEDFE700BF000C0240AB
:10097000907700085C080020C4770008D87700084A
:10098000E8770008EC77000804780008147800087D
:10099000287800083878000850780008A41900204A
:1009A000B42B00206C780008B02B00200000002041
:1009B000A8780008D4780008A87700088478000890
:1009C000B8780008704700002DE9F84FD0F800A073
:1009D000D0F80490D0F80880C76806694569846932
:1009E000D0F81CB0204805F03FFF51461F4805F0E5
:1009F000B5FE49461E4805F0B1FE41461D4805F0CA
:100A0000ADFE39461C4805F0A9FE31461B4805F0ED
:100A1000A5FE29461A4805F0A1FE2146194805F011
:100A20009DFE5946184805F099FE184B196818485C
:100A300005F094FE174B1968174805F08FFE174B09
:100A40001968174805F08AFE164B1968164805F014
:100A500085FE164B1968164805F080FE154B596A3D
:100A6000154805F07BFEFEE7E878000818790008D5
:100A700024790008307900083C790008487900089A
:100A80005479000884790008A879000838ED00E05E
:100A9000B479000828ED00E0C07900082CED00E0F2
:100AA000CC79000830ED00E0D87900083CED00E09A
:100AB000E479000800ED00E0F07900081EF0040F72
:100AC0000CBFEFF30880EFF30980FFF77DBF042030
:100AD0005FEA0E01084202D0EFF3098001E0EFF374
:100AE0000880416900BE7047FEE7FEE7FEE77047F9
:100AF0007047704708B503F02EF808BD08B50248E6
:100B000000F078FA08BD00BFEC3B002008B50248B1
:100B100002F090F908BD00BF281A002008B502486D
:100B200001F080FB08BD00BFC819002008B50248CD
:100B300001F078FB08BD00BFFC070020174B1B68C5
:100B400003B17047F0B587B0144B01221A6000243E
:100B50000094134B9A6B42F001029A639B6B03F073
:100B600001030093009B4FF68073019302270297C5
:100B70000394032604960C25059501A9094801F064
:100B8000BDF94DF2B3730193029703940496059552
:100B900001A9054801F0B2F907B0F0BDE40000205A
:100BA0000038024000100240000C024082B00021D8
:100BB00000910B4B5A6C42F480425A645A6C02F416
:100BC00080420092009A01911A6C42F080521A649D
:100BD0001B6C03F080530193019B02B0704700BF70
:100BE000003802402DE9F04389B0002303930493B9
:100BF0000593069307930268294B9A4202D009B0E5
:100C0000BDE8F0830024009403F586335A6C42F467
:100C100000625A645A6C02F400620092009A0194D5
:100C20001A6B42F004021A631A6B02F0040201927A
:100C3000019A02941A6B42F008021A631B6B03F0CC
:100C400008030293029B4FF47063039302270497F7
:100C50004FF00109CDF81490032606960C25079550
:100C6000DFF844800DEB0501404601F047F94FF4F1
:100C7000805303930497CDF81490069607950DEBD7
:100C80000501404601F03AF90423039304970594C3
:100C9000069607950DEB0501024801F02FF9AEE726
:100CA000002C0140000C02400008024008B5026818
:100CB000094B9A4200D008BD084A536C23F40063E4
:100CC00053644FF48851064801F0FCF904210548AB
:100CD00001F0F8F9EFE700BF002C014000380240B6
:100CE00000080240000C024070B58CB0002307934E
:100CF000089309930A930B930368424A934207D0DF
:100D0000414A934232D0414A934255D00CB070BD13
:100D1000002401943E4B5A6C42F010025A645A6C03
:100D200002F010020192019A02941A6B42F0010241
:100D30001A631B6B03F001030293029B4FF40073D1
:100D40000793022308930A9307260B96314D07A9B0
:100D5000284601F0D3F84FF4806307930894099470
:100D60000B9607A9284601F0C9F8CFE700210391A7
:100D7000274B1A6C42F480221A641A6C02F4802207
:100D80000392039A04911A6B42F002021A631B6BDE
:100D900003F002030493049B4FF440630793022380
:100DA00008930123099303230A9307230B9307A9AD
:100DB000194801F0A3F8A9E700210591144B5A6CDA
:100DC00042F020025A645A6C02F020020592059A01
:100DD00006911A6B42F004021A631B6B03F00403C2
:100DE0000693069BC02307930223089301230993CC
:100DF00003230A9308230B9307A9084801F07EF800
:100E000084E700BF0010014000480040001401408A
:100E10000038024000000240000402400008024086
:100E200008B5FFF78BFE08BD10B588B0002201465B
:100E3000362002F029FE362002F05AFE00240194EA
:100E4000144B1A6C42F010021A641B6C03F010036E
:100E50000193019B02A903A800F010FD00F0EEFC35
:100E600043000D48A0FB03239B0C013B0B480C4A9D
:100E7000026040F2E732C26043600461846000F0C7
:100E8000D7F910B1012008B010BD044800F0A2F855
:100E9000F9E700BF0038024083DE1B43EC3B002033
:100EA0000010004070B40C6850F82430124E1E4000
:100EB0004A688D682A43CB681A430B691A434B6909
:100EC0001A438B691A43CB691A430B6A1A434B6A5C
:100ED0001A438B6A1A43CB6A1A43CB6B1A430B6BC8
:100EE00013433343082D04D040F82430002070BC55
:100EF000704743F04003F7E78000F0FF30B4013261
:100F000050F8224004F040440B684D6843EA051352
:100F10008D6843EA0523CD6843EA05430D69013D29
:100F200043EA05534D69023D43EA056389690B4372
:100F3000234340F82230002030BC7047B3F5804F87
:100F400005D06FF0704340F822300020704730B475
:100F500050F82230094C1C400B684D6843EA0513D9
:100F60008D6843EA0523CD6843EA054389690B434D
:100F7000234340F82230002030BC70470000F0CFFF
:100F800028B370B5044615460E4690F84930CBB1EB
:100F9000214651F8080BFFF785FFA268314620680B
:100FA000FFF7ACFF236BA26829466068FFF7C6FF16
:100FB0002268A16852F8213043F0010342F8213041
:100FC000002070BD80F84830FFF72AFFE0E70120DD
:100FD000704770470268D36843F00103D36002682A
:100FE000136843F001031360002070477047704797
:100FF0007047704710B5044603681A6912F0020F73
:1010000011D0DA6812F0020F0DD06FF002021A61EF
:101010000123037603689B6913F0030F70D0FFF779
:10102000E6FF0023237623681A6912F0040F12D01A
:10103000DA6812F0040F0ED06FF004021A61022376
:10104000237623689B6913F4407F5FD02046FFF727
:10105000CEFF0023237623681A6912F0080F12D0FE
:10106000DA6812F0080F0ED06FF008021A6104233C
:1010700023762368DB6913F0030F4ED02046FFF779
:10108000B6FF0023237623681A6912F0100F12D0DE
:10109000DA6812F0100F0ED06FF010021A610823F8
:1010A00023762368DB6913F4407F3DD02046FFF7A9
:1010B0009EFF0023237623681A6912F0010F03D0E4
:1010C000DA6812F0010F36D123681A6912F0800F26
:1010D00003D0DA6812F0800F34D123681A6912F055
:1010E000400F03D0DA6812F0400F32D123681A693A
:1010F00012F0200F03D0DA6812F0200F30D110BDAB
:10110000FFF774FF2046FFF773FF8AE72046FFF7DB
:101110006DFF2046FFF76CFF9BE72046FFF766FF59
:101120002046FFF765FFACE72046FFF75FFF20464C
:10113000FFF75EFFBDE76FF001021A612046FFF77F
:10114000C1FAC1E76FF080021A61204600F08BF807
:10115000C3E76FF040021A612046FFF74AFFC5E778
:101160006FF020021A61204600F07CF8C7E700000B
:1011700003682E4A904212D0B0F1804F0FD0A2F5F2
:101180007C4290420BD002F58062904207D002F57B
:101190008062904203D002F57842904203D123F05E
:1011A00070034A681343214A90422AD0B0F1804F1D
:1011B00027D0A2F57C42904223D002F58062904273
:1011C0001FD002F5806290421BD002F57842904217
:1011D00017D002F57052904213D002F5806290420F
:1011E0000FD002F5806290420BD0A2F59832904267
:1011F00007D002F58062904203D002F580629042EF
:1012000003D123F44073CA68134303608B68C3623D
:101210000B688362054B984203D003F580639842C4
:1012200001D10B6903630123436170470000014052
:10123000B0B110B5044690F8393063B1022384F898
:101240003930214651F8040BFFF792FF012384F84F
:101250003930002010BD80F83830FFF7BAFEEDE7D6
:101260000120704770477047002800F0B98170B5C1
:1012700082B00446036813F0010F3BD0A64B9B6875
:1012800003F00C03042B2CD0A34B9B6803F00C033E
:10129000082B21D06368B3F5803F4FD0B3F5A02F62
:1012A00052D09D4B1A6822F480321A601A6822F4D8
:1012B00080221A606368002B50D002F08DFC054636
:1012C000954B1B6813F4003F14D102F085FC401BC2
:1012D0006428F5D903208AE18F4B5B6813F4800FF3
:1012E000D8D08D4B1B6813F4003F03D06368002BEC
:1012F00000F07881236813F0020F54D0864B9B686E
:1013000013F00C0F3ED0844B9B6803F00C03082BAA
:1013100033D0E368002B67D0804B01221A6002F0C3
:101320005BFC05467C4B1B6813F0020F53D102F0A7
:1013300053FC401B0228F5D9032058E1764A136874
:1013400043F480331360B5E7734B1A6842F480228C
:101350001A601A6842F480321A60ABE702F03CFC73
:1013600005466D4B1B6813F4003FC3D002F034FCFC
:10137000401B6428F5D9032039E1674B5B6813F4FF
:10138000800FC6D1644B1B6813F0020F03D0E368D3
:10139000012B40F02981604A136823F0F80321698A
:1013A00043EAC1031360236813F0080F40D0636958
:1013B00063B35B4B01221A6002F00EFC0546564BEC
:1013C0005B6F13F0020F33D102F006FC401B0228C2
:1013D000F5D903200BE1504A136823F0F803216983
:1013E00043EAC1031360DEE74C4B00221A6002F0AF
:1013F000F3FB0546484B1B6813F0020FD3D002F0F5
:10140000EBFB401B0228F5D90320F0E0444B0022FF
:101410001A6002F0E1FB05463F4B5B6F13F0020FD1
:1014200006D002F0D9FB401B0228F5D90320DEE0EC
:10143000236813F0040F78D0374B1B6C13F0805FD8
:1014400033D100230193344B1A6C42F080521A645A
:101450001B6C03F080530193019B0125314B1B68EA
:1014600013F4807F23D0A368012B34D0052B38D010
:10147000294B1A6F22F001021A671A6F22F0040238
:101480001A67A368002B36D002F0A6FB0646224B53
:101490001B6F13F0020F47D102F09EFB801B41F23D
:1014A00088339842F3D90320A1E00025D6E71D4AEE
:1014B000136843F48073136002F08EFB0646194BE9
:1014C0001B6813F4807FCED102F086FB801B0228BC
:1014D000F5D903208BE0104A136F43F00103136723
:1014E000CFE70D4B1A6F42F004021A671A6F42F0F1
:1014F00001021A67C5E702F06FFB0646064B1B6F39
:1015000013F0020F10D002F067FB801B41F288330A
:101510009842F3D903206AE00038024000004742B5
:10152000800E474200700040E5B9A369002B5DD0F2
:10153000314A926802F00C02082A5AD0022B17D0C6
:101540002E4B00221A6002F047FB04462A4B1B6810
:1015500013F0007F42D002F03FFB001B0228F5D9B8
:10156000032044E0244A136C23F080531364DCE727
:10157000224B00221A6002F02FFB05461E4B1B680F
:1015800013F0007F06D002F027FB401B0228F5D99C
:1015900003202CE0E369226A1343626A43EA821360
:1015A000A26A5208013A43EA0243E26A43EA02634A
:1015B000114A5360114B01221A6002F00DFB0446E0
:1015C0000D4B1B6813F0007F06D102F005FB001BDA
:1015D0000228F5D903200AE0002008E0002006E0F8
:1015E00001207047012002E0012000E0002002B04D
:1015F00070BD0120FBE700BF003802406000474299
:10160000314B9B6803F00C03042B58D0082B58D1A6
:1016100070B52D4B5A6802F03F025B6813F4800FDF
:101620002AD0294B5868C0F388100546002643018C
:101630001B1A66EB0604A10141EA93619801C01AE6
:1016400061EB0401CB0043EA5073C40019466019F2
:1016500046EB01014B0243EAD053440220461946AF
:101660003346FEF705FE184B5B68C3F301430133B5
:101670005B00B0FBF3F070BD134B5868C0F38810EB
:101680000546002643011B1A66EB0604A10141EA48
:1016900093619801C01A61EB0401CB0043EA5073D7
:1016A000C4001946601946EB01018B0243EA9053CE
:1016B0008402204619463346FEF7DAFDD3E7034895
:1016C00070470348704700BF0038024000127A009C
:1016D0000024F400002800F09A8070B50446504BB6
:1016E0001B6803F00F038B4208D2CBB24C4A137035
:1016F000136803F00F038B4240F08B80236813F0D4
:10170000020F17D013F0040F04D0464A936843F435
:10171000E0539360236813F0080F04D0414A9368A4
:1017200043F4604393603F4A936823F0F003A0685A
:10173000034393600D46236813F0010F32D06368B2
:10174000012B21D09A1E012A25D9364A126812F09F
:10175000020F60D033498A6822F0030213438B6082
:1017600002F03AFA06462F4B9B6803F00C036268BE
:10177000B3EB820F16D002F02FFA801B41F28833B0
:101780009842F0D9032041E0264A126812F4003F43
:10179000E0D101203AE0234A126812F0007FD9D14B
:1017A000012033E01E4B1B6803F00F03AB4207D947
:1017B000EAB21B4B1A701B6803F00F03AB422CD12B
:1017C000236813F0040F06D0164A936823F4E053FD
:1017D000E1680B439360236813F0080F07D0114AA8
:1017E000936823F46043216943EAC1039360FFF7E0
:1017F00007FF0C4B9B68C3F303130B4AD35CD84021
:101800000A4B18600020FFF70FFB002070BD01207D
:1018100070470120FAE70120F8E70120F6E700BF52
:10182000003C02400038024038830008600000207D
:10183000014B1868704700BF6000002008B5FFF733
:10184000F7FF044B9B68C3F38223034AD35CD84061
:1018500008BD00BF003802404883000808B5FFF704
:10186000E7FF044B9B68C3F34233034AD35CD84081
:1018700008BD00BF00380240488300080F23036002
:101880000B4B9A6802F0030242609A6802F0F00281
:1018900082609A6802F4E052C2609B68DB0803F43D
:1018A000E0530361034B1B6803F00F030B607047A9
:1018B00000380240003C024030B583B00446036863
:1018C00013F0050F06D1236813F0020F2ED100206C
:1018D00003B030BD494B00221A6002F07DF9054685
:1018E000474B1B6813F0006F06D002F075F9401BE0
:1018F0000228F5D90320EBE76268A3681B0743EAD7
:1019000082133F4AC2F884303C4B01221A6002F035
:1019100063F905463A4B1B6813F0006FD3D102F010
:101920005BF9401B0228F5D90320D1E7002301937E
:10193000334B1A6C42F080521A641B6C03F08053D4
:101940000193019B2F4A136843F48073136002F0E4
:1019500043F905462B4B1B6813F4807F06D102F038
:101960003BF9401B0228F5D90320B1E7244B1B6F3C
:1019700013F4407312D0E26802F440729A420DD020
:101980001F4B1A6F22F440721F490120086000208B
:1019900008601A671B6F13F0010F13D1E36803F49B
:1019A0004072B2F5407F1ED0154A936823F4F813B5
:1019B000936013490B6FE268C2F30B0213430B678A
:1019C000002085E702F008F905460D4B1B6F13F068
:1019D000020FE3D102F000F9401B41F28833984234
:1019E000F3D9032074E706498A6822F4F81223F039
:1019F000704323F4407313438B60DAE76800474277
:101A00000038024000700040400E474238B502F0F6
:101A1000E3F80446474A136843F001031360454B5B
:101A20001B6813F0020F07D102F0D6F8001B022842
:101A3000F5D90323184638BD3E4D2B6843F080038B
:101A40002B6002F0C9F804460023AB60394B9B6859
:101A500013F00C0F08D002F0BFF8001B41F28833DE
:101A60009842F3D90323E5E702F0B6F80446314A79
:101A7000136823F4502313602E4B1B6813F4003FAC
:101A800006D002F0A9F8001B6428F5D90323D1E79A
:101A900002F0A2F80446274A136823F0807313600B
:101AA000244B1B6813F0007F06D002F095F8001B52
:101AB0000228F5D90323BDE702F08EF804461D4A3B
:101AC000136823F0806313601A4B1B6813F0006FD8
:101AD00006D002F081F8001B0228F5D90323A9E7FC
:101AE000144B154A5A60154AC3F88420DA6822F468
:101AF000F852DA60DA6822F40052DA60DA6842F406
:101B00001F02DA60DA6842F40012DA605A6F22F0DB
:101B100001025A675A6F42F080725A67084B094AAD
:101B20001A600020FFF780F90346002882D00123C5
:101B300080E700BF00380240103000040030002071
:101B4000600000200024F40010B409490C6924F45A
:101B500040740C610C6944F440740C610C6944F0ED
:101B600001040C61026043605DF8044B704700BFE4
:101B7000003C0240074B1A6922F440721A611A694C
:101B800042F400721A611A6942F001021A6101609E
:101B9000704700BF003C0240074B1A6922F44072B4
:101BA0001A611A6942F480721A611A6942F00102DC
:101BB0001A610180704700BF003C0240064B1A6961
:101BC00022F440721A611A691A611A6942F001021C
:101BD0001A610170704700BF003C0240204BDB6877
:101BE00013F0100F07D01F4AD36943F01003D361DD
:101BF0001B4B1022DA601A4BDB6813F0200F07D062
:101C0000184AD36943F00803D361154B2022DA60E8
:101C1000134BDB6813F0400F07D0124AD36943F02F
:101C20000403D3610E4B4022DA600D4BDB6813F0E6
:101C3000800F07D00B4AD36943F00203D361084BEE
:101C40008022DA60064BDB6813F0020F07D0054AEA
:101C5000D36943F02003D361014B0222DA6070475D
:101C6000003C0240283C0020094B1B69002B01DB93
:101C700000207047064B074A5A6002F188325A60CA
:101C80001B69002B01DB002070470120704700BF5B
:101C9000003C024023016745034A136943F00043B7
:101CA00013610020704700BF003C024038B5044675
:101CB000144B0022DA6101F08FFF0546124BDB68FE
:101CC00013F4803F0AD0B4F1FF3FF7D024B101F004
:101CD00083FF401BA042F1D903200DE00A4BDB68D3
:101CE00013F0010F02D0084B0122DA60064BDB68CB
:101CF00013F0F20F01D1002038BDFFF76FFF012074
:101D0000FAE700BF283C0020003C0240F8B51D4C1B
:101D1000247E012C34D01F4616460D460446194B2E
:101D200001221A764CF25030FFF7C0FF014698B9F5
:101D3000BCB1012C1AD0022C1DD032463B4628469D
:101D4000FFF702FF4CF25030FFF7B0FF01460E4A9A
:101D5000136923F0010313610A4B00221A76084627
:101D6000F8BDF1B22846FFF729FFEBE7B1B22846EC
:101D7000FFF712FFE6E731462846FFF7FBFEE1E7F3
:101D80000221ECE7283C0020003C0240074B1A6986
:101D900022F440721A611A6942F004021A611A6947
:101DA00042EA002040F4803018617047003C024055
:101DB00010B449B1012921D0022902D04FF4407258
:101DC00003E04FF4007200E000220E4B1C6924F483
:101DD00040741C61196911431961196921F0F801F6
:101DE00019611A6942EAC00242F002021A611A69D4
:101DF00042F480321A615DF8044B70474FF48072F0
:101E0000E3E700BF003C0240164B1B6813F4007F61
:101E100010D0144B1A6822F400721A601A6842F447
:101E200000621A601A6822F400621A601A6842F4AA
:101E300000721A600B4B1B6813F4806F10D0094BB3
:101E40001A6822F480621A601A6842F480521A609A
:101E50001A6822F480521A601A6842F480621A608A
:101E6000704700BF003C0240F8B5224B1B7E012B9F
:101E70003ED00E4604461F4B01221A764CF25030DB
:101E8000FFF714FF074670BB4FF0FF333360236842
:101E9000012B16D0A568E368A2681344AB4220D991
:101EA000217C2846FFF784FF4CF25030FFF7FEFEFE
:101EB000114A136923F0FA031361074680B901350B
:101EC000E9E76168207CFFF761FF4CF25030FFF7D3
:101ED000EDFE0746084A136923F00403136100E08E
:101EE0003560FFF791FF034B00221A763846F8BDA4
:101EF0000227FBE7283C0020003C024000230F2B78
:101F000000F2D680F0B482B039E0072200E000226F
:101F1000B2403A430235674E46F82520664A1568B6
:101F2000E24302EA05064F6817F4803F01D044EA15
:101F30000506614D2E606D6802EA05064F6817F4CC
:101F4000003F01D044EA05065B4D6E60AD6802EAD1
:101F500005064F6817F4801F01D044EA0506564D68
:101F6000AE60ED682A404E6816F4001F01D044EAC6
:101F70000502514CE26001330F2B00F296800122E2
:101F80009A400C681440A242F5D14D68022D01D050
:101F9000122D10D1DE08083650F826C003F00705D0
:101FA000AF000F25BD402CEA050C0D69BD4045EA88
:101FB0000C0540F8265006685F000325BD40ED4340
:101FC00005EA060C4E6806F00306BE4046EA0C061B
:101FD00006604E6806F1FF3CBCF1010F03D9112EDB
:101FE00001D0122E10D1866805EA060CCE68BE40DC
:101FF00046EA0C068660466826EA02024E68C6F388
:1020000000169E4016434660C26815408A68BA4072
:102010002A43C2604A6812F0805FACD0002201926D
:10202000264A556C45F480455564526C02F4804252
:102030000192019A9D08AE1C1E4A52F8267003F0C8
:10204000030296000F22B24027EA02071C4A904280
:102050003FF45DAF02F5806290421AD002F58062D3
:10206000904218D002F58062904216D002F580624C
:10207000904214D002F58062904212D002F5806244
:10208000904210D002F5806290423FF43EAF0822A9
:102090003EE701223CE702223AE7032238E7042226
:1020A00036E7052234E7062232E702B0F0BC70477B
:1020B000704700BF00380140003C0140003802403A
:1020C0000000024000230F2B00F28580F0B509E0EC
:1020D000072500E0002505FA02F2A24262D0013392
:1020E0000F2B77D801229A4002EA0106B242F6D1BC
:1020F00005685F000324BC40E443254005604FEAC7
:10210000D30C0CF1080C50F82CE003F00705AD00DF
:102110000F2707FA05F52EEA050540F82C508568CB
:1021200025408560456825EA02024260C268144085
:10213000C4604FEA930C0CF10204274A52F8244081
:1021400003F00302920097403C40244DA842C1D0C6
:1021500005F58065A84219D005F58065A84217D01D
:1021600005F58065A84215D005F58065A84213D015
:1021700005F58065A84211D005F58065A8420FD00D
:1021800005F58065A842A3D00825A4E70125A2E7AC
:102190000225A0E703259EE704259CE705259AE78D
:1021A000062598E70C4D0CF1020255F8224024EA6E
:1021B000070745F822700A4C2568F2431540256050
:1021C000656815406560A5681540A560E5682A400A
:1021D000E26084E7F0BD7047003801400000024033
:1021E000003C01400369194201D0012070470020E2
:1021F00070470AB18161704709048161704790F8A6
:102200003530DBB2022B03D08023436501207047B9
:10221000052380F835300268136823F0010313604A
:1022200000207047F0B583B0044600230193724B41
:102230001D68724BA3FB0535AD0A876D3E68C26D04
:1022400008239340334210D003681A6812F0040F39
:102250000BD01A6822F004021A60C26D0823934062
:10226000BB60436D43F001034365E26D012393407E
:10227000334209D02268526912F0800F04D0BB604B
:10228000636D43F002036365E26D042393403342C0
:1022900009D02268126812F0020F04D0BB60636D8F
:1022A00043F004036365E26D10239340334224D06E
:1022B0002268126812F0080F1FD0BB6023681A68EA
:1022C00012F4802F0DD01B6813F4002F04D1236C5F
:1022D0009BB12046984710E0A36C73B12046984705
:1022E0000BE01A6812F4807F03D11A6822F008020A
:1022F0001A60236C0BB120469847E26D202393406F
:10230000334255D02268126812F0100F50D0BB60D3
:1023100094F83530DBB2052B0ED023681A6812F41E
:10232000802F33D01B6813F4002F2AD1636C002B4D
:102330003ED0204698473BE02268136823F01603FE
:1023400013602268536923F080035361236CA3B1A7
:102350002268136823F008031360E26D3F23934063
:10236000BB60002384F83430012384F83530236DBA
:10237000002B3FD0204698473CE0A36C002BE7D1D0
:10238000EBE7E36BA3B12046984711E01A6812F41B
:10239000807F09D11A6822F010021A60002384F8A5
:1023A0003430012384F83530E36B0BB12046984775
:1023B000636DFBB1636D13F0010F17D0052384F833
:1023C00035302268136823F001031360019B013349
:1023D0000193AB4204D823681B6813F0010FF5D1B9
:1023E000002384F83430012384F83530E36C0BB1DA
:1023F0002046984703B0F0BD60000020B5814E1B19
:1024000030B583B0044600230193006801F0ACF8B6
:10241000054610B1284603B030BD206801F0B7F87A
:1024200038B90123A364A36C012B0BD0294628469D
:1024300019E00023A364206801F096F80028F2D088
:102440000546E7E70021206801F0B8F80028EDD044
:102450004FF08055DEE70021206800F0CCFEC10F70
:10246000019B01330193019A4FF6FE739A420ED8F5
:1024700069B90021206801F0A1F8B8B90E492068B7
:1024800001F0B4F80028E6D04FF08055C2E7019A79
:102490004FF6FE739A420BD810F0804002D0012311
:1024A0006364B7E7002363640546B3E70546B1E715
:1024B0004FF08075AEE700BF000010C1F8B5846A28
:1024C000C66AA6B9F8BD386800F06CFE2070C0F38B
:1024D00007236370C0F30743A370000EE070043459
:1024E000043E0135072DEED9BC62FE62EAE70746DD
:1024F0000025F7E7F0B583B0046A466ADEB903B099
:10250000F0BD23780193627843EA02230193A27815
:1025100043EA02430193E27843EA026301930434FD
:10252000043E01A9386800F040FE0135072DE8D9C6
:102530003C627E62E3E707460025F7E770B581B1AC
:102540000D460446016D0904006801F0AAF806462C
:1025500008B1304670BD0021206800F04CFE2860B4
:10256000F7E74FF00066F4E72DE9F04F87B0044637
:102570000D4616469B46DDF8408001F02DFB45B325
:10258000824694F83470FFB2012F40F01681002388
:10259000A36306EB0B03E26D934220D8032384F878
:1025A000343023680022DA62636C012B00D076029B
:1025B0004FF40071206800F02DFF0346A0B122689F
:1025C00082499163A06B1843A063012384F83430DF
:1025D000F8E0A36B43F00063A3630127F2E0A36B71
:1025E00043F00073A363EDE04FF0FF3300934FEA35
:1025F0004B2301939023029302230393002304931C
:10260000012305936946206800F0F2FEBBF1010F3B
:1026100009D9022323633146206800F02BFF48B913
:10262000DDF804902DE0012323633146206800F09B
:1026300009FFF4E72368654A9A63A36B1843A06314
:10264000012384F8343000232363BBE0206800F0CA
:10265000A9FD2870C0F307236B70C0F30743AB706C
:10266000000EE8700435A9F104090136072EEDD9F2
:1026700001F0B2FAA0EB0A00404510D2B8F1000F09
:102680000DD02068466B40F22A331E4015D1436BB3
:1026900013F4004FECD0B9F1000FE9D0E6E723685E
:1026A0004A4A9A63A36B43F00043A363012384F86F
:1026B000343000232363032784E0436B13F4807FCB
:1026C00005D0BBF1010F02D9636C032B38D123680D
:1026D0005A6B12F0080F44D15A6B12F0020F4CD112
:1026E0005A6B12F0200F54D12068436B13F4001F73
:1026F0005BD0B9F1000F58D000F054FD2870C0F342
:1027000007236B70C0F30743AB70000EE87004350D
:10271000A9F1040901F060FAA0EB0A00404502D2D9
:10272000B8F1000FE0D12368284A9A63A36B43F005
:102730000043A363012384F834300023236341E082
:1027400000F0E0FE03460028C1D022681F499163D3
:10275000A26B1343A363012384F834300023236363
:1027600030E01A4A9A63A36B43F00803A363012382
:1027700084F834300023236324E0144A9A63A36B63
:1027800043F00203A363012384F83430002323635E
:1027900018E00E4A9A63A36B43F02003A36301235E
:1027A00084F83430002323630CE040F23A5383630F
:1027B000012384F83430002704E0A36B43F0005376
:1027C000A3630127384607B0BDE8F08FFF0540003E
:1027D0002DE9F04F89B004460D4616469B4601F0A0
:1027E000FBF945B3824694F83470FFB2012F40F0F4
:1027F000F0800023A36306EB0B03E26D934220D825
:10280000032384F8343023680022DA62636C012BDE
:1028100000D076024FF40071206800F0FBFD034603
:10282000A0B122686F499163A06B1843A063012394
:1028300084F83430D2E0A36B43F00063A363012734
:10284000CCE0A36B43F00073A363C7E04FF0FF330A
:1028500002934FEA4B2303939023049300230593A1
:1028600006930123079302A9206800F0C1FDBBF184
:10287000010F0CD9202323633146206800F02AFE83
:102880008046B8F1000F0AD1DDF80C9031E010233A
:1028900023633146206800F005FE8046F1E7236897
:1028A000504A9A63A36B43EA0803A363012384F8A5
:1028B00034300023236391E02B786A7843EA0223C3
:1028C000AA7843EA0243EA7843EA026301930435B3
:1028D000A9F1040901A9206800F067FC0136072E60
:1028E000EAD901F079F9A0EB0A00129B98420ED2C6
:1028F0006BB12068466B40F21A331E4015D1436B12
:1029000013F4804FEDD0B9F1000FEAD0E7E7236868
:10291000344A9A63A36B43EA0803A363012384F850
:10292000343000232363032758E0436B13F4807F84
:1029300005D0BBF1010F02D9636C032B18D12368BA
:102940005A6B12F0080F24D15A6B12F0020F2CD1DF
:102950005A6B12F0100F34D0224A9A63A36B43F0E3
:102960001003A363012384F834300023236335E08C
:1029700000F0C8FD03460028E1D0226819499163A0
:10298000A26B1343A363012384F834300023236331
:1029900024E0144A9A63A36B43F00803A363012362
:1029A00084F834300023236318E00E4A9A63A36B43
:1029B00043F00203A363012384F83430002323632C
:1029C0000CE040F23A529A63012384F83430002735
:1029D00004E0A36B43F00053A3630127384609B01A
:1029E000BDE8F08FFF0540007047000010B4436E53
:1029F0009B0F0B70436EC3F383634B7090F867308B
:102A000003F003038B7090F86630CB7090F865305C
:102A10000B7190F864304B71836E1B0DCB80B0F856
:102A20006A3003F00F030B72836EC3F3C0334B7233
:102A3000836EC3F380338B72836EC3F34033CB72E8
:102A4000836EC3F300330B7300234B73436C002B73
:102A500040F08880826E40F6FC7303EA8203C26E07
:102A600043EA92730B61C36EC3F3C2630B7590F8B4
:102A70006F3003F007034B75C36EC3F342538B757E
:102A8000C36EC3F38243CB75C36EC3F3C2330B76FD
:102A90000B69013343650A7E02F00702023203FA32
:102AA00002F242650B7A03F00F040123A340836511
:102AB0005B0A03FB02F3C3654FF400730366C36E46
:102AC000C3F380334B76C36EC3F3C6138B76C36EEA
:102AD00003F07F03CB76036FDB0F0B77036FC3F33A
:102AE00041734B77036FC3F382638B77036FC3F339
:102AF0008353CB77036FC3F3405381F82030002317
:102B000081F82130B0F8722002F0010281F8222011
:102B1000026FC2F3C03281F82320026FC2F3803209
:102B200081F82420026FC2F3403281F82520026F21
:102B3000C2F3003281F82620026FC2F3812281F8AD
:102B40002720026FC2F3012281F82820026FC2F30E
:102B5000460281F82920012281F82A2018465DF8D2
:102B6000044B7047012B11D1836E1B0403F47C13BB
:102B7000B0F86E2013430B610B6901339B02436570
:102B8000C3654FF400738365036698E70368054ADD
:102B90009A63836B43F080538363012380F834305E
:102BA0001846DCE7FF05400070B590B004460123ED
:102BB000ADF81230006800F005FB00286CD0636CA3
:102BC000032B45D1636C032B5DD1636C032B1DD0AC
:102BD000BDF8121021650904206800F035FD054696
:102BE00000285BD10021206800F005FB606604210D
:102BF000206800F000FBA0660821206800F0FBFAC6
:102C0000E0660C21206800F0F6FA206704212068B5
:102C100000F0F1FA000DE06405A92046FFF7E6FE9A
:102C200000283ED1226D12040023206800F084FCAD
:102C3000054698BB234653F8106B93E807008DE8D0
:102C40000700043494E80E00304600F08FFA25E0C7
:102C5000206800F0E4FC054600BB0021206800F07D
:102C6000CAFA60670421206800F0C5FAA06708214D
:102C7000206800F0C0FAE0670C21206800F0BBFA81
:102C8000C4F880009EE70DF11201206800F0F1FC0D
:102C90000546002899D001E04FF08065284610B025
:102CA00070BD4FF08055F9E770B58AB00446002337
:102CB00004930593069307930893762309930AAB2D
:102CC00013E907008DE8070004AB0ECB206800F085
:102CD0004DFA18B1012528460AB070BD0546104EC0
:102CE00000233360206800F065FA0123336020463A
:102CF000FFF786FB034630B1012584F83450A06B02
:102D00001843A063E7E72046FFF74EFF034600287D
:102D1000E1D0012584F83450A06B1843A063DAE7B2
:102D2000A0802542C0B110B5044690F834307BB184
:102D3000032384F834302046FFF7B6FF034670B90A
:102D40000022A2632263012284F83420184610BDB9
:102D50000377FDF747FFEBE7012318467047012390
:102D6000F4E7436C0B60836C4B60C36C8B60036D4A
:102D7000CB60436D0B61836D4B61C36D8B61036EE3
:102D8000CB610020704710B582B004460023019348
:102D900001A9FFF7D3FB18B10346A06B1843A0634A
:102DA0000198C0F3432002B010BD10B5846B2368B6
:102DB00040F23A529A632046FFF7E5FF012384F878
:102DC0003430002323630538012805D9A36B53B998
:102DD000204601F09EFB10BD206800F093FBA36B22
:102DE0001843A063F2E72046FFF7FEFDF3E710B5B6
:102DF000846B236840F23A529A632046FFF7C3FF80
:102E0000012384F83430002323630538012805D9D1
:102E1000A36B53B9204601F07CFB10BD206800F085
:102E200071FBA36B1843A063F2E72046FFF7DCFDBC
:102E3000F3E7000038B50446056B03685A6B12F4DB
:102E4000004F02D015F0080F28D15A6B12F4807F82
:102E50005AD04FF480729A632268D36B23F44343B1
:102E600023F03A03D3632268D36A23F00103D362C9
:102E700015F0080F26D015F0220F12D1236840F26A
:102E80003A529A63012384F834300023236315F007
:102E9000030F13D0204601F046FB01E0FFF70EFBC5
:102EA00038BD206800F02EFB03460028E6D0A26B58
:102EB0001343A3632046FFF797FDDFE7204601F0A9
:102EC0002DFBEDE715F0800FEAD015F0200F0ED1A5
:102ED00015F0030FE4D12268D36A23F00803D3620C
:102EE000012384F83430204601F018FBD8E720682D
:102EF00000F008FB03460028EAD0A26B1343A3634B
:102F00002046FFF771FDE3E75A6B12F4804F02D0C1
:102F100015F0080F55D1596B40F23A221142BFD03B
:102F20005A6B12F0020F03D0A26B42F00202A263AE
:102F30005A6B12F0080F03D0A26B42F00802A26392
:102F40005A6B12F0200F03D0A26B42F02002A26352
:102F50005A6B12F0100F03D0A26B42F01002A26362
:102F60005A6B12F4007F03D0A26B42F00802A263F6
:102F700040F23A729A632268D36B23F44E7323F0C3
:102F80000203D363206800F0BDFAA36B1843A0636B
:102F900015F0080F19D115F0800F81D015F0300F02
:102FA0001CD115F0030F26D0236C184A1A65206C2B
:102FB000FFF725F900283FF473AF206CFFF717FFE8
:102FC0006EE72046FFF796FA6AE7012384F834306B
:102FD000002323632046FFF707FD61E7E36B0C4AFC
:102FE0001A65E06BFFF70BF900283FF459AFE06B6F
:102FF000FFF7DBFE54E70023A363012284F83420AB
:103000002363204601F085FA4AE700BFEF2D000850
:10301000AB2D00080B4B1B680B4AA2FB03235A0A7B
:1030200041F2883303FB02F35A1E43B1416B13464E
:1030300011F0800FF8D0C5238363002070474FF054
:103040000040704760000020D34D621010B4044669
:10305000144B1B68144AA2FB03235A0A41F288331B
:1030600003FB02F35A1EC3B1616B134611F0450F07
:10307000F8D011F4006FF5D1636B13F0040F06D193
:10308000606B10F0010005D1C523A36307E00420A5
:10309000A06304E00123A36301E04FF000405DF86A
:1030A000044B704760000020D34D621010B40446FA
:1030B000114B1B68114AA2FB03235A0A41F28833C1
:1030C00003FB02F35A1E8BB1616B134611F0450FDF
:1030D000F8D011F4006FF5D1606B10F0040002D14C
:1030E000C523A36304E00420A06301E04FF0004087
:1030F0005DF8044B704700BF60000020D34D6210A4
:1031000010B40446174B1B68174AA2FB03235A0A44
:1031100041F2883303FB02F35A1EE3B1616B13469D
:1031200011F0450FF8D011F4006FF5D1636B13F077
:10313000040F0AD1606B10F0010009D1636B13F02A
:1031400040030DD04023A36307E00420A06304E004
:103150000123A36301E04FF000405DF8044B70478A
:103160001846FAE760000020D34D621084B010B416
:1031700002AC84E80E000B46039A1343049A1343EF
:10318000059A1343069A1343079A1343426822F49D
:10319000FD4222F07F021343436000205DF8044BA0
:1031A00004B07047D0F8800070470B68C0F88030DA
:1031B0000020704708B503230360022000F012FDD1
:1031C000002008BD006800F0030070470B688360B2
:1031D0004B688A681343CA6813430A691343C26879
:1031E00022F47F6222F00F021343C3600020704775
:1031F0000069C0B2704714304058704738B5514B21
:103200001B68514CA4FB03435B0A02FB03F2531EF1
:10321000002A5ED0446B1A4614F0450FF7D014F420
:10322000006FF4D1436B13F0040F06D1436B13F01E
:10323000010305D0012282634DE0042383634AE049
:103240000D460446C5238363FFF7D2FFA84201D091
:10325000012340E000212046FFF7CDFF3B4B034018
:10326000CBB3002839DB10F0804F39D110F0005F6C
:1032700038D110F0805F37D110F0006F37D110F0E7
:10328000806F37D110F0807F37D110F4000F37D125
:1032900010F4800F37D110F4001F37D110F4801FC5
:1032A00037D110F4802F37D110F4003F37D110F40C
:1032B000803F37D110F4004F37D110F4804F37D111
:1032C00010F4005F37D110F0080F37D04FF400032F
:1032D00001E04FF00043184638BD4FF00073FAE7A5
:1032E0004023F8E78023F6E74FF48073F3E74FF4C9
:1032F0000073F0E74FF48063EDE74FF40063EAE713
:103300004FF48053E7E74FF40053E4E74FF4804372
:10331000E1E74FF40043DEE74FF40033DBE74FF41F
:103320008023D8E74FF40023D5E74FF48013D2E78A
:103330004FF40013CFE74FF48003CCE74FF4803312
:10334000C9E700BF60000020D34D621008E0FFFD18
:1033500070B5254B1B68254CA4FB03435C0A41F266
:10336000883303FB04F35C1E9BB3456B234615F0C7
:10337000450FF8D015F4006FF5D1436B13F0040F2F
:1033800006D1436B13F0010305D00122826322E0D2
:10339000042383631FE016460D460446FFF728FF0B
:1033A000A84201D0012316E0C523A36300212046D3
:1033B000FFF721FF10F4604308D010F4804F0CD1C8
:1033C00010F4004F0CD04FF4805304E0000C308018
:1033D00001E04FF00043184670BD4FF40053FAE788
:1033E0004FF48033F7E700BF60000020D34D621038
:1033F0000B6843624B6883628B68CA6813430A692F
:1034000013434A691343C26A22F0F7021343C362AB
:103410000020704730B587B0054601911024029412
:1034200040230393002304934FF48063059301A981
:10343000FFF7CCFE41F2883221462846FFF7DEFE38
:1034400007B030BD30B587B0054601911124029414
:1034500040230393002304934FF48063059301A951
:10346000FFF7B4FE41F2883221462846FFF7C6FE38
:1034700007B030BD30B587B00546019112240294E3
:1034800040230393002304934FF48063059301A921
:10349000FFF79CFE41F2883221462846FFF7AEFE38
:1034A00007B030BD30B587B00546019118240294AD
:1034B00040230393002304934FF48063059301A9F1
:1034C000FFF784FE41F2883221462846FFF796FE38
:1034D00007B030BD30B587B005460191192402947C
:1034E00040230393002304934FF48063059301A9C1
:1034F000FFF76CFE41F2883221462846FFF77EFE38
:1035000007B030BD30B587B00546002301930C24C9
:1035100002944022039204934FF48063059301A91F
:10352000FFF754FE034A21462846FFF767FE07B01F
:1035300030BD00BF00E1F50530B587B0054601920A
:103540000724029440230393002304934FF48063E1
:10355000059301A9FFF73AFE41F288322146284639
:10356000FFF74CFE07B030BD10B586B0044600230F
:1035700001930293039304934FF48063059301A98D
:10358000FFF724FE2046FFF745FD06B010BD10B53D
:1035900086B004464FF4D573019308230293402369
:1035A0000393002304934FF48063059301A9FFF76D
:1035B0000DFE2046FFF7A4FD06B010BD30B587B064
:1035C000054601913724029440230393002304937A
:1035D0004FF48063059301A9FFF7F8FD41F28832AB
:1035E00021462846FFF70AFE07B030BD10B586B069
:1035F000044641F0004141F48011019129230293D6
:1036000040230393002304934FF48063059301A99F
:10361000FFF7DCFD2046FFF749FD06B010BD10B5F1
:1036200086B004460023019302220292C022039234
:1036300004934FF48063059301A9FFF7C7FD20466B
:10364000FFF704FD06B010BD10B586B00446019129
:1036500009230293C0230393002304934FF4806350
:10366000059301A9FFF7B2FD2046FFF7EFFC06B076
:1036700010BD70B586B005460E46002301930324A5
:1036800002944022039204934FF48063059301A9AE
:10369000FFF79CFD324621462846FFF759FE06B04B
:1036A00070BD30B587B0054601910D2402944023CA
:1036B0000393002304934FF48063059301A9FFF75C
:1036C00085FD41F2883221462846FFF797FD07B075
:1036D00030BD0000F8B504460268136923F4405376
:1036E000C1680B4313618368026913434269134342
:1036F000C2691A430168CB6823F4164323F00C0314
:103700001343CB600268536923F4407381690B4310
:103710005361C369B3F5004F37D00368664A9342DB
:1037200000F09B8002F58062934200F09680FEF7E5
:1037300085F806460027001847EB0701801947EB7C
:103740000101CB0043EA5073C2001046194663687A
:103750009A009B0F801947EB0101FCF789FD574D3B
:10376000A5FB00325109642303FB11031B01323313
:10377000A5FB03235B0903F0F00202EB011203F047
:103780000F03216813448B6094E003684A4A934214
:1037900033D002F5806293422FD0FEF74FF80646F1
:1037A0000027001847EB0701801947EB0101CB0008
:1037B00043EA5073C200104619466268002392180B
:1037C0005B41801947EB0101FCF752FD3B4DA5FB26
:1037D00000325109642303FB1103DB003233A5FBE4
:1037E00003235B095A0002F4F87202EB011203F0A2
:1037F0000703216813448B605CE0FEF72FF8064650
:103800000027001847EB0701801947EB0101CB00A7
:1038100043EA5073C20010461946626800239218AA
:103820005B41801947EB0101FCF722FD234DA5FB0D
:1038300000325109642303FB1103DB003233A5FB83
:1038400003235B095A0002F4F87202EB011203F041
:103850000703216813448B602CE0FDF7FFFF064649
:103860000027001847EB0701801947EB0101CB0047
:1038700043EA5073C2001046194663689A009B0FD2
:10388000801947EB0101FCF7F3FC0C4DA5FB00325E
:103890005109642303FB11031B013233A5FB0323EE
:1038A0005B0903F0F00202EB011203F00F03216841
:1038B00013448B60F8BD00BF001001401F85EB5121
:1038C0002DE9F04105460F4616469846069C2B68A2
:1038D0001B6837EA03030CBF01230023B3421DD149
:1038E000B4F1FF3FF3D02CB100F076F9A0EB080063
:1038F000A042ECD92A68D36823F4D073D3602A6835
:10390000536923F001035361202385F8393085F88A
:103910003A30002385F83830032000E00020BDE86D
:10392000F08158B310B5044690F839300BB3242316
:1039300084F839302268D36823F40053D3602046DA
:10394000FFF7C8FE2268136923F4904313612268CD
:10395000536923F02A0353612268D36843F4005368
:10396000D3600020E063202384F8393084F83A30B3
:1039700010BD80F83830FDF7B7F9D8E7012070475F
:103980002DE9F04383B01E4690F83930DBB2202B8E
:1039900056D104460D469046002956D0002A56D0EE
:1039A00090F83830012B54D0012380F838304FF094
:1039B0000009C0F83C90212380F8393000F00CF960
:1039C0000746A4F82480A4F8268084F8389010E0F4
:1039D00000963B46002280212046FFF771FF002819
:1039E00039D12B882268C3F3080353602369C3B914
:1039F0000235E38C9BB2B3B1E38C013B9BB2E38411
:103A0000A368B3F5805FE3D000963B460022802197
:103A10002046FFF755FF00BB15F8012B23685A60BD
:103A2000E7E70135E5E700963B46002240212046C6
:103A3000FFF746FF034690B9202284F8392000E0C2
:103A40000223184603B0BDE8F0830123F9E7012300
:103A5000F7E70223F5E70323F3E70323F1E7032363
:103A6000EFE70000074AD36823F4E0631B041B0C54
:103A7000000200F4E060184340F0BF6040F4003002
:103A8000D060704700ED00E030B4174BDB68C3F343
:103A90000223C3F10704042C28BF04241D1D062D96
:103AA00001D9033B00E000234FF0FF3505FA04F491
:103AB00021EA0401994005FA03F322EA03031943BA
:103AC000002809DB0901C9B200F1604000F561403E
:103AD00080F8001330BC704700F00F000901C9B234
:103AE000024B1954F6E700BF00ED00E014ED00E0D2
:103AF00000F01F02400901239340024A42F820309F
:103B0000704700BF00E100E00138B0F1807F0AD2C9
:103B1000064B5860064AF02182F823100020986076
:103B200007221A6070470120704700BF10E000E0D4
:103B300000ED00E0042805D0054A136823F00403D3
:103B400013607047024A136843F004031360704720
:103B500010E000E0704708B5FFF7FCFF08BD7047B4
:103B600010B5094B4FF0FF321A6200241C625A62F2
:103B70005C621A611C615A615C619A619C61FFF729
:103B8000EEFF204610BD00BF0038024008B50B4BC9
:103B90001A6842F400721A601A6842F480621A606D
:103BA0001A6842F480721A600320FFF75BFF00205E
:103BB000FDF73AF9FCF7FAFF002008BD003C02408F
:103BC000034A1168034B1B780B441360704700BF16
:103BD000483C00200E000020014B1868704700BFD1
:103BE000483C002038B50446FFF7F6FF0546B4F11F
:103BF000FF3F02D0044B1B781C44FFF7EDFF401B36
:103C0000A042FAD338BD00BF0E00002010B5034C0F
:103C10002468E46904B1A04710BD00BF5000002033
:103C200008B5064B1B681B689847054B0020586079
:103C30004FF6FF721A60034A9A6008BD50000020D8
:103C40004C3C00205400002008B5024B1B689B6AC6
:103C5000984708BD5000002008B5024B1B68DB6A7E
:103C6000984708BD50000020014B1860704700BF06
:103C70004C3C002070B582B00646084B1B689C6B1C
:103C8000FFF7E2FF0546FFF7E7FF009603462A46E7
:103C900000210846A04702B070BD00BF50000020C0
:103CA000F8B505460E461446927CE37C02EB0322EF
:103CB000A37DE77D03EB07239BB292B2FFF7A6FF3C
:103CC000094B1B681B6B1BB122463146284698479F
:103CD000FFF7BAFF0446FFF7BFFF03462246002165
:103CE0000846FFF793FFF8BD500000202DE9F04F84
:103CF00083B000900191404B9B68B3F806A0B3F8E5
:103D000004901AFB09F11B3149003C4B598009FB17
:103D10000AF11B31C1F3CF31998036215981A3F8C3
:103D2000129000219982A3F816A0198309F1070BBC
:103D30004FEAEB0B4FEACB085FFA88F85FFA89F39A
:103D4000A8EB03085FFA88F80F468C462BE02A4957
:103D50004968DFF8A8E00EF813100134C1F3072119
:103D60000EF80410013085421BD9A6EB0C03013B71
:103D700003FB05031B335C00291A414401394FF052
:103D8000010E0EFA01F13942E1D01B490968DFF852
:103D90006CE00EF813100134C1F307210EF8041083
:103DA000E0E70CF1010C5646E2451DD90CFB0BF384
:103DB000D1184D46A9F11100072806D8D05C4F78DC
:103DC0003F0247EA004788780743A9F1090007281E
:103DD00003D8D05C4F7847EA002709F1FF31072963
:103DE00000D8D75C0020BEE7044A01990098FFF78D
:103DF00057FF03B0BDE8F08F4C3C0020E8000020E6
:103E000038B5084B9B681C68A2F12005DA8802FBD4
:103E100005F29B880733DB1003FB0242FFF766FFC6
:103E200038BD00BF4C3C00202DE9F04105460E4650
:103E3000144698461346002713F8012B0AB10137A0
:103E4000FAE7FFF701FF204B9B689B88B0FBF3F07C
:103E500080B2B8F1010F04D0B8F1020F09D00027E9
:103E60001BE0C01B03FB00F0C0F34F000544ADB2E4
:103E7000F5E7C01B10FB03F39BB25D1BADB2EEE791
:103E800014F8012B31462846FFF7BAFF0E4B9B680A
:103E90009B881D44ADB20137BFB294F80080FFF794
:103EA000D3FE094B9B689B8803FB170080B28342BB
:103EB000CCBF00230123B8F1000F08BF0023002B63
:103EC000DED1BDE8F08100BF4C3C00204FF4F07023
:103ED00070474FF4A070704710B5404B1B7813F03B
:103EE000010F0BD143F001033C4A137013F0020F92
:103EF00071D03A4A137843F002031370692000F03E
:103F00000CFA012000F032FA052000F006FA344CD9
:103F10000F222146E02000F045FA0F2204F11001A3
:103F2000E12000F03FFA02222E49C02000F03AFAC8
:103F3000052000F0F2F9C12000F018FA412000F04D
:103F400019FA052000F0E9F9032204F12001C52047
:103F500000F028FA052000F0E0F93A2000F006FA17
:103F6000552000F007FAB02000F000FA802000F0A1
:103F700001FAB12000F0FAF9A02000F0FBF9B4201A
:103F800000F0F4F9022000F0F5F902221649B620FB
:103F900000F008FAE92000F0E9F9002000F0EAF961
:103FA00004221249F72000F0FDF9052000F0B5F9D0
:103FB000112000F0DBF9782000F0AFF9292000F0A3
:103FC000D5F9052000F0A9F9362000F0CFF9282016
:103FD00000F0D0F910BD00F0B1F98AE74E040020DE
:103FE00050770008047A0008087A00080C7A000864
:103FF00070B505460C462A2000F0B8F92E0A304666
:1040000000F0B8F9EDB2284600F0B4F9304600F0FF
:10401000B1F9284600F0AEF92B2000F0A7F9250AE7
:10402000284600F0A7F9E4B2204600F0A3F928469C
:1040300000F0A0F9204600F09DF970BD2DE9F04197
:1040400004460E4690461F462A2000F08FF9200AAB
:1040500000F090F9E5B2284600F08CF904EB080076
:104060000138C0F3072000F085F905EB0800C0B265
:104070000138C0B200F07EF92B2000F077F9300A49
:1040800000F078F9F4B2204600F074F9F019013824
:10409000C0F3072000F06EF9E019C0B20138C0B2D9
:1040A00000F068F9BDE8F08108B5112000F05EF974
:1040B000012000F037F908BD08B5102000F056F9CE
:1040C000002000F02FF908BD00B583B00023019354
:1040D0000B4B1B786BB10123032201A9042000F0D4
:1040E0007DF9019A074B9A4206D0002003B05DF893
:1040F00004FBFFF7F1FEEEE749F28840F6E700BF68
:104100004E04002054806600F8B505460C4617465C
:104110002A2000F02BF92E0A304600F02BF9EDB2E0
:10412000284600F027F9304600F024F9284600F030
:1041300021F92B2000F01AF9250A284600F01AF977
:10414000E4B2204600F016F9284600F013F92046A4
:1041500000F010F92C2000F009F9384600F010F9B1
:10416000F8BD70B582B005460C462A2000F0FEF876
:104170002E0A304600F0FEF8EDB2284600F0FAF8BC
:10418000304600F0F7F8284600F0F4F82B2000F055
:10419000EDF8250A284600F0EDF8E4B2204600F0DC
:1041A000E9F8284600F0E6F8204600F0E3F801239D
:1041B0001A460DF106012E2000F028F9BDF8060080
:1041C00002B070BD10B503FB02F4FFF737FF012307
:1041D000224602992E2000F019F910BD2DE9F04178
:1041E00080460D4616461F462A2000F0BFF8280AD2
:1041F00000F0C0F8ECB2204600F0BCF8E819013835
:10420000C0F3072000F0B6F8E019C0B20138C0B220
:1042100000F0B0F82B2000F0A9F8340A204600F096
:10422000A9F8F6B2304600F0A5F8204600F0A2F852
:10423000304600F09FF83A4641462C2000F0A6F8A0
:10424000BDE8F0812DE9F04107460C4615461E46B3
:104250002A2000F08BF84FEA1428404600F08AF834
:10426000E4B2204600F086F8404600F083F820468D
:1042700000F080F82B2000F079F8280A00F07AF896
:10428000ECB2204600F076F8A8190138C0F30720F8
:1042900000F070F8A019C0B20138C0B200F06AF89E
:1042A000324639462C2000F071F8BDE8F08138B56F
:1042B00014461D46FFF7C2FE05FB04F2BDF81010C0
:1042C0002C2000F063F838BD38B55588938845EA4E
:1042D00003455489938944EA03442D1B6D08144413
:1042E000362000F043F8682000F044F82A462146C2
:1042F0002C2000F065F8362000F038F8282000F077
:1043000039F838BD10B503FB02F4FFF797FE2246DB
:1043100002992C2000F054F810BD08B5FFF762FC9C
:1043200008BD000018B1044B01221A607047024B0F
:1043300000221A60704700BF8402404208B5094A53
:10434000136B43F0010313630120074B1860A2F5C0
:104350006052136823F00C0343F004031360FFF76B
:10436000DCFF08BD00380240840240424FF0C043E9
:1043700018807047014B1880704700BFFEFF076030
:10438000014B1880704700BFFEFF07604FF0C0432D
:104390001880531E1AB1024A11801A46F9E7704775
:1043A000FEFF07604FF0C0431880531E2AB111F87A
:1043B000010B024A10801A46F7E77047FEFF0760BC
:1043C0004FF0C0431880531E2AB131F8020B024A45
:1043D00010801A46F7E77047FEFF076010B44FF0F1
:1043E000C0442080581E43B1074B1B880346F9E7A1
:1043F000054A128801F8012B1A46531E002AF7D1EC
:104400005DF8044B704700BFFEFF076010B44FF02B
:10441000C044208043B107480088013BFAE7054AC1
:10442000128821F8022B1A46531E002AF7D15DF894
:10443000044B7047FEFF076010B514464FF0FF3382
:1044400092B20248FFF79CFA204610BD6419002082
:1044500008B50949094800F025F9094B187030B929
:10446000084802F07BF9084802F078F908BD0146D7
:10447000064802F073F9F6E7A4190020707D0008E1
:104480007A0800200C7D0008487D0008247D000883
:104490000020704700B583B0009313460A460146DA
:1044A0000748FEF761F8034618B9184603B05DF8EF
:1044B00004FB0121034802F051F90123F5E700BF95
:1044C000281A0020507D000800B583B000931346E1
:1044D0000A4601460448FEF77BF9034600B1012372
:1044E000184603B05DF804FB281A002008B50348FD
:1044F000FEF749FC043818BF012008BD281A002027
:1045000008B501460148FEF72CFC08BD281A00201A
:10451000704708B5FFF7FCFF08BD704708B5FFF707
:10452000FCFF08BD704708B5FFF7FCFF08BD82B06F
:1045300001238DF807309DF8070002B07047000096
:1045400008B5FFF7F4FF012801D0012008BD02489B
:10455000FEF7E8FBFAE700BF281A002008B5074B72
:1045600001221A70FFF7C2FF20B9044A137803F042
:10457000FE031370014B187808BD00BF5C000020DB
:1045800010B50446084B01221A70FFF7D9FF38B95D
:104590002046FFF7E3FF044B1870034B187810BD5B
:1045A000024802F0DBF8F8E75C000020847D000898
:1045B00008B5FFF7D3FF08BD08B5084611461A46EF
:1045C0004FF0FF33FFF766FF28B9FFF78FFF034671
:1045D0000028FAD100E00123184608BD08B50846B6
:1045E00011461A464FF0FF33FFF76EFF28B9FFF769
:1045F0007DFF03460028FAD100E00123184608BDDC
:1046000030B589B0134B187810F001051BD1144652
:1046100003291CD8DFE801F002040A100D4613E05C
:104620006846FFF76DFF069B23600DE06846FFF7C5
:1046300067FF079B238007E06846FFF761FF079B42
:104640005B0A236000E00325284609B030BD04253D
:10465000FAE700BF5C000020114B5B7AEBB970B445
:10466000064603F0FF000E4B5C7AE4B200251D55B0
:104670005C7A03EB840466605C7A1C4422725A7A8A
:10468000D2B2541CE4B25C7230320A703A234B70DE
:104690002F238B70CD7070BC70470120704700BF16
:1046A0005004002008B50022FFF7D6FF08BD42786D
:1046B000007840EA02207047C278837843EA0222F9
:1046C000437843EA0223007840EA032070470170F0
:1046D000090A417070470170C1F307234370C1F3A9
:1046E00007438370090EC170704713462AB111F851
:1046F000012B00F8012B013BF9D1704700F8011B99
:10470000013AFBD1704710B410F8013B11F8014B8E
:104710001B1B013A01D0002BF6D018465DF8044B64
:10472000704703781BB18B4201D00130F9E718467E
:104730007047000030B400252B4601E0012501330D
:10474000042B15D81A01174CA258002AF6D0046879
:10475000A242F4D1134A02EB0312546882689442D5
:10476000EDD1104A02EB0312946842699442E6D1FB
:10477000052B0AD0A1B90B4A02EB03139B89B3F5B1
:10478000807F0BD0002030BC70472DB9022901D0AA
:104790001220F8E70020F6E70020F4E71020F2E707
:1047A0001020F0E7600400200020042805D8030151
:1047B000044AD3580BB10130F7E7053818BF012080
:1047C000704700BF6004002070B4002300E0013394
:1047D000042B13D81A01244CA45802689442F6D131
:1047E000214A02EB0312546882689442EFD11E4AB8
:1047F00002EB0312946842699442E8D1052B29D058
:1048000021B1194A02EB0312928952BB21BB164A0D
:1048100002EB03129189013189B2134A02EB0312B0
:104820009181581C70BC70470133042B04D81A01C5
:104830000D4CA258002AF7D1052B10D006680A4D5E
:104840001C012A192E518468546040699060002030
:104850009081D5E70023E8E74FF48071DDE7002081
:10486000E0E70020DEE700BF6004002001380428F4
:1048700015D80D4B03EB00139B89B3F5807F03D054
:104880001BB1013B9BB200E00023074A02EB001280
:10489000938133B903010020034AD05070470220AE
:1048A00070470020704700BF60040020002303E031
:1048B0005DF8044B70470133042B11D81A010949E4
:1048C0008A588242F7D110B41A0100248C50013367
:1048D000042BEDD81A0103498A588242F7D1F3E735
:1048E000704700BF600400200239C369023B8B425D
:1048F00004D94389006B01FB030070470020704717
:1049000010B40468C26A0432A389B1FBF3F163896D
:10491000B1FBF3F1106830B1814202D3091A0832B9
:10492000F8E7506808445DF8044B704770B50646D8
:104930000D4601F11A00FFF7BAFE3378032B00D0C1
:1049400070BD044605F11400FFF7B1FE44EA0040D3
:10495000F6E770B506460C46154691B204F11A000A
:10496000FFF7B5FE3378032B00D070BD290C04F19E
:104970001400FFF7ACFEF8E72DE9F84380460F4638
:1049800091464B730F23CB7200240C73214607F121
:104990001A00FFF79CFE09F1FF3606EB460306EB13
:1049A0008306254602E001340C2C11D84FF6FF7324
:1049B0009D4202D038F8165001360C4B185D29463E
:1049C0003844FFF784FE002DEDD14FF6FF75EAE77E
:1049D0004FF6FF739D4202D038F816300BB949F0FC
:1049E000400987F80090BDE8F88300BF147E0008F6
:1049F00070B582B0054616461C460B22FFF775FEC1
:104A0000052C11D807231FE001320F2A0CD803F020
:104A1000010101EB44045B0814F4803FF4D084F4FA
:104A2000883484F02104EFE73388002BEAD0023683
:104A30000022EAE75A1E02A8034403F8081C2109D1
:104A40000F2C0AD913460C4604F00F0202F1300174
:104A50003929EFD902F13701ECE77E2103461344EF
:104A600003F8081C002300E00133934209D2E95CFB
:104A70002029F9D105E02020591CE854072908D83D
:104A80000B46072AF7D802A9114411F8080C013285
:104A9000F2E702B070BD0B210022D30143EA5203BA
:104AA00010F8012B52FA83F3DAB20139F5D110462E
:104AB0007047016839B10A4613781F2B06D93A2B83
:104AC00004D00132F8E74FF0FF3302E03A2B02D076
:104AD00000231846704710B411F8013B303B092BF6
:104AE00008D88A4202D04FF0FF3305E043B90132C3
:104AF000026001E04FF0FF3318465DF8044B704749
:104B00004FF0FF33F8E738B50D46044698B1036817
:104B10009BB11A78A2B18188DA88914203D009202A
:104B200000242C6038BD587801F044FB10F00100DF
:104B300009D12468F5E70920F3E71C460920F0E7CE
:104B400009200024EDE709200024EAE72DE9F041DF
:104B5000C57815B92846BDE8F0810446466B00F1DA
:104B60003808012332464146407801F04FFB0546A4
:104B700098B90023E370A36AF31A226A9342E9D238
:104B8000A778012FE6D9236A1E4401233246414605
:104B9000607801F03BFB013FF3E70125DAE770B5F0
:104BA000436B8B4202D10026304670BD04460D4651
:104BB000FFF7CCFF06460028F6D101232A4604F170
:104BC0003801607801F016FB10B101264FF0FF3577
:104BD0006563E9E738B504460023C3704FF0FF333F
:104BE0004363FFF7DCFF30BB054604F23620FFF7D6
:104BF0005EFD4AF6552398421FD194F83830E92BD0
:104C000007D0A36B03F0FF130D4A934201D0022596
:104C100014E004F16E00FFF74FFD20F07F40094BD8
:104C200098420BD004F18A00FFF746FD064B9842EC
:104C300004D0022502E0042500E00325284638BD03
:104C4000EB00900046415400464154332DE9F04FAB
:104C500087B00D46174600230B60FFF72AFF061E9C
:104C6000C0F26881C74B53F82640002C00F06781E2
:104C70002C6007F0FE07237873B1607801F09AFA90
:104C800010F0010508D1002F00F0558110F0040F3D
:104C900000F051810A254EE100232370F0B26070CC
:104CA00001F094FA10F0010F40F04B811FB110F0A9
:104CB000040F40F0488104F10C020221607801F0F9
:104CC000B1FA0546002840F04081A289A2F50073A0
:104CD0009BB2B3F5606F00F23A81531E1A4201D0C5
:104CE000012528E100212046FFF774FF022800F08B
:104CF000C3800026042800F02C81012800F22B81BB
:104D000004F14300FFF7D3FCA789B84240F02581A6
:104D100004F14E00FFF7CBFC814620B904F15C00A2
:104D2000FFF7CAFC8146C4F8209094F84820A2708E
:104D3000531EDBB2012B00F2128109FB02F3009338
:104D400094F84580A4F80A80B8F1000F00F00981BA
:104D500008F1FF3318EA030F40F0058104F1490020
:104D6000FFF7A5FC824620814FEA571BB0FBFBF3FF
:104D70000BFB13039BB2002B40F0F78004F14B00B8
:104D8000FFF795FC019020B904F15800FFF794FC5F
:104D9000019004F14600FFF78AFC0146002800F06C
:104DA000E680009BC318BAFBFBFB5B44019A9A4266
:104DB000C0F0DF80D21AB2FBF8F04245C0F0DB80D1
:104DC0004FF6F57290426FD94FF0030B40F6F57233
:104DD000904201D84FF0010B00F10208C4F81C808A
:104DE00066628A19A26233442363BBF1030F5ED06B
:104DF000BAF1000F00F0D080009B1A44E262BBF1D0
:104E0000020F65D008EB480208F0010303EB5203E0
:104E10003B44013BB3FBF7F74F4500F2BF804FF037
:104E2000FF33A361636180232371BBF1030F52D071
:104E300084F800B0544A138801339BB21380E38096
:104E4000524B23612046FFF731FD74E0002006AB92
:104E500003EB860343F8100C0136032E0ED804F141
:104E60003800330103F5DF7318440379002BEDD0CC
:104E70000830FFF721FCEAE70026EEE700270AE00A
:104E800031462046FFF7A6FE01287FF633AF0137F3
:104E9000032F3FF62FAF06AB03EB870353F8106CDD
:104EA000002EEDD10320F2E74FF0020B8EE704F164
:104EB0006200FFF7FCFB00285FD1BAF1000F5ED162
:104EC00004F16400FFF7F8FBE0624FEA88039FE714
:104ED0004FEA48039CE704F16800FFF7E8FB01286C
:104EE000A6D1711C2046FFF75AFE0028A0D100234E
:104EF000237104F23620FFF7DAFB4AF65523984275
:104F000096D104F13800FFF7D7FB214B98428FD19F
:104F100004F50770FFF7D0FB1E4B984288D104F5CB
:104F20000870FFF7C9FBA06104F50970FFF7C4FB27
:104F300060617DE70B25284607B0BDE8F08F0C25A2
:104F4000F9E70325F7E70A25F5E70125F3E701254A
:104F5000F1E70125EFE70D25EDE70D25EBE70D2541
:104F6000E9E70D25E7E70D25E5E70D25E3E70D2545
:104F7000E1E70D25DFE70D25DDE70D25DBE70D2555
:104F8000D9E700BF5C040020B0040020B404002076
:104F900052526141727241610D25CCE70D25CAE77D
:104FA0002DE9F047012940F29680C3698B4240F217
:104FB000948017460E4604460378022B4FD0032BED
:104FC00067D0012B03D002252846BDE8F08701EB0E
:104FD0005108816A8389B8FBF3F31944FFF7DFFDB9
:104FE00005460028F0D104F1380908F1010AA28928
:104FF000B8FBF2F302FB138816F0010624D019F96E
:10500000083003F00F033A0102F47F621343DBB26E
:1050100009F808300123E370A16AA389BAFBF3F30E
:1050200019442046FFF7BBFD05460028CCD1A289D4
:10503000BAFBF2F302FB13AA46B1C7F3071209F851
:105040000A200123E370BFE7FBB2E1E719F90A2068
:1050500022F00F02C7F303273A43D2B2EFE7816A87
:1050600083895B08B6FBF3F31944FFF798FD054607
:105070000028A9D104F138007600A289B6FBF2F32A
:1050800002FB1366B9B23044FFF721FB0123E37042
:105090009AE7816A83899B08B6FBF3F31944FFF70B
:1050A0007EFD054600288FD127F0704704F13803B4
:1050B000B100A289B1FBF2F602FB16161E4430467F
:1050C000FFF7FAFA00F0704139433046FFF703FB6F
:1050D0000123E37078E7022576E7022574E7F8B547
:1050E000066801296CD9F3698B426BD90C46337879
:1050F000022B37D0032B4BD0012B01D0012060E0D5
:1051000001EB5105B16AB389B5FBF3F3194430469D
:10511000FFF745FD10B14FF0FF3052E06F1CB3892F
:10512000B5FBF3F203FB1255354495F83850B16ADC
:10513000B7FBF3F319443046FFF731FD002843D1A4
:10514000B289B7FBF2F302FB13773E4496F83800BE
:1051500045EA002014F0010F01D0000931E0C0F34E
:105160000B002EE0B16AB3895B08B4FBF3F319447A
:105170003046FFF714FD50BB06F138006100B289DC
:10518000B1FBF2F302FB13110844FFF790FA18E0A9
:10519000B16AB3899B08B4FBF3F319443046FFF7B7
:1051A000FEFCB8B906F13800A100B389B1FBF3F4F5
:1051B00003FB14110844FFF77FFA20F0704000E071
:1051C0000120F8BD0120FCE74FF0FF30F9E74FF078
:1051D000FF30F6E74FF0FF30F3E72DE9F041D0F86C
:1051E0000080B1F5001F4CD206460D4611F01F0F8E
:1051F00049D1716184682CB998F80030022B01D92B
:10520000D8F82C40ECB9B8F80830B3EB551F3CD9AE
:10521000D8F82C30F361B461F369E3B3B8F80C202B
:10522000B5FBF2F21344F36108F13803B8F80C103F
:10523000B5FBF1F201FB12551D4435620020BDE8BB
:10524000F081B8F80A30B8F80C7007FB03F700E0FB
:10525000ED1BBD420FD321463046FFF740FF044609
:10526000B0F1FF3F13D0012813D9D8F81C30834286
:10527000EED80220E3E721464046FFF735FBF06118
:10528000C9E70220DBE70220D9E70220D7E70120A7
:10529000D5E70220D3E70220D1E72DE9F041074608
:1052A0000668884631B975698DB1F369AB420FD88C
:1052B00001250DE0FFF713FF0346012847D9B0F1A0
:1052C000FF3F49D0F269824246D8454600E00125B9
:1052D0002C460CE021463846FFF701FF034670B12B
:1052E000012839D0B0F1FF3F36D0AC4233D0013481
:1052F000F369A342EED8012D2BD90224EAE74FF03F
:10530000FF3221463046FFF74BFE034610B9B8F195
:10531000000F0ED1A3B97461B269F369023B9A42DE
:1053200001D8013AB261337943F001033371234666
:1053300012E0224641463046FFF732FE0346E9E7D7
:10534000012B01D0012307E04FF0FF3304E00123DC
:1053500002E0002300E000231846BDE8F081F8B524
:105360000E46056801292ED907461146EB69B3425E
:105370002CD952B14FF0FF322846FFF711FE844678
:1053800018B125E02646A24222D931463846FFF719
:10539000A6FE0446F0B101281FD0B0F1FF3F1FD098
:1053A000002231462846FFF7FBFD844680B9AB69F1
:1053B000EA69911E8B42E5D20133AB612B7943F050
:1053C00001032B71DEE74FF0020C01E04FF0020CFD
:1053D0006046F8BD4FF0000CFAE74FF0020CF7E71B
:1053E0004FF0010CF4E72DE9F84306684569C369FD
:1053F000002B74D02035B5F5001F72D20F4604463D
:10540000B189B5FBF1F201FB12523AB90133C36124
:105410008169A1B93389B3EB551F0CD9656106F1D8
:105420003803B189B5FBF1F201FB12551D44256229
:105430000020BDE8F8830023C3610420F9E7B289A6
:10544000B5FBF2F27389013B12EA0308E6D1FFF7DC
:1054500046FE8146012846D9B0F1FF3F45D0F369A9
:10546000834234D88FB1A1692046FFF716FF8146E9
:1054700000283CD001283CD0B0F1FF3F3BD0304663
:10548000FFF764FB28B10120D3E70023E361042088
:10549000CFE7B289002106F13800FFF72FF949461E
:1054A0003046FFF721FA7063738998450BD20123C8
:1054B000F3703046FFF74AFBF8B908F10108736B47
:1054C00001337363F0E7736BA3EB08037363C4F8F2
:1054D000189049463046FFF707FAE0619EE704203E
:1054E000A7E70420A5E70220A3E70120A1E7072002
:1054F0009FE702209DE701209BE7012099E7F8B58F
:1055000004460F4606680021FFF767FE0246C0B951
:10551000002508E00135BD4213D001212046FFF7E8
:1055200062FF024668B9E1693046FFF738FB024680
:1055300038B9236A1B78E52BECD0002BEAD0002584
:10554000EBE7042A01D01046F8BD0722FBE7000074
:1055500070B50446FFF7FAFA054648B92378032BDD
:1055600008D000221146607800F05CFE00B10125F1
:10557000284670BD2379012BF3D104F13806A289A6
:1055800000213046FFF7BAF84AF6552104F23620DA
:10559000FFF79DF80E493046FFF79DF80D4904F5D9
:1055A0000770FFF798F8A16904F50870FFF793F802
:1055B000616904F50970FFF78EF8626A013262636F
:1055C00001233146607800F021FE00232371C8E7F3
:1055D00052526141727241612DE9F04F83B08146B0
:1055E0008A46D1F8008003681D69002410E0013666
:1055F00018F806302F2BFAD05C2BF8D04644CAF8A6
:1056000000601F2821D8042722E025F814703446B2
:10561000661C18F804001F28F0D92F28E8D05C2851
:10562000E6D0FE2C00F2DE80012100F007FE0746E6
:10563000002800F0D9807F28E7D801466C48FFF7A2
:1056400070F80028E1D0062084E0002700E0013C4B
:1056500044B104F10043013B35F81330202BF6D060
:105660002E2BF4D0002325F81430002C00F0BE803F
:105670000B22202109F12400FFF740F8002300E06D
:10568000013335F81320202AFAD02E2AF8D01BB186
:1056900047F0030700E0013C6CB104F10042013A1D
:1056A00035F812202E2AF6D14FF0080B4FF0000AE1
:1056B000CDF804A00AE0A2464FF0080B00220192A8
:1056C00004E044450BD047F00307434603F10108CB
:1056D00035F81360FEB1202EF5D02E2EF1D0DA452C
:1056E00010D244450ED07F2E44D8002E4FD147F023
:1056F00003075F2609EB0A0383F8246043460AF197
:10570000010AE3E7BBF10B0F27D0444501D047F076
:105710000307444524D299F82430E52B53D0BBF13C
:10572000080F54D0019B03F00C020C2A03D003F0A5
:105730000303032B01D147F0020717F0020F06D134
:10574000019B03F00303012B46D0042A47D089F8BC
:105750002F70002003B0BDE8F08F47F00307DAE7B1
:10576000019B9B00DBB2019323464FF00B0B4FF0E4
:10577000080AABE70021304600F060FD064618B18C
:10578000A0F180061B4B9E5D47F00207ADE7314656
:105790001948FEF7C6FF0028A9D1A6F141039BB224
:1057A000192B04D8019B43F002030193A2E7A6F151
:1057B00061039BB2192B9DD8019B43F00103019318
:1057C000203EB6B296E7052389F82430A7E7019B6F
:1057D0009B00DBB20193A5E747F01007B5E747F060
:1057E0000807B4E70620B5E70620B3E70620B1E7CF
:1057F000247E0008947D0008307E00082DE9F041E9
:10580000D0F8008000238B75C369002B69D00D464A
:105810000646036BB3F1FF3F14D00024D8F81030D4
:10582000671C33F8140050B1002100F007FD28B1C7
:10583000FE2C0BD82C44A0753C46EFE700242C44EA
:105840000023A375AC7D0022134612E00024F6E786
:10585000E52317E014B9A8182E278775A8182E2756
:105860004772013210E010201CE0A8188375013245
:105870000B460A2B1BD8306A591CC35C202BF7D06F
:10588000052BE5D00929E5D0A8184372002CEED1EC
:10589000A3F14100C0B21928E7D8306A077B082974
:1058A000E1D808200742E0D02033DBB2DDE734B98D
:1058B000AB1800219975336A1B7B03B90A462A4449
:1058C00000235372336ADB7A2B72306A1C30FEF786
:1058D000F3FE2860306A1630FEF7EEFEE880000C1A
:1058E000A880BDE8F08100002DE9F0478146884698
:1058F00001F11A00FEF7DBFEB8BB98F8005005F086
:105900003F05013D05EB450305EB83050127002419
:1059100006E000202AE04FF6FF73984228D10134B8
:105920000C2C17D8164B185D4044FEF7C0FE0646F7
:10593000002FF0D0FE2DECD800F09EFC074605F1BC
:10594000010A39F8150000F097FC8742E1D137468B
:105950005546E4E798F8003013F0400F0AD05FB1E5
:1059600039F8153053B9012000E00020BDE8F08778
:105970000020FBE70120F9E70120F7E70020F5E729
:10598000147E00082DE9F8430446D0F80080002179
:10599000FFF723FC0646002864D14FF0FF33236352
:1059A0004FF0FF094F460AE04FF0FF332363FF2714
:1059B00000212046FFF717FD0646002852D1E16975
:1059C0004046FFF7ECF8064600284BD1256A2B78B5
:1059D000002B46D0E97A01F03F02A271E52BE3D01B
:1059E00011F0080F01D00F2ADED10F2A16D027B9E7
:1059F0002846FFF750F8484534D094F82F3013F07C
:105A0000010F06D10B2204F124012846FEF77BFE8C
:105A100040B34FF0FF332363FF27C9E794F82F20EB
:105A200012F0400FC4D113F0400F06D095F80D903E
:105A300003F0BF03626922631F46BB4201D0FF2708
:105A4000B6E76B7B4B4501D0FF27B1E72946D8F875
:105A50001000FFF749FF10B1013FFFB2A8E7FF2791
:105A6000A6E704263046BDE8F88330B583B0044687
:105A70000191056801E001330193019B1A782F2AF7
:105A8000F9D05C2AF7D00022A2601B781F2B1ED809
:105A9000802384F82F3011462046FFF79EFB0346F3
:105AA000184603B030BD0428FAD112F0040FF7D124
:105AB0000523F5E705F138016069AA89B0FBF2F327
:105AC00002FB130319442846FEF730FFA06001A92A
:105AD0002046FFF781FD03460028E1D12046FFF76D
