:020000040800F2
:1000000000000220A13A0008291D00082B1D00084D
:100010002D1D00082F1D0008311D000800000000E4
:10002000000000000000000000000000331D000878
:10003000351D000800000000371D0008391D0008AC
:10004000F13A0008F13A0008F13A0008F13A0008E4
:10005000F13A0008F13A0008F13A0008F13A0008D4
:10006000F13A0008F13A0008F13A0008F13A0008C4
:10007000F13A0008F13A0008F13A0008F13A0008B4
:10008000F13A0008F13A0008F13A0008F13A0008A4
:10009000F13A0008F13A0008F13A0008F13A000894
:1000A000F13A0008F13A0008F13A0008F13A000884
:1000B000F13A0008F13A0008F13A0008F13A000874
:1000C000F13A0008F13A0008F13A0008F13A000864
:1000D000F13A0008F13A0008F13A0008F13A000854
:1000E000F13A0008F13A0008F13A0008F13A000844
:1000F000F13A0008F13A0008F13A0008F13A000834
:10010000F13A0008F13A0008F13A0008F13A000823
:10011000F13A0008F13A0008411D0008F13A0008E0
:10012000F13A0008F13A0008F13A0008F13A000803
:10013000F13A0008F13A0008F13A0008F13A0008F3
:10014000F13A0008F13A0008F13A0008F13A0008E3
:10015000F13A0008F13A0008F13A0008F13A0008D3
:10016000F13A0008F13A0008F13A0008F13A0008C3
:10017000F13A0008F13A0008F13A000800000000E6
:08018000F13A0008F13A000811
:1001900010B5054C237833B9044B13B10448AFF3C1
:1001A00000800123237010BDE80000200000000043
:1001B000984C000808B5034B1BB103490348AFF343
:1001C000008008BD00000000EC000020984C0008F2
:1001D00001F0FF01102A2BDB10F0070F08D010F8F8
:1001E000013B013A8B422DD010F0070F42B3F6D1FC
:1001F000F0B441EA012141EA014122F007047FF015
:1002000000070023F0E80256083C85EA010586EA6B
:10021000010685FA47F5A3FA87F586FA47F6A5FAA7
:1002200087F68EB9EED1F0BC01F0FF0102F00702B3
:1002300032B110F8013B013A83EA010313B1F8D15E
:100240000020704701387047002D06BF354603383F
:10025000073815F0010F07D1013015F4807F02BF78
:10026000013015F4C03F0130F0BC0138704700BFC9
:1002700053B94AB9002908BF00281CBF4FF0FF310D
:100280004FF0FF3000F074B9ADF1080C6DE904CE09
:1002900000F006F8DDF804E0DDE9022304B0704761
:1002A0002DE9F047089E04468846002B40F08580E3
:1002B0008A42154648D9B2FA82F24AB1C2F1200701
:1002C00001FA02F320FA07F7954047EA0308944041
:1002D0004FEA154E230CB8FBFEF71FFA85FC0EFB08
:1002E000178843EA084307FB0CF1994209D9EB1838
:1002F00007F1FF3080F0E380994240F2E080023F56
:100300002B445B1AA4B2B3FBFEF00EFB103344EA9D
:10031000034400FB0CFCA44509D92C1900F1FF3360
:1003200080F0CB80A44540F2C88002382C4440EADB
:100330000740A4EB0C0400271EB1D4400023C6E9FB
:1003400000433946BDE8F087002A53D0B2FA82F262
:10035000002A40F0B680491B4FEA154E1FFA85F877
:100360000127B1FBFEFC230C0EFB1C1143EA0143E9
:1003700008FB0CF1994207D9EB180CF1FF3002D2BF
:10038000994200F2EC808446591AA3B2B1FBFEF008
:100390000EFB101443EA044408FB00F8A04507D9FB
:1003A0002C1900F1FF3302D2A04500F2DC80184680
:1003B000A4EB080440EA0C40BEE78B4208D9002EAB
:1003C00078D00027C6E9000138463946BDE8F087F5
:1003D000B3FA83F77FB98B4202D3824200F2BD8029
:1003E000841A61EB030301209846002EA9D0C6E9C8
:1003F0000048A6E7FFDEC7F12005BB4022FA05FC56
:100400004CEA030C01FA07F420FA05F821FA05F387
:100410004FEA1C4E48EA0404B3FBFEF9210C0EFB24
:1004200019331FFA8CF841EA034309FB08FA9A458D
:1004300002FA07F200FA07F10BD91CEB030309F1EA
:10044000FF3080F088809A4540F28580A9F102094A
:100450006344A3EB0A03A4B2B3FBFEF00EFB10331C
:1004600044EA034400FB08F8A04508D91CEB040447
:1004700000F1FF336BD2A04569D90238644440EAE9
:100480000940A4EB0804A0FB02894C45C6464B4634
:1004900054D351D0002E69D0B1EB0E0264EB0304AB
:1004A00004FA05F522FA07F3FC401D43C6E900549F
:1004B000002746E73746304643E7184637E7074602
:1004C0001FE7C2F1200320FA03F7954001FA02F07A
:1004D00021FA03F34FEA154E3843010CB3FBFEF744
:1004E0001FFA85F80EFB173341EA034107FB08F3B7
:1004F0008B4204FA02F407D9691807F1FF3C28D2AD
:100500008B4226D9023F2944CB1A81B2B3FBFEF0BD
:100510000EFB103341EA034100FB08F38B4207D97D
:10052000691800F1FF3C10D28B420ED902382944E1
:10053000C91A40EA074714E74145ABD2B8EB020EAF
:1005400069EB0C0201381346A4E76046F0E7184651
:1005500095E76746D8E781467BE7384645E7ACF143
:10056000020C2B4410E702382C4421E73746E8E61A
:10057000704700BF30B58DB000220192274B196B38
:1005800041F004011963196B01F004010191019913
:100590000292196B41F080011963196B01F080011F
:1005A000029102990392196B41F010011963196BC2
:1005B00001F01001039103990492196B41F00801B5
:1005C0001963196B01F00801049104990592196BE4
:1005D00041F001011963196B01F0010105910599C1
:1005E0000692196B41F0020119631B6B03F00203C1
:1005F0000693069B0B920223079308930124099408
:1006000003230A93064D07A9284602F0B5FA2246AD
:100610002146284602F094FB0DB030BD0038024060
:100620000000024008B50268034B9A4200D008BDA2
:1006300002F04AFDFBE700BF00100040FEE70000AB
:1006400008B50B480B4B03604FF4E13343600023C4
:100650008360C36003610C2242618361C36102F065
:100660006BFC00B908BDD6210348FFF7E7FF00BFC8
:100670004405002000100140DC4C000808B50B4880
:100680000B4B03604FF4E133436000238360C3608E
:1006900003610C2242618361C36102F04DFC00B929
:1006A00008BDEF210348FFF7C9FF00BFB4040020D5
:1006B00000480040DC4C000808B50B480B4B0360B9
:1006C0004FF4E133436000238360C36003610C2275
:1006D00042618361C36102F02FFC00B908BD4FF491
:1006E00084710348FFF7AAFFA4050020001401400D
:1006F000DC4C000800B589B018484FF02043036077
:1007000003F58273436000228260C260026142612D
:100710008261C261026242624FF480538362C262AC
:100720000263426382634264052301930F230293B1
:1007300008230393012304931023059311230693A5
:10074000079201A901F0D2FC10B909B05DF804FBD1
:1007500040F24B110248FFF771FF00BFF404002084
:10076000DC4C000800B599B000210191314B1A6CA6
:1007700042F080521A641B6C03F080530193019B7A
:1007800002912D4B1A6842F480421A601B6803F4F0
:1007900080430293029B01230C934FF480330D930B
:1007A000022312934FF48002139204221492A8227F
:1007B00015921693072317930CA801F00BFE68BB44
:1007C0000F23079302230893002309934FF4A053A8
:1007D0000A934FF480530B93052107A802F030F8D9
:1007E00000BB022303934FF40073069303A802F0A7
:1007F00019F9D8B902F0D2F8104BA3FB00308009E8
:1008000002F01CFC042002F02FFC002211464FF0E5
:10081000FF3002F0D3FB19B05DF804FB8B210848D0
:10082000FFF70CFF99210648FFF708FFA1210448B4
:10083000FFF704FF0038024000700040D34D621003
:10084000DC4C000808B502F025FCFFF78BFFFFF732
:1008500091FEFFF7F5FEFFF711FFFFF72DFF0748A9
:1008600001F0F8FAFFF746FF054803F0DDF901F063
:1008700055FA044803F0D8F9FBE700BF440500200F
:10088000E84C0008084D000808B502F029FC154B9B
:100890001860154B1B680BBB134A01211160134AEA
:1008A0001268821A124909688A4218DB11490968DC
:1008B0008A4214DA104B1B68C31A104A126893421A
:1008C00008DA0F4A1368013313600B4B18600C4BA6
:1008D0001B6804E00A4B01221A60F6E70023184661
:1008E00008BD00BFC4270020200000200401002014
:1008F000080000200C00002008010020100000204B
:100900001400002010B5044C2268044B1A60FFF755
:10091000BBFF206010BD00BF400600202401002066
:10092000002804DA00F5B470FAE7A0F5B470B0F569
:10093000B47FFADA592808DDB32809DDB0F5877FDE
:100940000BDAB438074B185C7047064B185C7047DD
:10095000C0F1B400034B185C7047C0F5B470014B94
:10096000185C70470069000808B55A30FFF7D8FFD7
:1009700008BD00002DE9F043DDF81CC02A4C2468B6
:100980008C4201DD9C424DDC0F348C4201DA9C42EA
:1009900048DB161A002EB8BF76425F1A002FB8BF88
:1009A0007F42F51B824206DD4FF00108994205DACD
:1009B0004FF0010E12E04FF0FF38F7E74FF0FF3E27
:1009C0000CE090422CD06C00C7F10009A14501DA7F
:1009D000ED1B4044A64201DD35447144124C2468AD
:1009E0008C42EEDC04F10F098945EADB0C1B3CF973
:1009F0002490814503DD20EAE0792CF824900A4C0C
:100A000024680C1BA40002343CF904908145D8DA18
:100A100081467F28A8BF4FF07F092CF80490D0E7CB
:100A20009942D0D1BDE8F083340100202DE9F04394
:100A300093B081460E4617469846BDF8784000228E
:100A40000F2A10DC530012A901EB8201812021F84A
:100A5000400C013312A901EB43034FF6FF7123F859
:100A6000401C0132ECE702AD009543463A46314660
:100A70004846FFF77FFF00951B9B1A9A4146384670
:100A8000FFF778FF00951D9B1C9A1B991A98FFF79A
:100A900071FF009533464A461D991C98FFF76AFF7F
:100AA000002200E001320F2A16DC5300013312A9A4
:100AB00001EB430333F9401C12AB03EB820333F920
:100AC000403C9942EEDD9942ECDB03EBC215044851
:100AD00020F815400133F6E713B0BDE8F08300BFFE
:100AE0006C0B00202DE9F04393B081460E4617466B
:100AF0009846BDF8704000220F2A10DC530012A95E
:100B000001EB8201812021F8400C013312A901EB95
:100B100043034FF6FF7123F8401C0132ECE702ADAE
:100B2000009543463A4631464846FFF723FF009575
:100B30001B9B1A9A41463846FFF71CFF0095334627
:100B40004A461B991A98FFF715FF002200E0013270
:100B50000F2A16DC5300013312A901EB430333F9CA
:100B6000401C12AB03EB820333F9403C9942EEDDAB
:100B70009942ECDB03EBC215034820F81540013322
:100B8000F6E713B0BDE8F0836C0B0020F8B500AFBA
:100B90000023534A136007E051490A68541C0C6053
:100BA000504921F8123001334F4AB2F900209A42DD
:100BB00047DD4E4A1268002AEED04D4A116811F8FE
:100BC000232002EB42025500425F01EB830191F8C2
:100BD00001C00CEB4C0C4FEA4C0430F904C0A2EB02
:100BE0000C060544B5F902200444B4F902E0A2EB76
:100BF0000E058C7804EB44046100425EA2EB0C0409
:100C00000144B1F90220A2EB0E0202FB06F204FB42
:100C1000152282EAE274A4EBE274364921F813400B
:100C20003549096809B9002A03DB0029BBD0002A2D
:100C3000B9DD2B490A68541C0C602A4921F812308E
:100C4000B1E7274B1B689B00073323F00703ADEB8D
:100C5000030D6A46002516E0224B33F8153001EBF0
:100C60008303234C2468E35C03EB43035C000444EC
:100C7000B4F9044052F82530234442F825300131BC
:100C80000329E9DD0135164B1B689D4203DA00217B
:100C900042F82510F4E7002119E0013310480068FC
:100CA000834213DA52F8214052F823008442F4DAE6
:100CB00042F8234042F821000A4830F8134030F847
:100CC000115020F8135020F81140E6E70131044B91
:100CD0001B68013B994201DA0B46DFE7BD46F8BDD0
:100CE0001401002044060020C82700200000002036
:100CF000DC250020E02500201C010020F8B500AF15
:100D00000023544A136007E052490A68541C0C60DF
:100D1000514921F812300133504AB2F900209A4269
:100D200047DD4F4A1268002AEED04E4A146803EBA2
:100D30004301625C02EB42025500425F214491F89C
:100D400001C00CEB4C0C4FEA4C0430F904C0A2EB90
:100D50000C060544B5F902200444B4F902E0A2EB04
:100D60000E058C7804EB44046100425EA2EB0C0497
:100D70000144B1F90220A2EB0E0202FB06F204FBD1
:100D8000152282EAE274A4EBE274374921F8134099
:100D90003649096809B9002A03DB0029BBD0002ABB
:100DA000B9DD2C490A68541C0C602B4921F812301B
:100DB000B1E7284B1B689B00073323F00703ADEB1B
:100DC000030D6A46002500E00135224B1B689D4259
:100DD0001ADA002142F825100229F5DC1E4B33F8FF
:100DE000153003EB43030B441E4C2468E35C03EB18
:100DF00043035C000444B4F9044052F82530234412
:100E000042F825300131E7E7002119E001331148AC
:100E10000068834213DA52F8214052F823008442DA
:100E2000F4DA42F8234042F821000B4830F813402E
:100E300030F8115020F8135020F81140E6E7013146
:100E4000044B1B68013B994201DA0B46DFE7BD46C4
:100E5000F8BD00BF1401002044060020C827002070
:100E600000000020DC250020E02500201C010020DF
:100E70002DE9F04786B00446002535E004EB8006F6
:100E800004EB810734F92EC004EB8E0EBEF902E0AC
:100E900034F9228004EB8202B2F902901A0222F4A1
:100EA000FF6222F0070212B24FEAC30A0AF4FC6A98
:100EB00042EA0A0203EBD373C3F3041313439BB256
:100EC0000493CDF80C90CDF80880CDF804E0CDF86F
:100ED00000C0B7F9023034F92120B6F9021034F914
:100EE0002000FFF7A3FD0135254B1B68AB4244DD15
:100EF000244B33F81560244B1B6813F8260003EBD2
:100F00008603597893F802E0DA78204B1F68002FA7
:100F10000ADD1F4B33F81630C3EB032393FBF7F3C3
:100F2000FF2BABDDFF23A9E704EB800704EB810374
:100F300034F92EC004EB8E0EBEF902E034F92280A3
:100F400004EB8202B2F90220DFF84890D9F8009051
:100F500039F8166004960392CDF80880CDF804E0C5
:100F6000CDF800C0B3F9023034F92120B7F90210EE
:100F700034F92000FFF75AFDB5E706B0BDE8F08769
:100F80001401002044060020DC2500200C01002074
:100F9000E0250020A01D00202DE9F04184B004468A
:100FA00000252CE004EB800104EB820634F92C7060
:100FB00004EB8C0CBCF902C04FEA0E2323F4FF6350
:100FC00023F007031BB24FEACE0808F4FC6843EA9B
:100FD00008030EEBDE7ECEF3041E43EA0E039BB243
:100FE0000293CDF804C00097B6F9023034F92220FC
:100FF000B1F9021034F92000FFF774FD0135244BDC
:101000001B68AB4240DD234B33F81510224B1B68A5
:1010100001EB4102985C13445A7893F802C01F4BCD
:101020001B68002B11DD1E4B33F81110C1EB0121A1
:101030001C4B83FB01634FEAE17ECEEB633E1A4B10
:101040009942AFDD4FF0FF0EACE704EB800604EBF6
:10105000820334F92C7004EB8C0CBCF902C0DFF86D
:101060004CE0DEF800E03EF811100291CDF804C02B
:101070000097B3F9023034F92220B6F9021034F99E
:101080002000FFF72FFDB9E704B0BDE8F08100BFF5
:101090001401002044060020DC2500200C01002063
:1010A000E02500206B298274FF4F4600A01D002020
:1010B000F8B505468000FFF733FC00EB800000EB3D
:1010C00080000346002814DB1B1203F1320405EBF9
:1010D0008500FFF725FC00EB800000EB8000034655
:1010E000002809DB1F1232371D4B1B681F440025E7
:1010F00029E000F1FF03E7E700F1FF03F2E742F622
:10110000421001E045F2852002EBC511154B23F892
:10111000110001327F2A15DC1319594203F03F03F5
:1011200001F03F0158BF4B421F2B01DC1F2EE6DDB3
:10113000202BE7DD202E02DC45F28520E4E742F695
:101140004210E1E701350F2D09DCEE19734206F07C
:101150003F0603F03F0358BF5E420022DAE7F8BDC6
:10116000340100206C0B0020F8B506460D468000C7
:10117000FFF7D6FB00EB800000EB80000346002861
:1011800014DB1B1203F1320406EB8600FFF7C8FBE9
:1011900000EB800000EB80000346002809DB1F12F3
:1011A0003237114B1B681F44002006E000F1FF039B
:1011B000E7E700F1FF03F2E701300F2813DC00221C
:1011C0007F2AF9DCC31903F01F01131903F01F0371
:1011D00003EB411302EBC01135F81360034B23F806
:1011E00011600132ECE7F8BD340100206C0B0020E7
:1011F0002DE9F843044602F01FFDDFF8909089FBCB
:101200000032C317C3EBA2134FF47A7808FB130321
:10121000A3F5FA731B4EE200121B550077197353A6
:1012200002F00AFD89FB0039C317C3EBA91308FBC1
:101230001303A3F5FA737B8002F0FEFC124A82FBD3
:101240000032C317C3EB622340F26C7202FB13033C
:101250006433BB80735F4F339BB29E2B01D8502108
:101260007153C4EBC4035A00064B1344B3F9023064
:101270004F339BB29E2B03D8024B134450225A800B
:10128000BDE8F883A81D0020353AFC44D34D621018
:10129000F8B500241FE02846FFF7AAFF3449E8000C
:1012A000421B5300CE18CA5E642303FB02F2B6F958
:1012B000047092FBF7F2403212B2F280B6F902C02B
:1012C00003FB0CF393FBF7F340331BB233817281C2
:1012D000B381013424B2952C49DC264BB3F900309C
:1012E000FBB12349E000031B5E008B198F5FB3F94C
:1012F0000230C7EBC712D21A52001F4D85FB02EC19
:101300009444D217C2EBEC128A53C3EBC3133B4491
:101310005B0085FB03251D44DB17C3EBE51331445C
:101320004B802546124FE3001B1B5E00B819134B80
:1013300019688288521A11B28180BB5F642202FB55
:1013400003F393FBF1F340331BB2C380B0F90260A7
:1013500002FB06F292FBF1F2403212B202819BB222
:10136000802B98D8802A96DC002AB2DA93E7F8BD61
:10137000A81D0020240000208180808028000020FB
:1013800010B50024952C04DC2046FFF731FF013412
:10139000F8E7FFF77DFF0022952A0CDCD100891ABF
:1013A0004800054B0344B3F906105981B3F90810FE
:1013B00099810132F0E710BDA81D00200023B3F58C
:1013C000006F47DA264A002122F813100133F6E7AE
:1013D000FF231A0222F4FF6222F0070212B2D800A1
:1013E00000F4FC600243C3F3C40313439BB2C80080
:1013F000401A44001B4A2244B2F90600B2F9082000
:10140000194C2468121B7F2808D8002A06DD0F2AF1
:1014100004DC00EBC212124820F812300131952989
:1014200015DCC1EBC1035A000E4B1344B3F9042081
:101430000E4880FB0230D317C3EB60031BB2C3F12D
:10144000FF03FF2BC4DC272BC3DC2823C1E75DF897
:10145000044B70470021952901DC10B4E1E7704787
:101460006C0B0020A81D0020340100206766666612
:101470002DE9F04F87B0059090490A68531C0B6026
:10148000B2F5B47F02DDA2F267130B608B4B1868D4
:1014900000EB4000FFF744FA4FF4967303FB00F0B3
:1014A000874B83FB00230344C017C0EBE31000F11C
:1014B00096030493834B1C682046FFF755FA804639
:1014C0002046FFF72DFA07467F4B1C682046FFF7A2
:1014D0004BFA06462046FFF723FA82464FF0000CEF
:1014E0007A4BB3F9003063457DDD794B1A684FEADA
:1014F0004C0404EB0C014B0032F903901A44B2F98E
:1015000002300393B2F904B00BFB07F209FB082287
:101510006B4880FB02511144D217C2EBE11204EB7D
:101520000C0E6C4D25F81E200AFB08F10BFB01F296
:101530000AFB07F109FB112180FB01320A44C9179C
:10154000C1EBE212039901FB062280FB0231114438
:10155000D217C2EBE1120EF1010125F8112006FBB2
:1015600008F20BFB02FB06FB07F209FB12BB80FB38
:101570000B39D9444FEAEB7BCBEBE91B039B03FB15
:101580001AB380FB03201844DB17C3EBE0130EF102
:101590000202C8331BB225F8123003F59673049A81
:1015A000134443F2381999FBF3F935F91E3041F62B
:1015B000321E09FB03E3484880FB03B2DB17C3EB91
:1015C0006213464A22F8143035F9113009FB03E35F
:1015D00080FB0310DB17C3EB6013013422F81430D7
:1015E0000CF1010C7CE73E4B1B68032B07D0059BDD
:1015F00043B13848FFF782FB0024059D1AE0FFF74E
:1016000047FEF4E73348FFF7C1FAF5E735492B4BBE
:101610001868FFF7A9FD002D32D03048FFF7BCFC59
:10162000314B00931023802230490988002001F0BB
:10163000E7FE10347F2C27DC2C4B1C60284B1B68EA
:10164000002BE3D0012B0AD0022B0ED0032B12D09B
:10165000042BE0D1194B1868FFF72AFDDBE724497A
:10166000164B1868FFF780FDD5E72249134B186821
:10167000FFF77AFDCFE7114B1868FFF79FFECAE727
:101680001648FFF7F5FBCBE70E4B1A6802321A60DB
:101690000D490B6804330B60B2F5B47F03DDA2F58E
:1016A000B47208490A60B3F5B47F03DDA3F5B473DF
:1016B000054A136007B0BDE8F08F00BF300100207D
:1016C00081808080280100202C010020C02700207C
:1016D000A41D0020240800201F85EB51701B002052
:1016E00004000020B44E00086C0B002034010020E0
:1016F000C45E0008BC56000808B54FF4967001F0AF
:10170000F5FC01F011FD012805D0002001F03CFDA1
:10171000FFF736FE08BD024802F086FAFEE700BF7A
:10172000084D00082DE9F04184B0854B1B68854ABF
:101730001268934201D2834A1360834A126893422B
:1017400001D9814A1360002001F018FD7F4B1B680E
:10175000002B72D0012B00F0B780794F7C4E7D4C6E
:101760003B6832461E21204602F09AFA4FF6E0709E
:1017700001F0FEFC032322468821002001F0DEFD5B
:101780004FF47A753B68B5FBF3F332461E212046D1
:1017900002F086FA0323224688213C2001F0CEFD88
:1017A000684F6D4EDFF8A081D8F8003000933B6899
:1017B00032461E21204602F073FA4FF4FC6001F01D
:1017C000D7FC032322469021002001F0B7FDD8F872
:1017D00000303A68B5FBF2F20092B5FBF3F3324603
:1017E0001E21204602F05CFA0323224690213C2071
:1017F00001F0A4FD594D5A4BB3F900302A461E2181
:10180000204602F04DFA4FF61F0001F0B1FC032311
:10181000224698213C2001F091FD524B1B682A463C
:101820001E21204602F03CFA032322469821602024
:1018300001F084FD04B0BDE8F081414B1B68454CCC
:101840004FF47A75B5FBF3F20092474A1E21204609
:1018500002F026FA4FF6E07001F08AFC03232246DC
:101860008821002001F06AFD364B1B68364A126859
:10187000B5FBF3F10291B5FBF2F5019500923B4AFD
:101880001E21204602F00CFA4FF4FC6001F070FCBF
:10189000032322469021002001F050FD314B1B68AC
:1018A00000932F4BB3F90030314A1E21204602F03D
:1018B000F7F94FF61F0001F05BFC03232246982145
:1018C000002001F03BFDB5E7204B02221A60214CBD
:1018D000284D0FCD20606160A260E3602B782374F7
:1018E0004FF6E07001F044FC0323224688210020DB
:1018F00001F024FD204D0FCD20606160A260E36007
:10190000286820614FF4FC6001F032FC032322467A
:101910009021002001F012FD184D0FCD2060616074
:10192000A260E360286820614FF61F0001F020FCF0
:10193000032322469821002001F000FD7AE700BF32
:101940006C1B00201800002010010020180100204E
:10195000F868000820060020F4680008FC68000809
:10196000C827002014010020746800088868000857
:10197000A0680008B8680008CC680008E0680008A3
:1019800010B5FEF7BFFF884B1B68002B2EDB002B2A
:101990000FDD864A1368013313600C2B02DD1346FA
:1019A00000221A60824B4FF47A721A60814B002237
:1019B0001A600023804A1360804A1360804A012124
:1019C0001160804A1360794B1B680C2B4DD8DFE8FF
:1019D00013F03D005F00700080009100A100B20094
:1019E000C500D6002D01430158016E01B3F1FF3F40
:1019F0001ED013F1020FDCD1734B1B68B3F1FF3F14
:101A0000D7D1724A1368B3FA83F35B0913600020DD
:101A100001F0AEFB202380221146002001F0E0FC03
:101A20006B4B1B68002BC4D0694B01221A60C0E7C6
:101A3000654A1268002ADCDB66490A6801320A60DE
:101A4000042AD6DD0A4600211160D2E7624B082243
:101A50001A80624B624A1A60624B06221A80624BFD
:101A6000624A1A60624B634A1A6001F039FB624CA9
:101A70002060514B1868FFF7FBFC01F031FB236835
:101A8000C01A2060514B1B68002B40F0268110BD0E
:101A9000514B08221A80514B514A1A60514B062271
:101AA0001A80514B514A1A60464B4AF6E0321A608E
:101AB000DBE7494B18221A80484B504A1A60494BC1
:101AC00016221A80484B4E4A1A60494B4D4A1A60FA
:101AD000CBE7414B18221A80404B484A1A60414BD1
:101AE00016221A80404B464A1A60364B43F2B062C7
:101AF0001A60BAE7384B20221A80384B424A1A60E3
:101B0000384B18221A80384B404A1A60384B404AEA
:101B10001A60AAE7304B20221A80304B3A4A1A60EA
:101B2000304B18221A80304B384A1A60254B44F645
:101B300020621A6099E7284B48221A80274B354AC1
:101B40001A60284B36221A80274B334A1A60284BDA
:101B5000324A1A601A4B00221A6086E71E4B48224E
:101B60001A801E4B2B4A1A601E4B36221A801E4BBF
:101B7000294A1A60134B43F2B0621A6075E7164B9C
:101B80000F221A80154B264A1A60164B1A221A8009
:101B9000154B244A1A60164B234A1A600123074A40
:101BA0001360054A136060E7400600201C00002017
:101BB0001800002010010020200100201C0100203E
:101BC000000000200C010020240100202C00002037
:101BD0001801002004000020C0270020A41D0020C0
:101BE000846F0008C8270020DC25002084670008D7
:101BF000A01D0020AC4D00086C1B0020F46E0008F6
:101C00002C670008804D0008D86D0008CC660008DD
:101C10001C4D0008B46F00089C670008B84D000810
:101C2000986E00085C6900084C4D00082C4B20227F
:101C30001A802C4B2C4A1A602C4B3C221A802C4BBD
:101C40002C4A1A602C4B4EF290221A6001232B4A28
:101C500013602B4A136008E7214B24221A80214B82
:101C6000284A1A60214B48221A80214B264A1A60C2
:101C7000264B274A1A600123204A1360204A13602A
:101C8000F3E6174B24221A80164B1E4A1A60174B94
:101C900048221A80164B1C4A1A60174B44F62062E1
:101CA0001A600123154A1360154A1360DDE60C4BD8
:101CB0007A221A800B4B174A1A600C4BDF221A80CB
:101CC0000B4B154A1A600C4B44F620621A60012334
:101CD0000A4A13600A4A1360C7E6FFF723FDD6E6F7
:101CE000C0270020A41D002040740008C827002041
:101CF000DC2500204C6C00080C0100201C01002099
:101D00002001002000750008006D0008A01D0020C3
:101D1000244E000864710008AC69000808B5FFF79C
:101D2000EBFCFFF72DFEFCE77047FEE7FEE7FEE762
:101D3000FEE770477047704708B501F0A6F908BD87
:101D400008B5024800F00CFA08BD00BFCC270020FF
:101D5000174B1B6803B17047F0B587B0144B0122D5
:101D60001A6000240094134B9A6B42F001029A63AC
:101D70009B6B03F001030093009B4FF6807301936C
:101D8000022702970394032604960C25059501A9C2
:101D9000094800F0F1FE4DF2B3030193029703945A
:101DA0000496059501A9054800F0E6FE07B0F0BDD0
:101DB000380100200038024000100240000C0240B0
:101DC00010B582B000240094214B5A6C42F480423A
:101DD0005A645A6C02F480420092009A01941A6C80
:101DE00042F080521A641B6C03F080530193019BF4
:101DF000032001F0D1F8224621466FF00B0001F0DC
:101E0000DDF8224621466FF00A0001F0D7F822469D
:101E100021466FF0090001F0D1F8224621466FF00B
:101E2000040001F0CBF8224621466FF0030001F0D8
:101E3000C5F8224621466FF0010001F0BFF82246A6
:101E400021464FF0FF3001F0B9F802B010BD00BFDD
:101E50000038024070B58CB00023079308930993B3
:101E60000A930B930368424A934207D0414A934234
:101E700032D0414A934255D00CB070BD0024019439
:101E80003E4B5A6C42F010025A645A6C02F0100237
:101E90000192019A02941A6B42F001021A631B6BC1
:101EA00003F001030293029B4FF400730793022394
:101EB00008930A9307260B96314D07A9284600F090
:101EC0005BFE4FF480630793089409940B9607A96F
:101ED000284600F051FECFE700210391274B1A6CF2
:101EE00042F480221A641A6C02F480220392039A4C
:101EF00004911A6B42F002021A631B6B03F0020397
:101F00000493049B4FF44063079302230893012337
:101F1000099303230A9307230B9307A9194800F099
:101F20002BFEA9E700210591144B5A6C42F02002C8
:101F30005A645A6C02F020020592059A06911A6BB7
:101F400042F004021A631B6B03F004030693069B22
:101F5000C0230793022308930123099303230A93C1
:101F600008230B9307A9084800F006FE84E700BF8A
:101F700000100140004800400014014000380240B9
:101F800000000240000402400008024008B5FFF7CC
:101F9000DFFE08BD10B588B000220146362001F0F2
:101FA0000DF8362001F03EF800240194144B1A6C11
:101FB00042F010021A641B6C03F010030193019BA2
:101FC00002A903A800F010FD00F0EEFC43000D484C
:101FD000A0FB03239B0C013B0B480C4A026040F220
:101FE000E732C26043600461846000F0D7F910B149
:101FF000012008B010BD044800F0A2F8F9E700BFC6
:102000000038024083DE1B43CC2700200010004034
:1020100070B40C6850F82430124E1E404A688D6827
:102020002A43CB681A430B691A434B691A438B69DD
:102030001A43CB691A430B6A1A434B6A1A438B6AD9
:102040001A43CB6A1A43CB6B1A430B6B13433343CC
:10205000082D04D040F82430002070BC704743F0B5
:102060004003F7E78000F0FF30B4013250F822401F
:1020700004F040440B684D6843EA05138D6843EA59
:102080000523CD6843EA05430D69013D43EA055345
:102090004D69023D43EA056389690B43234340F8D8
:1020A0002230002030BC7047B3F5804F05D06FF070
:1020B000704340F822300020704730B450F822308E
:1020C000094C1C400B684D6843EA05138D6843EAD0
:1020D0000523CD6843EA054389690B43234340F850
:1020E0002230002030BC70470000F0CF28B370B51C
:1020F000044615460E4690F84930CBB1214651F8BA
:10210000080BFFF785FFA26831462068FFF7ACFF98
:10211000236BA26829466068FFF7C6FF2268A168A2
:1021200052F8213043F0010342F82130002070BD05
:1021300080F84830FFF72AFFE0E70120704770473A
:102140000268D36843F00103D3600268136843F068
:102150000103136000207047704770477047704755
:1021600010B5044603681A6912F0020F11D0DA683C
:1021700012F0020F0DD06FF002021A6101230376F4
:1021800003689B6913F0030F70D0FFF7E6FF00238D
:10219000237623681A6912F0040F12D0DA6812F05D
:1021A000040F0ED06FF004021A6102232376236815
:1021B0009B6913F4407F5FD02046FFF7CEFF0023DA
:1021C000237623681A6912F0080F12D0DA6812F029
:1021D000080F0ED06FF008021A61042323762368DB
:1021E000DB6913F0030F4ED02046FFF7B6FF002344
:1021F000237623681A6912F0100F12D0DA6812F0F1
:10220000100F0ED06FF010021A6108232376236896
:10221000DB6913F4407F3DD02046FFF79EFF00238B
:10222000237623681A6912F0010F03D0DA6812F0DE
:10223000010F36D123681A6912F0800F03D0DA68D3
:1022400012F0800F34D123681A6912F0400F03D0C6
:10225000DA6812F0400F32D123681A6912F0200FA9
:1022600003D0DA6812F0200F30D110BDFFF774FFF1
:102270002046FFF773FF8AE72046FFF76DFF2046F1
:10228000FFF76CFF9BE72046FFF766FF2046FFF74E
:1022900065FFACE72046FFF75FFF2046FFF75EFFD4
:1022A000BDE76FF001021A612046FEF7BBF9C1E7F6
:1022B0006FF080021A61204600F08BF8C3E76FF0E0
:1022C00040021A612046FFF74AFFC5E76FF020027F
:1022D0001A61204600F07CF8C7E7000003682E4A28
:1022E000904212D0B0F1804F0FD0A2F57C429042C4
:1022F0000BD002F58062904207D002F580629042D6
:1023000003D002F57842904203D123F070034A686B
:102310001343214A90422AD0B0F1804F27D0A2F532
:102320007C42904223D002F5806290421FD002F599
:10233000806290421BD002F57842904217D002F59D
:102340007052904213D002F5806290420FD002F595
:10235000806290420BD0A2F59832904207D002F5ED
:102360008062904203D002F58062904203D123F450
:102370004073CA68134303608B68C3620B6883624F
:10238000054B984203D003F58063984201D10B6955
:10239000036301234361704700000140B0B110B5F1
:1023A000044690F8393063B1022384F8393021466D
:1023B00051F8040BFFF792FF012384F83930002015
:1023C00010BD80F83830FFF7BAFEEDE70120704706
:1023D00070477047002800F0B98170B582B004469C
:1023E000036813F0010F3BD0A64B9B6803F00C036E
:1023F000042B2CD0A34B9B6803F00C03082B21D09B
:102400006368B3F5803F4FD0B3F5A02F52D09D4BFA
:102410001A6822F480321A601A6822F480221A6044
:102420006368002B50D000F05BFE0546954B1B689F
:1024300013F4003F14D100F053FE401B6428F5D97B
:1024400003208AE18F4B5B6813F4800FD8D08D4B4B
:102450001B6813F4003F03D06368002B00F0788101
:10246000236813F0020F54D0864B9B6813F00C0FB7
:102470003ED0844B9B6803F00C03082B33D0E368F9
:10248000002B67D0804B01221A6000F029FE054620
:102490007C4B1B6813F0020F53D100F021FE401B50
:1024A0000228F5D9032058E1764A136843F48033B3
:1024B0001360B5E7734B1A6842F480221A601A68F9
:1024C00042F480321A60ABE700F00AFE05466D4B1D
:1024D0001B6813F4003FC3D000F002FE401B6428C9
:1024E000F5D9032039E1674B5B6813F4800FC6D13F
:1024F000644B1B6813F0020F03D0E368012B40F01C
:102500002981604A136823F0F803216943EAC10373
:102510001360236813F0080F40D0636963B35B4B0B
:1025200001221A6000F0DCFD0546564B5B6F13F08C
:10253000020F33D100F0D4FD401B0228F5D903204F
:102540000BE1504A136823F0F803216943EAC10301
:102550001360DEE74C4B00221A6000F0C1FD054617
:10256000484B1B6813F0020FD3D000F0B9FD401B9D
:102570000228F5D90320F0E0444B00221A6000F055
:10258000AFFD05463F4B5B6F13F0020F06D000F026
:10259000A7FD401B0228F5D90320DEE0236813F0D5
:1025A000040F78D0374B1B6C13F0805F33D10023BE
:1025B0000193344B1A6C42F080521A641B6C03F086
:1025C00080530193019B0125314B1B6813F4807FDD
:1025D00023D0A368012B34D0052B38D0294B1A6F98
:1025E00022F001021A671A6F22F004021A67A36828
:1025F000002B36D000F074FD0646224B1B6F13F003
:10260000020F47D100F06CFD801B41F288339842E5
:10261000F3D90320A1E00025D6E71D4A136843F44F
:102620008073136000F05CFD0646194B1B6813F4C1
:10263000807FCED100F054FD801B0228F5D9032005
:102640008BE0104A136F43F001031367CFE70D4B84
:102650001A6F42F004021A671A6F42F001021A67F9
:10266000C5E700F03DFD0646064B1B6F13F0020F59
:1026700010D000F035FD801B41F288339842F3D929
:1026800003206AE00038024000004742800E4742C3
:1026900000700040E5B9A369002B5DD0314A926813
:1026A00002F00C02082A5AD0022B17D02E4B00221F
:1026B0001A6000F015FD04462A4B1B6813F0007FDA
:1026C00042D000F00DFD001B0228F5D9032044E0A4
:1026D000244A136C23F080531364DCE7224B00225E
:1026E0001A6000F0FDFC05461E4B1B6813F0007FCE
:1026F00006D000F0F5FC401B0228F5D903202CE0A1
:10270000E369226A1343626A43EA8213A26A5208A7
:10271000013A43EA0243E26A43EA0263114A536020
:10272000114B01221A6000F0DBFC04460D4B1B68C4
:1027300013F0007F06D100F0D3FC001B0228F5D96E
:1027400003200AE0002008E0002006E00120704796
:10275000012002E0012000E0002002B070BD012055
:10276000FBE700BF0038024060004742314B9B68E6
:1027700003F00C03042B58D0082B58D170B52D4B07
:102780005A6802F03F025B6813F4800F2AD0294B8D
:102790005868C0F388100546002643011B1A66EBF3
:1027A0000604A10141EA93619801C01A61EB04019A
:1027B000CB0043EA5073C4001946601946EB01018F
:1027C0004B0243EAD0534402204619463346FDF7F4
:1027D0004FFD184B5B68C3F3014301335B00B0FB53
:1027E000F3F070BD134B5868C0F3881005460026FF
:1027F00043011B1A66EB0604A10141EA93619801AB
:10280000C01A61EB0401CB0043EA5073C4001946BF
:10281000601946EB01018B0243EA90538402204683
:1028200019463346FDF724FDD3E7034870470348B4
:10283000704700BF0038024000127A000024F40004
:10284000002800F09A8070B50446504B1B6803F0D6
:102850000F038B4208D2CBB24C4A1370136803F0BB
:102860000F038B4240F08B80236813F0020F17D0C8
:1028700013F0040F04D0464A936843F4E053936086
:10288000236813F0080F04D0414A936843F460436F
:1028900093603F4A936823F0F003A068034393607A
:1028A0000D46236813F0010F32D06368012B21D04D
:1028B0009A1E012A25D9364A126812F0020F60D0FA
:1028C00033498A6822F0030213438B6000F008FC4E
:1028D00006462F4B9B6803F00C036268B3EB820F34
:1028E00016D000F0FDFB801B41F288339842F0D9EE
:1028F000032041E0264A126812F4003FE0D1012093
:102900003AE0234A126812F0007FD9D1012033E067
:102910001E4B1B6803F00F03AB4207D9EAB21B4BF7
:102920001A701B6803F00F03AB422CD1236813F01D
:10293000040F06D0164A936823F4E053E1680B4372
:102940009360236813F0080F07D0114A936823F4AB
:102950006043216943EAC1039360FFF707FF0C4B13
:102960009B68C3F303130B4AD35CD8400A4B18602F
:102970000020FFF70FFB002070BD012070470120F1
:10298000FAE70120F8E70120F6E700BF003C02402B
:1029900000380240DC78000880000020014B1868F5
:1029A000704700BF8000002008B5FFF7F7FF044B19
:1029B0009B68C3F38223034AD35CD84008BD00BFA1
:1029C00000380240EC78000808B5FFF7E7FF044B39
:1029D0009B68C3F34233034AD35CD84008BD00BFB1
:1029E00000380240EC7800080F2303600B4B9A6814
:1029F00002F0030242609A6802F0F00282609A6874
:102A000002F4E052C2609B68DB0803F4E053036108
:102A1000034B1B6803F00F030B6070470038024044
:102A2000003C024030B583B00446036813F0050F44
:102A300006D1236813F0020F2ED1002003B030BD61
:102A4000494B00221A6000F04BFB0546474B1B68C0
:102A500013F0006F06D000F043FB401B0228F5D9AD
:102A60000320EBE76268A3681B0743EA82133F4A2F
:102A7000C2F884303C4B01221A6000F031FB05465D
:102A80003A4B1B6813F0006FD3D100F029FB401BB9
:102A90000228F5D90320D1E700230193334B1A6CA8
:102AA00042F080521A641B6C03F080530193019B27
:102AB0002F4A136843F48073136000F011FB05463E
:102AC0002B4B1B6813F4807F06D100F009FB401BE1
:102AD0000228F5D90320B1E7244B1B6F13F4407390
:102AE00012D0E26802F440729A420DD01F4B1A6F66
:102AF00022F440721F4901200860002008601A6714
:102B00001B6F13F0010F13D1E36803F44072B2F5A9
:102B1000407F1ED0154A936823F4F813936013493D
:102B20000B6FE268C2F30B0213430B67002085E7CB
:102B300000F0D6FA05460D4B1B6F13F0020FE3D1E0
:102B400000F0CEFA401B41F288339842F3D90320BB
:102B500074E706498A6822F4F81223F0704323F4DC
:102B6000407313438B60DAE7680047420038024045
:102B700000700040400E474200230F2B00F2D68029
:102B8000F0B482B039E0072200E00022B2403A43BC
:102B90000235674E46F82520664A1568E24302EA88
:102BA00005064F6817F4803F01D044EA0506614DE1
:102BB0002E606D6802EA05064F6817F4003F01D0E9
:102BC00044EA05065B4D6E60AD6802EA05064F6893
:102BD00017F4801F01D044EA0506564DAE60ED683B
:102BE0002A404E6816F4001F01D044EA0502514CF9
:102BF000E26001330F2B00F2968001229A400C68AC
:102C00001440A242F5D14D68022D01D0122D10D1F1
:102C1000DE08083650F826C003F00705AF000F2580
:102C2000BD402CEA050C0D69BD4045EA0C0540F895
:102C3000265006685F000325BD40ED4305EA060CFB
:102C40004E6806F00306BE4046EA0C0606604E6873
:102C500006F1FF3CBCF1010F03D9112E01D0122E59
:102C600010D1866805EA060CCE68BE4046EA0C061E
:102C70008660466826EA02024E68C6F300169E4049
:102C800016434660C26815408A68BA402A43C2604B
:102C90004A6812F0805FACD000220192264A556C3F
:102CA00045F480455564526C02F480420192019AC9
:102CB0009D08AE1C1E4A52F8267003F003029600CF
:102CC0000F22B24027EA02071C4A90423FF45DAF50
:102CD00002F5806290421AD002F58062904218D0CC
:102CE00002F58062904216D002F58062904214D0C4
:102CF00002F58062904212D002F58062904210D0BC
:102D000002F5806290423FF43EAF08223EE7012286
:102D10003CE702223AE7032238E7042236E705229D
:102D200034E7062232E702B0F0BC7047704700BFBC
:102D300000380140003C01400038024000000240E1
:102D40000AB181617047090481617047F8B5044692
:102D50000268136923F44053C1680B43136183680D
:102D60000269134342691343C2691A430168CB687D
:102D700023F4164323F00C031343CB60026853691A
:102D800023F4407381690B435361C369B3F5004F6A
:102D900037D00368664A934200F09B8002F5806258
:102DA000934200F09680FFF7FFFD064600270018CB
:102DB00047EB0701801947EB0101CB0043EA507351
:102DC000C2001046194663689A009B0F801947EBB2
:102DD0000101FDF74DFA574DA5FB0032510964235F
:102DE00003FB11031B013233A5FB03235B0903F033
:102DF000F00202EB011203F00F03216813448B6011
:102E000094E003684A4A934233D002F580629342C9
:102E10002FD0FFF7C9FD06460027001847EB070132
:102E2000801947EB0101CB0043EA5073C200104602
:102E300019466268002392185B41801947EB010133
:102E4000FDF716FA3B4DA5FB00325109642303FB45
:102E50001103DB003233A5FB03235B095A0002F4A4
:102E6000F87202EB011203F00703216813448B6030
:102E70005CE0FFF7A9FD06460027001847EB0701B5
:102E8000801947EB0101CB0043EA5073C2001046A2
:102E900019466268002392185B41801947EB0101D3
:102EA000FDF7E6F9234DA5FB00325109642303FB2E
:102EB0001103DB003233A5FB03235B095A0002F444
:102EC000F87202EB011203F00703216813448B60D0
:102ED0002CE0FFF779FD06460027001847EB0701B5
:102EE000801947EB0101CB0043EA5073C200104642
:102EF000194663689A009B0F801947EB0101FDF7A3
:102F0000B7F90C4DA5FB00325109642303FB1103F3
:102F10001B013233A5FB03235B0903F0F00202EB34
:102F2000011203F00F03216813448B60F8BD00BF4A
:102F3000001001401F85EB5158B310B5044690F8BE
:102F400039300BB3242384F839302268D36823F452
:102F50000053D3602046FFF7F9FE2268136923F47B
:102F6000904313612268536923F02A035361226856
:102F7000D36843F40053D3600020E063202384F837
:102F8000393084F83A3010BD80F83830FEF762FFEF
:102F9000D8E7012070470000074AD36823F4E063B4
:102FA0001B041B0C000200F4E060184340F0BF60FB
:102FB00040F40030D060704700ED00E030B4174BB3
:102FC000DB68C3F30223C3F10704042C28BF0424E5
:102FD0001D1D062D01D9033B00E000234FF0FF35F6
:102FE00005FA04F421EA0401994005FA03F322EA00
:102FF00003031943002809DB0901C9B200F160404D
:1030000000F5614080F8001330BC704700F00F00FD
:103010000901C9B2024B1954F6E700BF00ED00E008
:1030200014ED00E000F01F02400901239340024A22
:1030300042F82030704700BF00E100E00138B0F1F5
:10304000807F0AD2064B5860064AF02182F823108E
:103050000020986007221A6070470120704700BF67
:1030600010E000E000ED00E0042805D0054A1368F8
:1030700023F0040313607047024A136843F004030B
:103080001360704710E000E0704708B5FFF7FCFFE1
:1030900008BD000008B50B4B1A6842F400721A60B4
:1030A0001A6842F480621A601A6842F480721A60E8
:1030B0000320FFF771FF0020FEF76CFFFEF780FE94
:1030C000002008BD003C0240034A1168034B1B78F6
:1030D0000B441360704700BF082800203000002018
:1030E000014B1868704700BF0828002038B5044617
:1030F000FFF7F6FF0546B4F1FF3F02D0044B1B7803
:103100001C44FFF7EDFF401BA042FAD338BD00BFBF
:103110003000002010B5034C2468E46904B1A047D6
:1031200010BD00BF7400002008B5064B1B681B686B
:103130009847054B002058604FF6FF721A60034A0B
:103140009A6008BD740000200C2800207800002040
:1031500008B5024B1B689B6A984708BD74000020A5
:1031600008B5024B1B68DB6A984708BD7400002055
:10317000014B1860704700BF0C280020014B5860BD
:10318000704700BF0C28002070B582B00646084B7F
:103190001B689C6BFFF7DCFF0546FFF7E1FF00961D
:1031A00003462A4600210846A04702B070BD00BF72
:1031B00074000020F8B505460E461446927CE37C68
:1031C00002EB0322A37DE77D03EB07239BB292B2C0
:1031D000FFF7A0FF094B1B681B6B1BB12246314652
:1031E00028469847FFF7B4FF0446FFF7B9FF0346A8
:1031F000224600210846FFF78DFFF8BD740000202D
:103200002DE9F04F83B000900191404B9B68B3F8DB
:1032100006A0B3F804901AFB09F11B3149003C4B9E
:10322000598009FB0AF11B31C1F3CF319980362156
:103230005981A3F8129000219982A3F816A019834E
:1032400009F1070B4FEAEB0B4FEACB085FFA88F85E
:103250005FFA89F3A8EB03085FFA88F80F468C46FB
:103260002BE02A494968DFF8A8E00EF81310013472
:10327000C1F307210EF80410013085421BD9A6EBDB
:103280000C03013B03FB05031B335C00291A41447B
:1032900001394FF0010E0EFA01F13942E1D01B491C
:1032A0000968DFF86CE00EF813100134C1F3072150
:1032B0000EF80410E0E70CF1010C5646E2451DD96A
:1032C0000CFB0BF3D1184D46A9F11100072806D8C5
:1032D000D05C4F783F0247EA004788780743A9F15E
:1032E0000900072803D8D05C4F7847EA002709F186
:1032F000FF31072900D8D75C0020BEE7044A0199B6
:103300000098FFF757FF03B0BDE8F08F0C280020AE
:103310003C01002038B5084B9B681C68A2F12005D1
:10332000DA8802FB05F29B880733DB1003FB0242BD
:10333000FFF766FF38BD00BF0C2800202DE9F041E3
:1033400005460E46144698461346002713F8012BEF
:103350000AB10137FAE7FFF7FBFE204B9B689B8819
:10336000B0FBF3F080B2B8F1010F04D0B8F1020F56
:1033700009D000271BE0C01B03FB00F0C0F34F0087
:103380000544ADB2F5E7C01B10FB03F39BB25D1B18
:10339000ADB2EEE714F8012B31462846FFF7BAFF2D
:1033A0000E4B9B689B881D44ADB20137BFB294F8A9
:1033B0000080FFF7CDFE094B9B689B8803FB17003D
:1033C00080B28342CCBF00230123B8F1000F08BFB5
:1033D0000023002BDED1BDE8F08100BF0C280020C7
:1033E00030B583B0044C2468A46B044D2D8800953F
:1033F000A04703B030BD00BF740000200C2800209F
:1034000030B583B0034C2468646B069D0095A047DB
:1034100003B030BD740000204FF4A07070474FF42B
:10342000F070704708B5112000F09CFA012000F000
:1034300075FA08BD08B5002000F070FA102000F001
:1034400091FA08BD00B583B0002301930123032244
:1034500001A9D32000F0C2FA019A054B9A4203D089
:10346000002003B05DF804FB49F28640F9E700BF95
:103470000094860010B5314B1B7813F0010F0BD16F
:1034800043F001032D4A137013F0020F52D02B4A60
:10349000137843F0020313700A2000F03BFA012076
:1034A00000F060FA642000F035FA254C0122214634
:1034B000B02000F075FA112000F054FA0A2000F054
:1034C00029FA01221F493A2000F06AFA362000F05A
:1034D00049FA482000F04AFA01221B49C22000F0B4
:1034E0005FFA0422A118C52000F05AFA0F2204F155
:1034F0000C01E02000F054FA1C340F222146E12098
:1035000000F04EFA0F222146E22000F049FA132083
:1035100000F028FA202000F025FA112000F022FA0D
:10352000C82000F0F7F9292000F01CFA0A2000F06A
:10353000F1F910BD00F0FEF9A9E700BFA2040020D8
:10354000B04C0008D8750008DC75000870B5054659
:103550000C462A2000F006FA2E0A304600F006FA41
:10356000EDB2284600F002FA304600F0FFF9284696
:1035700000F0FCF92B2000F0F5F9250A284600F0B0
:10358000F5F9E4B2204600F0F1F9284600F0EEF932
:10359000204600F0EBF970BD2DE9F84380460C465B
:1035A00091461F461B4B1980CE19B3B2013B1A4AF4
:1035B00013802A2000F0D6F94FEA182000F0D6F93F
:1035C0005FFA88F5284600F0D1F908EB09000138C8
:1035D000C0F3072000F0CAF905EB0900C0B20138BA
:1035E000C0B200F0C3F92B2000F0BCF9200A00F0B3
:1035F000BDF9E4B2204600F0B9F9701EC0F307200F
:1036000000F0B4F9E019C0B20138C0B200F0AEF970
:10361000BDE8F883A6040020A4040020F8B5054600
:103620000C4617462A2000F09DF92E0A304600F07D
:103630009DF9EDB2284600F099F9304600F096F970
:10364000284600F093F92B2000F08CF9250A284633
:1036500000F08CF9E4B2204600F088F9284600F02A
:1036600085F9204600F082F92C2000F07BF93846DD
:1036700000F082F9F8BD000070B582B005460C4636
:1036800001221B493A2000F08BF92A2000F06AF948
:103690002E0A304600F06AF9EDB2284600F066F9CD
:1036A000304600F063F9284600F060F92B2000F066
:1036B00059F9250A284600F059F9E4B2204600F0ED
:1036C00055F9284600F052F9204600F04FF9012341
:1036D0001A460DF106012E2000F098F90122054945
:1036E0003A2000F05DF9BDF8060002B070BD00BFE1
:1036F000E0750008D875000838B514461D46FFF778
:103700004BFF012208493A2000F04AF9012305FB4A
:1037100004F204992E2000F079F9012203493A209D
:1037200000F03EF938BD00BFE0750008D87500080C
:103730002DE9F04180460D4616461F462A2000F02E
:1037400011F9280A00F012F9ECB2204600F00EF947
:10375000E8190138C0F3072000F008F9E019C0B2F9
:103760000138C0B200F002F92B2000F0FBF8340A57
:10377000204600F0FBF8F6B2304600F0F7F820469D
:1037800000F0F4F8304600F0F1F83A4641462C20BB
:1037900000F0F8F8BDE8F0812DE9F04107460C464D
:1037A00015461E462A2000F0DDF84FEA1428404650
:1037B00000F0DCF8E4B2204600F0D8F8404600F013
:1037C000D5F8204600F0D2F82B2000F0CBF8280ADC
:1037D00000F0CCF8ECB2204600F0C8F8A819013887
:1037E000C0F3072000F0C2F8A019C0B20138C0B27F
:1037F00000F0BCF8324639462C2000F0C3F8BDE892
:10380000F0812DE9F04180460F4615461E462A20DC
:1038100000F0A8F84FEA182000F0A8F85FFA88F442
:10382000204600F0A3F808EB05000138C0F307209C
:1038300000F09CF86019C0B20138C0B200F096F8F0
:103840002B2000F08FF8380A00F090F8FCB22046E8
:1038500000F08CF8B8190138C0F3072000F086F8A2
:10386000A019C0B20138C0B200F080F806FB05F222
:10387000BDF818102C2000F085F8BDE8F08100009C
:10388000F8B5D2F80250D2F80A402D1B6D08144446
:10389000362000F067F8C82000F068F82B2000F010
:1038A00061F8144F388840F2DF16301AC0F3072051
:1038B00000F05CF83878C0F1DF00C0B200F056F8D4
:1038C0000D4F3888301AC0F3072000F04FF83878D1
:1038D000C0F1DF00C0B200F049F82A4621462C2092
:1038E00000F06CF8362000F03DF8482000F03EF87B
:1038F000F8BD00BFA4040020A604002038B514467B
:103900001D46FFF749FE05FB04F204992C2000F048
:1039100055F838BD08B5FFF7E9FB08BD18B1044BF1
:1039200001221A607047024B00221A60704700BFE4
:103930008402404208B5094A136B43F00103136344
:103940000120074B1860A2F56052136823F00C03A6
:1039500043F004031360FFF7DDFF08BD00380240A9
:10396000840240424FF0C04318707047014B1870FA
:10397000704700BFFEFF076040BA014B18807047D8
:10398000FEFF076049BA89B24FF0C0431870531E5A
:103990001AB1024A11801A46F9E77047FEFF076024
:1039A0004FF0C0431870531E2AB111F8010B024AA0
:1039B00010701A46F7E77047FEFF07604FF0C043EC
:1039C0001870501E32B131F8023B5BBA024A1380C4
:1039D0000246F6E7704700BFFEFF076010B44FF0E5
:1039E000C0442070581E43B1074B1B780346F9E7CB
:1039F000054A127801F8012B1A46531E002AF7D106
:103A00005DF8044B704700BFFEFF076010B44FF035
:103A1000C0442070581EA3B10D4B1B780346F9E734
:103A20000B480378027800781B0203F478431BB23A
:103A3000D20002F4FC62134343EAD00321F8023BB4
:103A40002246541E002AEBD15DF8044B704700BF9C
:103A5000FEFF07600F49D1F8883043F47003C1F8C6
:103A600088300D4B1A6842F001021A6000209860FD
:103A70001A6822F0847222F480321A60074A5A606F
:103A80001A6822F480221A60D8604FF000638B60BD
:103A9000704700BF00ED00E0003802401030002405
:103AA000DFF834D0002103E00C4B5B584350043165
:103AB0000B480C4B42189A42F6D30B4A02E0002303
:103AC00042F8043B094B9A42F9D3FFF7C3FF00F0D9
:103AD00011F8FCF7B7FE7047000002209C7900083F
:103AE00000000020E8000020E80000202828002036
:103AF000FEE7000070B50D4D0D4C641BA4100026B0
:103B0000A64209D10B4D0C4C01F0C6F8641BA41061
:103B10000026A64205D170BD55F8043B98470136F2
:103B2000EEE755F8043B98470136F2E79479000830
:103B300094790008947900089879000802440346B3
:103B4000934200D1704703F8011BF9E770B50E46A8
:103B5000054618B183690BB900F0B0FAAB69AC68DF
:103B600013B9284600F0AAFA2C4B9C4220D16C686D
:103B7000636EDB0705D4A389980502D4A06D00F01D
:103B80003AFBA38919071DD52369DBB1013EA36860
:103B900016F8011F013BA36039BB002B38DA22461F
:103BA0000A21284600F0B0F8013011D00A2511E0B2
:103BB0001B4B9C4201D1AC68DAE71A4B9C4208BF10
:103BC000EC68D5E72146284600F0F0F80028DDD063
:103BD0004FF0FF35636EDA0705D4A3899B0502D445
:103BE000A06D00F009FB284670BD002B04DAA26925
:103BF0009A4206DC0A2904D023685A1C22601970F4
:103C0000C5E72246284600F07FF80130BFD1DFE744
:103C100023680A255A1C22601D70DBE7187900080A
:103C200038790008F8780008024B01461868FFF759
:103C30008DBF00BF84000020134B10B51C68A36B20
:103C40007BB9182000F03EFB104A114BA063C0E97D
:103C50000023104B83600B23838101220023C0E9E2
:103C60000423A16B0C480A694B690C4C504304FBBC
:103C70000300A2FB04345A1C044444F10000C1E9CF
:103C8000042020F0004010BD840000200E33CDAB96
:103C900034126DE6ECDE05002DF451582D7F954C65
:103CA0000CB430B5174B0C1E9DB01D6808DA8B2381
:103CB0002B604FF0FF301DB0BDE8304002B07047C0
:103CC0004FF40273ADF8143014BF04F1FF332346F0
:103CD000049307934FF6FF7302900690ADF81630E9
:103CE000209A21AB02A92846019300F0F7FB431C60
:103CF000BCBF8B232B60002CDDD0029B00221A70EE
:103D0000D9E700BF84000020F8B50E4614460546EA
:103D100018B183690BB900F0D1F9214B9C422BD12A
:103D20006C68A369A360A3891A072FD523696BB3B5
:103D300023692068C01A6369F6B28342374604DCFF
:103D40002146284600F026F930BBA368013BA3605A
:103D500023685A1C22601E7063690130834204D0BC
:103D6000A389DB0706D50A2E04D12146284600F098
:103D700011F988B93846F8BD0A4B9C4201D1AC68AC
:103D8000CFE7094B9C4208BFEC68CAE721462846AA
:103D900000F00CF80028CBD04FF0FF37EAE700BF67
:103DA0001879000838790008F8780008324B70B5A7
:103DB0001D6806460C4625B1AB6913B9284600F0CC
:103DC0007DF92E4B9C420FD16C68B4F90C309AB23D
:103DD00015072CD4D00611D40922326043F04003D9
:103DE000A3814FF0FF303EE0254B9C4201D1AC68EF
:103DF000EBE7244B9C4208BFEC68E6E7510712D57D
:103E0000616B41B104F14403994202D0304600F0A5
:103E100061FA00236363A38923F02403A3810023B1
:103E2000636023692360A38943F00803A3812369A6
:103E30004BB9A38903F42073B3F5007F03D0214667
:103E4000304600F0FFF9A28912F001030CD00023E4
:103E5000A36063695B42A361236953B9B4F90C3071
:103E600013F08000BAD170BD920758BF6369A36098
:103E7000F2E70020F7E700BF84000020187900086F
:103E800038790008F87800088A892DE9F04105465C
:103E900010070C4658D44B68002B05DC0B6C002B2C
:103EA00002DC0020BDE8F081E66A002EF9D0002394
:103EB00012F480522F682B6032D0606DA3895A07AC
:103EC00005D56368C01A636B0BB1236CC01A00235D
:103ED0000246E66A216A2846B047431CA38906D1F8
:103EE00029681D292CD82A4ACA40D60728D500227D
:103EF0006260D9042269226004D5421C01D12B687A
:103F000003B96065616B2F600029CAD004F14403D6
:103F1000994202D0284600F0DDF900206063C1E735
:103F2000216A01232846B047411CC7D12B68002BCA
:103F3000C4D01D2B01D0162B01D12F60B1E7A3896E
:103F400043F04003A381ADE70F69002FA9D0930789
:103F50000E6808BF4B690F6018BF0023A6EB070867
:103F60008B60B8F1000F9CDD43463A46216AA66A91
:103F70002846B047002806DCA38943F04003A3810C
:103F80004FF0FF308EE70744A8EB0008E9E700BFD9
:103F90000100402038B50B6905460C4613B90025D1
:103FA000284638BD18B183690BB900F087F8144B67
:103FB0009C421BD16C68B4F90C30002BEFD0626EC0
:103FC000D00704D4990502D4A06D00F014F9284656
:103FD0002146FFF759FF636EDA070546E0D4A3894F
:103FE0009B05DDD4A06D00F007F9D9E7054B9C4295
:103FF00001D1AC68DFE7044B9C4208BFEC68DAE70C
:104000001879000838790008F8780008002310B5FE
:104010000446C0E90033836081814366C281C0E900
:1040200004338361194608225C30FFF787FD054B96
:104030006362054BA362054BE362054B2462236375
:1040400010BD00BF014A0008234A00085B4A00086F
:104050007F4A0008014900F0AFB800BF953F000853
:1040600070B54A1E682555430E4605F1740100F0EF
:104070007FF9044640B10021C0E900160C30A06071
:1040800005F16802FFF75AFD204670BD014800F0B7
:10409000B2B800BF20280020014800F0ADB800BF32
:1040A00020280020014800F0A6B800BF1B280020EF
:1040B000014800F0A1B800BF1B28002010B504463D
:1040C000FFF7F0FFA3691BB1BDE81040FFF7F0BF99
:1040D000C4E912332365134B134A1B68A262A3423F
:1040E00004BF0123A361204600F020F86060204651
:1040F00000F01CF8A060204600F018F80022E060F4
:1041000004216068FFF782FF01220921A068FFF700
:104110007DFF02221221E068FFF778FF0123A361EF
:10412000D2E700BFF478000855400008F8B507460C
:10413000FFF7ACFF1E4B1E68B36913B93046FFF79B
:10414000BDFF4836D6E90134013B03D533680BB3D4
:104150003668F7E7B4F90C50D5B9164BE36004F1B3
:104160005800656600F046F8FFF796FF2560C4E941
:104170000155C4E90455A5610822294604F15C00F3
:10418000FFF7DCFCC4E90D55C4E912552046F8BD23
:104190006834D9E704213846FFF762FF04463060EF
:1041A0000028D5D1FFF778FF0C233B60EEE700BF76
:1041B000F47800080100FFFF2DE9F84380468946A6
:1041C00000F14804002614B93046BDE8F883D4E96C
:1041D0000175013F01D52468F5E7AB89012B07D9AB
:1041E000B5F90E30013303D029464046C84706438F
:1041F0006835EEE770477047704770B50E46B1F905
:104200000E10002996B014461D4607DA00232B60D5
:10421000B3891A0610D44FF480630EE06A4600F0AA
:1042200055FC0028F2DB019A02F47042A2F500531B
:104230005A425A412A60EEE740230020236016B01C
:1042400070BD00008B8973B59D0706460C4607D5E7
:1042500004F14703236023610123636102B070BD51
:1042600001AB6A46FFF7C9FF00990546304600F0EA
:104270007FF848B9B4F90C309A05EFD423F0030362
:1042800043F00203A381E3E70D4BB362A3892060EF
:1042900043F08003A381009B6361019B20615BB1BC
:1042A000B4F90E10304600F023FC28B1A38923F0A6
:1042B000030343F00103A381A3891D43A581CDE737
:1042C00055400008024B0146186800F051B800BF85
:1042D0008400002038B50546002945D051F8043C3B
:1042E0000C1F002BB8BFE41800F04CFC1F4A1368E9
:1042F000104633B9636014602846BDE8384000F0CA
:1043000047BCA3420CD921686218934204BF1A68C3
:104310005B68636004BF521822600460ECE71346D8
:104320005A680AB1A242FAD919685818A0420BD1AA
:1043300020680144581882421960DDD11068526823
:104340005A6001441960D7E702D90C232B60D3E7E8
:10435000206821188A4204BF11685268626004BF55
:10436000091821605C60C7E738BD00BFA8040020C1
:10437000F8B5CD1C25F0030508350C2D38BF0C25EC
:10438000002D064601DBA94203D90C23336000202F
:10439000F8BD00F0F7FB21490A6814469CB9204F8C
:1043A0003B6823B92146304600F01AFB38602946A5
:1043B000304600F015FB431C23D10C2333603046FC
:1043C00000F0E6FBE3E723685B1B17D40B2B03D954
:1043D00023601C44256004E06368A2420CBF0B60AC
:1043E0005360304600F0D4FB04F10B00231D20F095
:1043F0000700C21ACCD01B1AA350C9E72246646832
:10440000CCE7C41C24F00304A042E3D0211A3046B8
:1044100000F0E6FA0130DDD1CFE700BFA8040020AC
:10442000AC0400202DE9F0478E689E4282460C467F
:104430009146984638D8B1F80CC01CF4906F31D032
:1044400062692568096902EB42026F1A02EBD272B7
:10445000013355103B449D4238BF1D461CF4806F0C
:1044600030D02946FFF784FF064650B90C23CAF81E
:104470000030A38943F04003A3814FF0FF30BDE833
:10448000F0873A46216900F055FBA38923F4906335
:1044900043F08003A381266165613E44ED1B2660E5
:1044A000A5604646464500D94646324649462068FC
:1044B00000F04EFBA3689B1BA36023681E4426608C
:1044C0000020DCE72A4600F069FB06460028E2D11E
:1044D00021695046FFF7FEFEC8E700002DE9F04FC6
:1044E0001E468B891B069DB007460D4614460ED509
:1044F0000B6963B94021FFF73BFF2860286120B9B1
:104500000C233B604FF0FF30C9E040236B61002378
:10451000099320238DF82930DFF89C9103963023EE
:104520008DF82A304FF0010A23461E4613F8012B5E
:104530000AB1252AF9D1B6EB040B0BD05B46224613
:1045400029463846FFF76EFF013000F0A380099B33
:104550005B4409933378002B00F09C8000234FF0DC
:10456000FF32CDE905230136049307938DF85330CC
:104570001A933446052214F8011B4F48FBF728FE16
:10458000049BC0B9D90644BF20228DF853201A07D6
:1045900044BF2B228DF8532032782A2A13D0079A51
:1045A000344600200A26214611F8013B303B092BF6
:1045B0004BD970B914E0A0EB09000AFA00F01843D7
:1045C00004902646D5E7039A111D12680391002A2C
:1045D00001DB079204E0524243F002030792049386
:1045E00023782E2B0CD163782A2B33D1039B1A1DF1
:1045F0001B680392002BB8BF4FF0FF3302340593C2
:104600002E4E217803223046FBF7E2FD38B14023DD
:10461000801B03FA00F0049B03430134049314F855
:10462000011B27488DF828100622FBF7D1FD002832
:1046300038D0244B13BB039B073323F00703083305
:104640000393099B434409936EE706FB0232012062
:104650000C46A8E700230134059319460A26204694
:1046600010F8012B303A092A03D9002BC8D0059144
:10467000C6E706FB012101230446F0E703AB0093E4
:104680002A46114B04A93846AFF30080B0F1FF3F32
:104690008046D6D1AB895B063FF534AF09981DB093
:1046A000BDE8F08F03AB00932A46074B04A93846B8
:1046B00000F082F8EAE700BF587900085E79000848
:1046C0006279000800000000254400082DE9F04749
:1046D00091461F468A680B69DDF820809342B8BF77
:1046E0001346C9F8003091F8432006460C4612B133
:1046F0000133C9F800302368990642BFD9F8003069
:104700000233C9F80030256815F0060507D104F119
:10471000190AE368D9F800209B1AAB4228DC94F808
:1047200043302268003318BF012392062DD404F1D0
:10473000430239463046C047013020D02368E5683F
:10474000D9F8002003F00603042B08BFAD1AA368B4
:1047500022690CBF25EAE57500259342C4BF9B1A68
:10476000ED184FF000091A344D451AD1002008E029
:104770000123524639463046C047013003D14FF03D
:10478000FF30BDE8F0870135C3E7E1185A1C30203F
:1047900081F84300224494F8451082F84310023314
:1047A000C5E70123224639463046C0470130E6D0EE
:1047B00009F10109D8E700002DE9F04306460C464F
:1047C00001F14300097E85B06E29984617460C9B7F
:1047D00000F0BA8024D8632939D00AD8002900F023
:1047E000C380582900F0918004F1420584F84210FA
:1047F00035E0642901D06929F6D125681A6815F0D9
:10480000800F02F104012CD012681960002A03DA2B
:104810002D23524284F84330DFF8BCC10A233FE025
:10482000732900F0A58008D86F2921D07029DBD129
:10483000226842F02002226003E0752918D078290E
:10484000D2D1782284F84520DFF890C161E01A685F
:10485000111D1960136884F8423004F142050123E8
:1048600093E01268196015F0400F18BF12B2CDE73F
:10487000D4F800C01A681CF0800F02F104051D6016
:1048800001D0126803E01CF0400FFAD01288DFF864
:1048900048C16F290CBF08230A23002184F8431064
:1048A0006568A560002DA2BF216821F00401216088
:1048B0000AB9002D46D00546B2FBF3F103FB112ED9
:1048C00093421CF80EE005F801ED39D9082B0BD105
:1048D0002368DA0708D5236962689A42DEBF30236D
:1048E00005F8013C05F1FF35401B2061CDF8008043
:1048F0003B4603AA21463046FFF7E8FE013049D186
:104900004FF0FF3005B0BDE8F083DFF8CCC084F88D
:1049100045101D68216855F8042B1D600D060BD548
:10492000CD0744BF41F0200121601AB9236823F06C
:10493000200323601023B0E74B0648BF92B2EFE795
:104940000A46B9E70546C1E71A68D4F800C06169AC
:10495000151D1D601CF0800F136801D0196003E065
:104960001CF0400FFAD01980002323610546BDE7F3
:104970001A68111D19601568626800212846FBF746
:1049800027FC08B1401B606063682361002384F842
:104990004330ABE723692A4639463046C0470130E9
:1049A000AED023689B0713D4E068039B9842B8BF3E
:1049B0001846A7E701234A4639463046C04701302A
:1049C0009ED00135E368039A9B1AAB42F2DCEBE719
:1049D000002504F11909F5E7697900087A790008DA
:1049E00038B5064C002305460846236000F03EF922
:1049F000431C02D1236803B12B6038BD242800205A
:104A000010B50C46B1F90E1000F0EEF80028ABBF5F
:104A1000636DA3891B1823F48053ACBF6365A38126
:104A200010BD2DE9F0411F468B89DB0505460C467C
:104A3000164605D502230022B1F90E1000F068F8E1
:104A4000A389B4F90E1023F48053A38132463B4668
:104A50002846BDE8F04100F017B810B50C46B1F992
:104A60000E1000F055F8431CA38915BF606523F4B0
:104A7000805343F48053A38118BFA38110BDB1F9C3
:104A80000E1000F013B8000038B5074C0546084674
:104A90001146002222601A4600F0F6F8431C02D1AB
:104AA000236803B12B6038BD2428002038B5064C9C
:104AB000002305460846236000F0B0F8431C02D1ED
:104AC000236803B12B6038BD2428002038B5074C7B
:104AD0000023054608461146236000F0A7F8431C52
:104AE00002D1236803B12B6038BD00BF2428002009
:104AF00038B5064C002305460846236000F09EF8B2
:104B0000431C02D1236803B12B6038BD2428002048
:104B100038B5074C054608461146002222601A4661
:104B200000F094F8431C02D1236803B12B6038BD18
:104B3000242800200A44914200F1FF3300D170473D
:104B400010B511F8014B03F8014F9142F9D110BD96
:104B5000884210B501EB020302D983421C4607D8F4
:104B6000421E994208D011F8014B02F8014FF8E7B4
:104B700083189A1A9A4200D110BD14F8011D03F847
:104B8000011DF7E70148FFF736BB00BF1C280020D6
:104B90000148FFF731BB00BF1C280020F8B50746CD
:104BA00014460E4621B91146BDE8F840FFF7E0BBB8
:104BB00022B9FFF78FFB25462846F8BD00F026F8FE
:104BC000A0420FD221463846FFF7D2FB0546002807
:104BD000F2D031462246FFF7ADFF31463846FFF7A7
:104BE00079FBE9E73546E7E738B5074C054608465F
:104BF0001146002222601A4600F030F8431C02D110
:104C0000236803B12B6038BD2428002051F8043CF0
:104C1000181F002BBCBF0B58C0187047024B5822FE
:104C20001A604FF0FF30704724280020024B5822B2
:104C30001A604FF0FF30704724280020024B5822A2
:104C40001A600020704700BF24280020024B582221
:104C50001A604FF0FF30704724280020024B582282
:104C60001A604FF0FF30704724280020044A05499D
:104C70001368002B08BF0B46184410601846704795
:104C8000B004002028280020024B58221A604FF060
:104C9000FF30704724280020F8B500BFF8BC08BCDE
:104CA0009E467047F8B500BFF8BC08BC9E467047EA
:104CB0000000000000000000000000000F1F1C0C9E
:104CC0000F084898370A1304110D00000F322E0BFD
:104CD0000D05477537061003242000005372632F1B
:104CE0006D61696E2E6300000D0A54657374206453
:104CF000656275672074657874206E6577206275CB
:104D0000696C640D000000000D0A4C636420496E5C
:104D10006974204572726F720D0000009A069A063F
:104D2000DF07DF07B605B6051AD01AD01FF81FF83F
:104D300016B016B080D680D6C0FFC0FFA0B5A0B513
:104D400060D460D4A0FCA0FC20B320B39A069A06DD
:104D5000DF079A06DF079A06DF079A06DF079A063B
:104D6000DF079A06DF07DF07B605B605B605B60505
:104D7000B605B605B605B605B605B605B605B6055B
:104D8000C0FFC007C007C007C007C0FFC007C007FB
:104D9000C007C007A0058006A0058006A005800604
:104DA000A0058006A0058006A00580061AD01AD0AE
:104DB0001FF81FF816B016B09A069A06DF07DF072D
:104DC000B605B6051AD01AD01FF81FF816B016B0DF
:104DD00080D680D6C0FFC0FFA0B5A0B560D460D497
:104DE000A0FCA0FC20B320B380068006C007C0074B
:104DF000A005A00580D680D6C0FFC0FFA0B5A0B595
:104E000060D460D4A0FCA0FC20B320B38006800650
:104E1000C007C007A005A0051AD01AD01FF81FF8B8
:104E200016B016B09A069A06DF07DF07B605B60574
:104E30001AD01AD01FF81FF816B016B080D680D638
:104E4000C0FFC0FFA0B5A0B560D460D4A0FCA0FC9A
:104E500020B320B380068006C007C007A005A005C8
:104E600080D680D6C0FFC0FFA0B5A0B560D460D406
:104E7000A0FCA0FC20B320B380068006C007C007BA
:104E8000A005A0051AD01AD01FF81FF816B016B04A
:104E900080068006C007C007A005A0058006800622
:104EA000C007C007A005A0051AD01AD01FF81FF828
:104EB00016B016B020002000100029380418093858
:104EC0000D500D500D500D500C480C480D500D500C
:104ED0004E58D17009380310031809380B400B489D
:104EE0000D50F27013791381B2702B400418073003
:104EF0000D500D500D500D5073818C500418093811
:104F00000E500D506F608F606E602D500C480D502C
:104F10003381B0680520031003180418052006200B
:104F200008308D581171D1702B48052008300C487D
:104F30002E582D504D582E58F270306904180830F4
:104F40002F604F600D500D500D500D502E5854894C
:104F5000D2700728041807286E58F170F0686B4863
:104F60000620041805200628052009380D500E5883
:104F70002D504D584D582D504F60B38105180728BE
:104F80002E583489738174815381D2785589F2788F
:104F90000628051829385381979956915591B69945
:104FA00075898D5004180108041807300B4070688B
:104FB00050680C482C482C486F6053810518051820
:104FC0000A402F60B270358956913589906806285D
:104FD00005206D50F7A118A2D3780E500D500E5831
:104FE000B170759133818C50041804180628293843
:104FF000F27850600C480C486F606E580520021023
:105000000418062008300938093809380520052019
:10501000AE6078AAD799F2784F600D500D500D50C0
:105020000D50706891705591327909380418041840
:1050300069407489F2784F60338107280418051895
:1050400006200620062806280418020804188F6087
:1050500079AAF699137971680E500D500D500D50C4
:105060002E585379F591F699969134814B4804184E
:1050700003186B48D170D170CE6004180628AD506B
:105080003171727952796C50073004182A40D799DF
:10509000F691F69191680F600E580D500D500D501D
:1050A0000D500D50B06852795381B591B5912C5087
:1050B000041805200A380A40062829382D5070683F
:1050C000D278D69178AA179A6A400418D170D799E5
:1050D0005481748990680E580D500D502E582E58DA
:1050E0002E582E582E580D502E587068B5891381A1
:1050F0000938031003100418052070680E580D506D
:105100002E58D170D69958AACB480620558975914A
:1051100013791279B0680E580D500B482C482C4862
:105120002D500D500D500D500D504F60338174892E
:105130002C48041805186B4831710D500D500D5056
:105140000E58B170D69158AAAA400830D699558900
:10515000B170D17090600D500E580C480B480C483F
:105160000C480C480D500C480C4811713279F691DE
:105170004F600620083812794F600D502D502D5089
:105180002E588F60127958A249380830F6997589DF
:1051900091686F600D500D500D500C504E584E5888
:1051A0004D582D500C500C482C50D068B068D591FB
:1051B0006E58062029408F600D500D500C502D5018
:1051C0006E582E58906895892938072873819591D3
:1051D000137970680C480D500D502D504D504D589E
:1051E0004E582C482D502D502D500C504E581279A1
:1051F0002C480418CD506F600D500D500D502E5896
:105200002D500E5891705481083006203279338128
:10521000958970680C500C502D506E586E582C4863
:105220000B400B400B480C480D500D500D504F5883
:1052300009380620EF600E580D500D500D500D50DE
:105240000D500D506F604D5805200418F270D2704B
:10525000B16850680D500C480C484E586E582D508F
:105260000C480C480D500D500D500D500D500D5068
:105270000628483011710D500D500D500D500D5035
:105280000C500C480A400728031003106E58348154
:10529000D17091680F580D500C500C480C482D508F
:1052A0002D502D500D500D500D500D500D500B40E8
:1052B00004180838B0680D500D500B400A400830F3
:1052C0000728062805200418041802102A405691C1
:1052D000B170D16830600D500B480B400B400B4053
:1052E0000B400C480C480C480C480E580D50072831
:1052F0000208052009380B480C4806200520041830
:10530000052009380C486E580B4805200520D1703F
:1053100014814E584F600F580D500D500C480B48DB
:105320000B480D500D502E58F2782E5808300310AF
:1053300003100418052005200628493809382B4099
:10534000F068B589179A57A2F6914B4804180938A6
:10535000348192700C480D500D500D500D500D5071
:105360000D500D50F170D691D06807280418083000
:105370006F60F170AE588C504A4074895481959199
:1053800037A2F699B591D699B9B215922938041871
:105390004B48F48091702D500E582F580D500E58D8
:1053A00030605481D5918D50052002100938B170BC
:1053B000179A34811381F699B6912E584F60127165
:1053C000B5911379D270748998AA17A2B38106286F
:1053D00005206E58769194894F580F6030602F6089
:1053E0005489B5918B480310020802100B40F799BD
:1053F00094890E582E584F602F600D506E588F6054
:10540000D068D068B1686F60169AD691F7995069E4
:10541000051807284E581481B59152793381B591FA
:105420001171283004180518052003100830F69172
:10543000B1702F604F602E580D500D500D500D5013
:105440002D50B0682D500C48F170938113799489D8
:105450004938031006202C48D0681279D1706C505E
:105460000628062809382C500A40062805183171EC
:10547000B1704F604F582E580D500D500D500D50BB
:105480000C500C480C480C484D587279D0689591D6
:10549000327905200210031004180520051804189D
:1054A00008388F60F378B6915381093805206B4036
:1054B0006F600E584F604E580D500D500D500D50EE
:1054C0000D502E582E580D500D50F170D068127995
:1054D000B6996D5004180208051806280830AE6009
:1054E0009489B48993819068F699AF600620062864
:1054F0000B480D500E582E580D500D500D500D509C
:105500002D506E586F606F606F604E582E586E58F9
:1055100054891381083003100730B0683381F1706B
:105520006E581171F0680D50538154890830041879
:10553000062008300B480D500D500D500D500C50EA
:105540000C482D504E582D502D500C480B484D50A6
:10555000D17034894D5005200830B59170680C48E1
:105560000C482D500C480C486E58537929380310BC
:105570000310041805200A400D500D500D500C4822
:105580000B480B402C484D580C480C480D502E58D9
:105590008F601381F0680520273093812D500B48D0
:1055A0000C484E582E582E580D5012794B48031067
:1055B0008C50AE580730052009380A400D500D5068
:1055C0000D500C480B480C480C480C480C502E58F9
:1055D000AF60D170117107280628F1702D500C486A
:1055E0000C484D502D500D500D50D1704C480418A2
:1055F000AD5890680C480830052006200C480D5026
:105600000D500D500C480C480C480C480C484E5896
:10561000AF604F60F170073006282F580D502E50A4
:105620004E582D500C480C480C48B1706D50052058
:105630000B400D500D500B400730062007300D5029
:105640000D500D500D500D500D500D500D506F6000
:105650004E582E58B068073006280D500D500D508A
:105660000D500D500D500D500D5071682B480520F8
:105670000B400D500D50D0682A40073006200B48D3
:105680000D500D500D500D500D500D506E581171A4
:105690000D502E586D58052006200D500D500D5000
:1056A0000D502E580E580D502F607168073006208F
:1056B0000B400D500D509068306900002000200014
:1056C0001000868B868B8041637263726372637293
:1056D0006372637263728041845A845A845A845A12
:1056E000845A845AE141E141E141E141215A215A80
:1056F000215AE141E141804148A448A448A448A47A
:1057000048A4868B868B8041637263726372637276
:105710006372637263728041467346734673467365
:105720004673845AE14148A448A4868B868B868BB5
:10573000868B868B868B804148A4868B868B868B56
:10574000868B868B868B8041637263726372637211
:1057500063726372E14180414673467346734673D8
:105760004673845AE14148A4868B868B868B868B50
:10577000868B868B868B804148A446A4868B868B3D
:10578000868B8041804180418041215A215A80414D
:10579000215A215A215A8041845A845A845A845A5F
:1057A000845A845A804180418041215A63726372D5
:1057B00063726372804180418041215A215A804145
:1057C0008041848B6372637263726372637263720B
:1057D0006372E1416372215A215A215A215A215A96
:1057E0006372637263726372637263726372637211
:1057F0006372215A848B848B848B848B848B848BFF
:10580000848B848B6372637263726372637263727C
:105810006372E1416372215A215A215A215A215A55
:1058200063726372637263726372637263726372D0
:105830006372804146A4848B848B848B848B848B9D
:10584000848B848B848B848B6372637263726372C8
:105850006372E1416372215A215A215A215A215A15
:105860006372848B848B848B6372637263726372E2
:105870006372804146A446A446A4848B848B848BA7
:10588000848B80418041215A215A215A6372215AC6
:10589000215AE14163726372215AE141637263727A
:1058A00063726372E141E141E14163726372215AC3
:1058B000215A215AE141E141E141215A215A215A1B
:1058C000215A63726372215A48A448A448A4868B63
:1058D000215A6372637263726372E141637263722D
:1058E000637263726372E14146A446A4848B848B25
:1058F000215A637263726372E1416372637263720D
:10590000637263726372215A48A446A4868B868BA5
:1059100080416372637263726372215A637263724D
:10592000637263726372215A46A446A4848B848B8B
:105930008041637263726372215A6372637263722D
:10594000637263726372215A48A4868B868B868B3E
:105950008041848B637263726372215A63726372D3
:10596000637263726372215A46A446A446A4848B70
:105970008041848B848B848B848B637263726372AB
:10598000637263726372637263726372E141637222
:105990006372637263726372215A848B848B848B0B
:1059A000848B848B848B215A215A215AE141637262
:1059B000637263726372637263728041804180417B
:1059C000804163726372637263726372E1416372F6
:1059D0006372637263726372215A848B848B848BCB
:1059E000848B848B848B215A215A215AE141637222
:1059F00063726372637263726372637263726372FF
:105A0000804163726372637263726372E141215A0F
:105A1000848B848B848B6372215A848B848B848BDC
:105A2000848B848B848B215A215A215AE141215A3B
:105A3000848B848B848B6372637263726372215A6A
:105A40008041215A804180418041215AE141804179
:105A5000215A215A215A80418041215A215A80419C
:105A60008041215A8041215A8041215AE14180419F
:105A7000215A215A215A80418041215A215A80417C
:105A80008041848B63728041868B48A4868B868B91
:105A9000868B848B8041848B46A4848B848B637239
:105AA0006372637263728041637263726372637262
:105AB000637263726372804146A4848B848B848B8F
:105AC000848B848B63728041868B868B868B848BE0
:105AD000848B848B8041848B46A446A4848B637220
